{
	"contracts/CrowdFunding.sol": {
		"Crowdfunding": {
			"abi": [
				{
					"inputs": [
						{
							"internalType": "string",
							"name": "_name",
							"type": "string"
						},
						{
							"internalType": "string",
							"name": "_org_name",
							"type": "string"
						},
						{
							"internalType": "string",
							"name": "_description",
							"type": "string"
						},
						{
							"internalType": "uint256",
							"name": "_goal",
							"type": "uint256"
						},
						{
							"internalType": "uint256",
							"name": "_duration_in_days",
							"type": "uint256"
						}
					],
					"stateMutability": "nonpayable",
					"type": "constructor"
				},
				{
					"inputs": [
						{
							"internalType": "string",
							"name": "_name",
							"type": "string"
						},
						{
							"internalType": "string",
							"name": "_description",
							"type": "string"
						},
						{
							"internalType": "uint256",
							"name": "_amount",
							"type": "uint256"
						}
					],
					"name": "addTier",
					"outputs": [],
					"stateMutability": "nonpayable",
					"type": "function"
				},
				{
					"inputs": [],
					"name": "deadline",
					"outputs": [
						{
							"internalType": "uint256",
							"name": "",
							"type": "uint256"
						}
					],
					"stateMutability": "view",
					"type": "function"
				},
				{
					"inputs": [],
					"name": "description",
					"outputs": [
						{
							"internalType": "string",
							"name": "",
							"type": "string"
						}
					],
					"stateMutability": "view",
					"type": "function"
				},
				{
					"inputs": [
						{
							"internalType": "uint256",
							"name": "_tier_index",
							"type": "uint256"
						}
					],
					"name": "fund",
					"outputs": [],
					"stateMutability": "payable",
					"type": "function"
				},
				{
					"inputs": [],
					"name": "getBalance",
					"outputs": [
						{
							"internalType": "uint256",
							"name": "",
							"type": "uint256"
						}
					],
					"stateMutability": "view",
					"type": "function"
				},
				{
					"inputs": [],
					"name": "goal",
					"outputs": [
						{
							"internalType": "uint256",
							"name": "",
							"type": "uint256"
						}
					],
					"stateMutability": "view",
					"type": "function"
				},
				{
					"inputs": [],
					"name": "name",
					"outputs": [
						{
							"internalType": "string",
							"name": "",
							"type": "string"
						}
					],
					"stateMutability": "view",
					"type": "function"
				},
				{
					"inputs": [],
					"name": "org_name",
					"outputs": [
						{
							"internalType": "string",
							"name": "",
							"type": "string"
						}
					],
					"stateMutability": "view",
					"type": "function"
				},
				{
					"inputs": [],
					"name": "owner",
					"outputs": [
						{
							"internalType": "address",
							"name": "",
							"type": "address"
						}
					],
					"stateMutability": "view",
					"type": "function"
				},
				{
					"inputs": [
						{
							"internalType": "uint256",
							"name": "_index",
							"type": "uint256"
						}
					],
					"name": "removeTier",
					"outputs": [],
					"stateMutability": "nonpayable",
					"type": "function"
				},
				{
					"inputs": [
						{
							"internalType": "uint256",
							"name": "",
							"type": "uint256"
						}
					],
					"name": "tiers",
					"outputs": [
						{
							"internalType": "string",
							"name": "name",
							"type": "string"
						},
						{
							"internalType": "string",
							"name": "description",
							"type": "string"
						},
						{
							"internalType": "uint256",
							"name": "amount",
							"type": "uint256"
						},
						{
							"internalType": "uint256",
							"name": "backers",
							"type": "uint256"
						}
					],
					"stateMutability": "view",
					"type": "function"
				},
				{
					"inputs": [],
					"name": "withdraw",
					"outputs": [],
					"stateMutability": "nonpayable",
					"type": "function"
				}
			],
			"devdoc": {
				"kind": "dev",
				"methods": {},
				"version": 1
			},
			"evm": {
				"assembly": "    /* \"contracts/CrowdFunding.sol\":57:2268  contract Crowdfunding {... */\n  mstore(0x40, 0x80)\n    /* \"contracts/CrowdFunding.sol\":727:1113  constructor(... */\n  callvalue\n  dup1\n  iszero\n  tag_1\n  jumpi\n  revert(0x00, 0x00)\ntag_1:\n  pop\n  mload(0x40)\n  sub(codesize, bytecodeSize)\n  dup1\n  bytecodeSize\n  dup4\n  codecopy\n  dup2\n  dup2\n  add\n  0x40\n  mstore\n  dup2\n  add\n  swap1\n  tag_2\n  swap2\n  swap1\n  tag_3\n  jump\t// in\ntag_2:\n    /* \"contracts/CrowdFunding.sol\":918:923  _name */\n  dup5\n    /* \"contracts/CrowdFunding.sol\":911:915  name */\n  0x00\n    /* \"contracts/CrowdFunding.sol\":911:923  name = _name */\n  swap1\n  dup2\n  tag_6\n  swap2\n  swap1\n  tag_7\n  jump\t// in\ntag_6:\n  pop\n    /* \"contracts/CrowdFunding.sol\":944:953  _org_name */\n  dup4\n    /* \"contracts/CrowdFunding.sol\":933:941  org_name */\n  0x01\n    /* \"contracts/CrowdFunding.sol\":933:953  org_name = _org_name */\n  swap1\n  dup2\n  tag_8\n  swap2\n  swap1\n  tag_7\n  jump\t// in\ntag_8:\n  pop\n    /* \"contracts/CrowdFunding.sol\":977:989  _description */\n  dup3\n    /* \"contracts/CrowdFunding.sol\":963:974  description */\n  0x02\n    /* \"contracts/CrowdFunding.sol\":963:989  description = _description */\n  swap1\n  dup2\n  tag_9\n  swap2\n  swap1\n  tag_7\n  jump\t// in\ntag_9:\n  pop\n    /* \"contracts/CrowdFunding.sol\":1006:1011  _goal */\n  dup2\n    /* \"contracts/CrowdFunding.sol\":999:1003  goal */\n  0x03\n    /* \"contracts/CrowdFunding.sol\":999:1011  goal = _goal */\n  dup2\n  swap1\n  sstore\n  pop\n    /* \"contracts/CrowdFunding.sol\":1071:1077  1 days */\n  0x015180\n    /* \"contracts/CrowdFunding.sol\":1051:1068  _duration_in_days */\n  dup2\n    /* \"contracts/CrowdFunding.sol\":1051:1077  _duration_in_days * 1 days */\n  tag_10\n  swap2\n  swap1\n  tag_11\n  jump\t// in\ntag_10:\n    /* \"contracts/CrowdFunding.sol\":1032:1047  block.timestamp */\n  timestamp\n    /* \"contracts/CrowdFunding.sol\":1032:1078  block.timestamp + (_duration_in_days * 1 days) */\n  tag_12\n  swap2\n  swap1\n  tag_13\n  jump\t// in\ntag_12:\n    /* \"contracts/CrowdFunding.sol\":1021:1029  deadline */\n  0x04\n    /* \"contracts/CrowdFunding.sol\":1021:1078  deadline = block.timestamp + (_duration_in_days * 1 days) */\n  dup2\n  swap1\n  sstore\n  pop\n    /* \"contracts/CrowdFunding.sol\":1096:1106  msg.sender */\n  caller\n    /* \"contracts/CrowdFunding.sol\":1088:1093  owner */\n  0x05\n  0x00\n    /* \"contracts/CrowdFunding.sol\":1088:1106  owner = msg.sender */\n  0x0100\n  exp\n  dup2\n  sload\n  dup2\n  0xffffffffffffffffffffffffffffffffffffffff\n  mul\n  not\n  and\n  swap1\n  dup4\n  0xffffffffffffffffffffffffffffffffffffffff\n  and\n  mul\n  or\n  swap1\n  sstore\n  pop\n    /* \"contracts/CrowdFunding.sol\":727:1113  constructor(... */\n  pop\n  pop\n  pop\n  pop\n  pop\n    /* \"contracts/CrowdFunding.sol\":57:2268  contract Crowdfunding {... */\n  jump(tag_14)\n    /* \"#utility.yul\":7:82   */\ntag_15:\n    /* \"#utility.yul\":40:46   */\n  0x00\n    /* \"#utility.yul\":73:75   */\n  0x40\n    /* \"#utility.yul\":67:76   */\n  mload\n    /* \"#utility.yul\":57:76   */\n  swap1\n  pop\n    /* \"#utility.yul\":7:82   */\n  swap1\n  jump\t// out\n    /* \"#utility.yul\":88:205   */\ntag_16:\n    /* \"#utility.yul\":197:198   */\n  0x00\n    /* \"#utility.yul\":194:195   */\n  0x00\n    /* \"#utility.yul\":187:199   */\n  revert\n    /* \"#utility.yul\":211:328   */\ntag_17:\n    /* \"#utility.yul\":320:321   */\n  0x00\n    /* \"#utility.yul\":317:318   */\n  0x00\n    /* \"#utility.yul\":310:322   */\n  revert\n    /* \"#utility.yul\":334:451   */\ntag_18:\n    /* \"#utility.yul\":443:444   */\n  0x00\n    /* \"#utility.yul\":440:441   */\n  0x00\n    /* \"#utility.yul\":433:445   */\n  revert\n    /* \"#utility.yul\":457:574   */\ntag_19:\n    /* \"#utility.yul\":566:567   */\n  0x00\n    /* \"#utility.yul\":563:564   */\n  0x00\n    /* \"#utility.yul\":556:568   */\n  revert\n    /* \"#utility.yul\":580:682   */\ntag_20:\n    /* \"#utility.yul\":621:627   */\n  0x00\n    /* \"#utility.yul\":672:674   */\n  0x1f\n    /* \"#utility.yul\":668:675   */\n  not\n    /* \"#utility.yul\":663:665   */\n  0x1f\n    /* \"#utility.yul\":656:661   */\n  dup4\n    /* \"#utility.yul\":652:666   */\n  add\n    /* \"#utility.yul\":648:676   */\n  and\n    /* \"#utility.yul\":638:676   */\n  swap1\n  pop\n    /* \"#utility.yul\":580:682   */\n  swap2\n  swap1\n  pop\n  jump\t// out\n    /* \"#utility.yul\":688:868   */\ntag_21:\n    /* \"#utility.yul\":736:813   */\n  0x4e487b7100000000000000000000000000000000000000000000000000000000\n    /* \"#utility.yul\":733:734   */\n  0x00\n    /* \"#utility.yul\":726:814   */\n  mstore\n    /* \"#utility.yul\":833:837   */\n  0x41\n    /* \"#utility.yul\":830:831   */\n  0x04\n    /* \"#utility.yul\":823:838   */\n  mstore\n    /* \"#utility.yul\":857:861   */\n  0x24\n    /* \"#utility.yul\":854:855   */\n  0x00\n    /* \"#utility.yul\":847:862   */\n  revert\n    /* \"#utility.yul\":874:1155   */\ntag_22:\n    /* \"#utility.yul\":957:984   */\n  tag_59\n    /* \"#utility.yul\":979:983   */\n  dup3\n    /* \"#utility.yul\":957:984   */\n  tag_20\n  jump\t// in\ntag_59:\n    /* \"#utility.yul\":949:955   */\n  dup2\n    /* \"#utility.yul\":945:985   */\n  add\n    /* \"#utility.yul\":1087:1093   */\n  dup2\n    /* \"#utility.yul\":1075:1085   */\n  dup2\n    /* \"#utility.yul\":1072:1094   */\n  lt\n    /* \"#utility.yul\":1051:1069   */\n  0xffffffffffffffff\n    /* \"#utility.yul\":1039:1049   */\n  dup3\n    /* \"#utility.yul\":1036:1070   */\n  gt\n    /* \"#utility.yul\":1033:1095   */\n  or\n    /* \"#utility.yul\":1030:1118   */\n  iszero\n  tag_60\n  jumpi\n    /* \"#utility.yul\":1098:1116   */\n  tag_61\n  tag_21\n  jump\t// in\ntag_61:\n    /* \"#utility.yul\":1030:1118   */\ntag_60:\n    /* \"#utility.yul\":1138:1148   */\n  dup1\n    /* \"#utility.yul\":1134:1136   */\n  0x40\n    /* \"#utility.yul\":1127:1149   */\n  mstore\n    /* \"#utility.yul\":917:1155   */\n  pop\n    /* \"#utility.yul\":874:1155   */\n  pop\n  pop\n  jump\t// out\n    /* \"#utility.yul\":1161:1290   */\ntag_23:\n    /* \"#utility.yul\":1195:1201   */\n  0x00\n    /* \"#utility.yul\":1222:1242   */\n  tag_63\n  tag_15\n  jump\t// in\ntag_63:\n    /* \"#utility.yul\":1212:1242   */\n  swap1\n  pop\n    /* \"#utility.yul\":1251:1284   */\n  tag_64\n    /* \"#utility.yul\":1279:1283   */\n  dup3\n    /* \"#utility.yul\":1271:1277   */\n  dup3\n    /* \"#utility.yul\":1251:1284   */\n  tag_22\n  jump\t// in\ntag_64:\n    /* \"#utility.yul\":1161:1290   */\n  swap2\n  swap1\n  pop\n  jump\t// out\n    /* \"#utility.yul\":1296:1604   */\ntag_24:\n    /* \"#utility.yul\":1358:1362   */\n  0x00\n    /* \"#utility.yul\":1448:1466   */\n  0xffffffffffffffff\n    /* \"#utility.yul\":1440:1446   */\n  dup3\n    /* \"#utility.yul\":1437:1467   */\n  gt\n    /* \"#utility.yul\":1434:1490   */\n  iszero\n  tag_66\n  jumpi\n    /* \"#utility.yul\":1470:1488   */\n  tag_67\n  tag_21\n  jump\t// in\ntag_67:\n    /* \"#utility.yul\":1434:1490   */\ntag_66:\n    /* \"#utility.yul\":1508:1537   */\n  tag_68\n    /* \"#utility.yul\":1530:1536   */\n  dup3\n    /* \"#utility.yul\":1508:1537   */\n  tag_20\n  jump\t// in\ntag_68:\n    /* \"#utility.yul\":1500:1537   */\n  swap1\n  pop\n    /* \"#utility.yul\":1592:1596   */\n  0x20\n    /* \"#utility.yul\":1586:1590   */\n  dup2\n    /* \"#utility.yul\":1582:1597   */\n  add\n    /* \"#utility.yul\":1574:1597   */\n  swap1\n  pop\n    /* \"#utility.yul\":1296:1604   */\n  swap2\n  swap1\n  pop\n  jump\t// out\n    /* \"#utility.yul\":1610:1749   */\ntag_25:\n    /* \"#utility.yul\":1699:1705   */\n  dup3\n    /* \"#utility.yul\":1694:1697   */\n  dup2\n    /* \"#utility.yul\":1689:1692   */\n  dup4\n    /* \"#utility.yul\":1683:1706   */\n  mcopy\n    /* \"#utility.yul\":1740:1741   */\n  0x00\n    /* \"#utility.yul\":1731:1737   */\n  dup4\n    /* \"#utility.yul\":1726:1729   */\n  dup4\n    /* \"#utility.yul\":1722:1738   */\n  add\n    /* \"#utility.yul\":1715:1742   */\n  mstore\n    /* \"#utility.yul\":1610:1749   */\n  pop\n  pop\n  pop\n  jump\t// out\n    /* \"#utility.yul\":1755:2189   */\ntag_26:\n    /* \"#utility.yul\":1844:1849   */\n  0x00\n    /* \"#utility.yul\":1869:1935   */\n  tag_71\n    /* \"#utility.yul\":1885:1934   */\n  tag_72\n    /* \"#utility.yul\":1927:1933   */\n  dup5\n    /* \"#utility.yul\":1885:1934   */\n  tag_24\n  jump\t// in\ntag_72:\n    /* \"#utility.yul\":1869:1935   */\n  tag_23\n  jump\t// in\ntag_71:\n    /* \"#utility.yul\":1860:1935   */\n  swap1\n  pop\n    /* \"#utility.yul\":1958:1964   */\n  dup3\n    /* \"#utility.yul\":1951:1956   */\n  dup2\n    /* \"#utility.yul\":1944:1965   */\n  mstore\n    /* \"#utility.yul\":1996:2000   */\n  0x20\n    /* \"#utility.yul\":1989:1994   */\n  dup2\n    /* \"#utility.yul\":1985:2001   */\n  add\n    /* \"#utility.yul\":2034:2037   */\n  dup5\n    /* \"#utility.yul\":2025:2031   */\n  dup5\n    /* \"#utility.yul\":2020:2023   */\n  dup5\n    /* \"#utility.yul\":2016:2032   */\n  add\n    /* \"#utility.yul\":2013:2038   */\n  gt\n    /* \"#utility.yul\":2010:2122   */\n  iszero\n  tag_73\n  jumpi\n    /* \"#utility.yul\":2041:2120   */\n  tag_74\n  tag_19\n  jump\t// in\ntag_74:\n    /* \"#utility.yul\":2010:2122   */\ntag_73:\n    /* \"#utility.yul\":2131:2183   */\n  tag_75\n    /* \"#utility.yul\":2176:2182   */\n  dup5\n    /* \"#utility.yul\":2171:2174   */\n  dup3\n    /* \"#utility.yul\":2166:2169   */\n  dup6\n    /* \"#utility.yul\":2131:2183   */\n  tag_25\n  jump\t// in\ntag_75:\n    /* \"#utility.yul\":1850:2189   */\n  pop\n    /* \"#utility.yul\":1755:2189   */\n  swap4\n  swap3\n  pop\n  pop\n  pop\n  jump\t// out\n    /* \"#utility.yul\":2209:2564   */\ntag_27:\n    /* \"#utility.yul\":2276:2281   */\n  0x00\n    /* \"#utility.yul\":2325:2328   */\n  dup3\n    /* \"#utility.yul\":2318:2322   */\n  0x1f\n    /* \"#utility.yul\":2310:2316   */\n  dup4\n    /* \"#utility.yul\":2306:2323   */\n  add\n    /* \"#utility.yul\":2302:2329   */\n  slt\n    /* \"#utility.yul\":2292:2414   */\n  tag_77\n  jumpi\n    /* \"#utility.yul\":2333:2412   */\n  tag_78\n  tag_18\n  jump\t// in\ntag_78:\n    /* \"#utility.yul\":2292:2414   */\ntag_77:\n    /* \"#utility.yul\":2443:2449   */\n  dup2\n    /* \"#utility.yul\":2437:2450   */\n  mload\n    /* \"#utility.yul\":2468:2558   */\n  tag_79\n    /* \"#utility.yul\":2554:2557   */\n  dup5\n    /* \"#utility.yul\":2546:2552   */\n  dup3\n    /* \"#utility.yul\":2539:2543   */\n  0x20\n    /* \"#utility.yul\":2531:2537   */\n  dup7\n    /* \"#utility.yul\":2527:2544   */\n  add\n    /* \"#utility.yul\":2468:2558   */\n  tag_26\n  jump\t// in\ntag_79:\n    /* \"#utility.yul\":2459:2558   */\n  swap2\n  pop\n    /* \"#utility.yul\":2282:2564   */\n  pop\n    /* \"#utility.yul\":2209:2564   */\n  swap3\n  swap2\n  pop\n  pop\n  jump\t// out\n    /* \"#utility.yul\":2570:2647   */\ntag_28:\n    /* \"#utility.yul\":2607:2614   */\n  0x00\n    /* \"#utility.yul\":2636:2641   */\n  dup2\n    /* \"#utility.yul\":2625:2641   */\n  swap1\n  pop\n    /* \"#utility.yul\":2570:2647   */\n  swap2\n  swap1\n  pop\n  jump\t// out\n    /* \"#utility.yul\":2653:2775   */\ntag_29:\n    /* \"#utility.yul\":2726:2750   */\n  tag_82\n    /* \"#utility.yul\":2744:2749   */\n  dup2\n    /* \"#utility.yul\":2726:2750   */\n  tag_28\n  jump\t// in\ntag_82:\n    /* \"#utility.yul\":2719:2724   */\n  dup2\n    /* \"#utility.yul\":2716:2751   */\n  eq\n    /* \"#utility.yul\":2706:2769   */\n  tag_83\n  jumpi\n    /* \"#utility.yul\":2765:2766   */\n  0x00\n    /* \"#utility.yul\":2762:2763   */\n  0x00\n    /* \"#utility.yul\":2755:2767   */\n  revert\n    /* \"#utility.yul\":2706:2769   */\ntag_83:\n    /* \"#utility.yul\":2653:2775   */\n  pop\n  jump\t// out\n    /* \"#utility.yul\":2781:2924   */\ntag_30:\n    /* \"#utility.yul\":2838:2843   */\n  0x00\n    /* \"#utility.yul\":2869:2875   */\n  dup2\n    /* \"#utility.yul\":2863:2876   */\n  mload\n    /* \"#utility.yul\":2854:2876   */\n  swap1\n  pop\n    /* \"#utility.yul\":2885:2918   */\n  tag_85\n    /* \"#utility.yul\":2912:2917   */\n  dup2\n    /* \"#utility.yul\":2885:2918   */\n  tag_29\n  jump\t// in\ntag_85:\n    /* \"#utility.yul\":2781:2924   */\n  swap3\n  swap2\n  pop\n  pop\n  jump\t// out\n    /* \"#utility.yul\":2930:4426   */\ntag_3:\n    /* \"#utility.yul\":3066:3072   */\n  0x00\n    /* \"#utility.yul\":3074:3080   */\n  0x00\n    /* \"#utility.yul\":3082:3088   */\n  0x00\n    /* \"#utility.yul\":3090:3096   */\n  0x00\n    /* \"#utility.yul\":3098:3104   */\n  0x00\n    /* \"#utility.yul\":3147:3150   */\n  0xa0\n    /* \"#utility.yul\":3135:3144   */\n  dup7\n    /* \"#utility.yul\":3126:3133   */\n  dup9\n    /* \"#utility.yul\":3122:3145   */\n  sub\n    /* \"#utility.yul\":3118:3151   */\n  slt\n    /* \"#utility.yul\":3115:3235   */\n  iszero\n  tag_87\n  jumpi\n    /* \"#utility.yul\":3154:3233   */\n  tag_88\n  tag_16\n  jump\t// in\ntag_88:\n    /* \"#utility.yul\":3115:3235   */\ntag_87:\n    /* \"#utility.yul\":3295:3296   */\n  0x00\n    /* \"#utility.yul\":3284:3293   */\n  dup7\n    /* \"#utility.yul\":3280:3297   */\n  add\n    /* \"#utility.yul\":3274:3298   */\n  mload\n    /* \"#utility.yul\":3325:3343   */\n  0xffffffffffffffff\n    /* \"#utility.yul\":3317:3323   */\n  dup2\n    /* \"#utility.yul\":3314:3344   */\n  gt\n    /* \"#utility.yul\":3311:3428   */\n  iszero\n  tag_89\n  jumpi\n    /* \"#utility.yul\":3347:3426   */\n  tag_90\n  tag_17\n  jump\t// in\ntag_90:\n    /* \"#utility.yul\":3311:3428   */\ntag_89:\n    /* \"#utility.yul\":3452:3526   */\n  tag_91\n    /* \"#utility.yul\":3518:3525   */\n  dup9\n    /* \"#utility.yul\":3509:3515   */\n  dup3\n    /* \"#utility.yul\":3498:3507   */\n  dup10\n    /* \"#utility.yul\":3494:3516   */\n  add\n    /* \"#utility.yul\":3452:3526   */\n  tag_27\n  jump\t// in\ntag_91:\n    /* \"#utility.yul\":3442:3526   */\n  swap6\n  pop\n    /* \"#utility.yul\":3245:3536   */\n  pop\n    /* \"#utility.yul\":3596:3598   */\n  0x20\n    /* \"#utility.yul\":3585:3594   */\n  dup7\n    /* \"#utility.yul\":3581:3599   */\n  add\n    /* \"#utility.yul\":3575:3600   */\n  mload\n    /* \"#utility.yul\":3627:3645   */\n  0xffffffffffffffff\n    /* \"#utility.yul\":3619:3625   */\n  dup2\n    /* \"#utility.yul\":3616:3646   */\n  gt\n    /* \"#utility.yul\":3613:3730   */\n  iszero\n  tag_92\n  jumpi\n    /* \"#utility.yul\":3649:3728   */\n  tag_93\n  tag_17\n  jump\t// in\ntag_93:\n    /* \"#utility.yul\":3613:3730   */\ntag_92:\n    /* \"#utility.yul\":3754:3828   */\n  tag_94\n    /* \"#utility.yul\":3820:3827   */\n  dup9\n    /* \"#utility.yul\":3811:3817   */\n  dup3\n    /* \"#utility.yul\":3800:3809   */\n  dup10\n    /* \"#utility.yul\":3796:3818   */\n  add\n    /* \"#utility.yul\":3754:3828   */\n  tag_27\n  jump\t// in\ntag_94:\n    /* \"#utility.yul\":3744:3828   */\n  swap5\n  pop\n    /* \"#utility.yul\":3546:3838   */\n  pop\n    /* \"#utility.yul\":3898:3900   */\n  0x40\n    /* \"#utility.yul\":3887:3896   */\n  dup7\n    /* \"#utility.yul\":3883:3901   */\n  add\n    /* \"#utility.yul\":3877:3902   */\n  mload\n    /* \"#utility.yul\":3929:3947   */\n  0xffffffffffffffff\n    /* \"#utility.yul\":3921:3927   */\n  dup2\n    /* \"#utility.yul\":3918:3948   */\n  gt\n    /* \"#utility.yul\":3915:4032   */\n  iszero\n  tag_95\n  jumpi\n    /* \"#utility.yul\":3951:4030   */\n  tag_96\n  tag_17\n  jump\t// in\ntag_96:\n    /* \"#utility.yul\":3915:4032   */\ntag_95:\n    /* \"#utility.yul\":4056:4130   */\n  tag_97\n    /* \"#utility.yul\":4122:4129   */\n  dup9\n    /* \"#utility.yul\":4113:4119   */\n  dup3\n    /* \"#utility.yul\":4102:4111   */\n  dup10\n    /* \"#utility.yul\":4098:4120   */\n  add\n    /* \"#utility.yul\":4056:4130   */\n  tag_27\n  jump\t// in\ntag_97:\n    /* \"#utility.yul\":4046:4130   */\n  swap4\n  pop\n    /* \"#utility.yul\":3848:4140   */\n  pop\n    /* \"#utility.yul\":4179:4181   */\n  0x60\n    /* \"#utility.yul\":4205:4269   */\n  tag_98\n    /* \"#utility.yul\":4261:4268   */\n  dup9\n    /* \"#utility.yul\":4252:4258   */\n  dup3\n    /* \"#utility.yul\":4241:4250   */\n  dup10\n    /* \"#utility.yul\":4237:4259   */\n  add\n    /* \"#utility.yul\":4205:4269   */\n  tag_30\n  jump\t// in\ntag_98:\n    /* \"#utility.yul\":4195:4269   */\n  swap3\n  pop\n    /* \"#utility.yul\":4150:4279   */\n  pop\n    /* \"#utility.yul\":4318:4321   */\n  0x80\n    /* \"#utility.yul\":4345:4409   */\n  tag_99\n    /* \"#utility.yul\":4401:4408   */\n  dup9\n    /* \"#utility.yul\":4392:4398   */\n  dup3\n    /* \"#utility.yul\":4381:4390   */\n  dup10\n    /* \"#utility.yul\":4377:4399   */\n  add\n    /* \"#utility.yul\":4345:4409   */\n  tag_30\n  jump\t// in\ntag_99:\n    /* \"#utility.yul\":4335:4409   */\n  swap2\n  pop\n    /* \"#utility.yul\":4289:4419   */\n  pop\n    /* \"#utility.yul\":2930:4426   */\n  swap3\n  swap6\n  pop\n  swap3\n  swap6\n  swap1\n  swap4\n  pop\n  jump\t// out\n    /* \"#utility.yul\":4432:4531   */\ntag_31:\n    /* \"#utility.yul\":4484:4490   */\n  0x00\n    /* \"#utility.yul\":4518:4523   */\n  dup2\n    /* \"#utility.yul\":4512:4524   */\n  mload\n    /* \"#utility.yul\":4502:4524   */\n  swap1\n  pop\n    /* \"#utility.yul\":4432:4531   */\n  swap2\n  swap1\n  pop\n  jump\t// out\n    /* \"#utility.yul\":4537:4717   */\ntag_32:\n    /* \"#utility.yul\":4585:4662   */\n  0x4e487b7100000000000000000000000000000000000000000000000000000000\n    /* \"#utility.yul\":4582:4583   */\n  0x00\n    /* \"#utility.yul\":4575:4663   */\n  mstore\n    /* \"#utility.yul\":4682:4686   */\n  0x22\n    /* \"#utility.yul\":4679:4680   */\n  0x04\n    /* \"#utility.yul\":4672:4687   */\n  mstore\n    /* \"#utility.yul\":4706:4710   */\n  0x24\n    /* \"#utility.yul\":4703:4704   */\n  0x00\n    /* \"#utility.yul\":4696:4711   */\n  revert\n    /* \"#utility.yul\":4723:5043   */\ntag_33:\n    /* \"#utility.yul\":4767:4773   */\n  0x00\n    /* \"#utility.yul\":4804:4805   */\n  0x02\n    /* \"#utility.yul\":4798:4802   */\n  dup3\n    /* \"#utility.yul\":4794:4806   */\n  div\n    /* \"#utility.yul\":4784:4806   */\n  swap1\n  pop\n    /* \"#utility.yul\":4851:4852   */\n  0x01\n    /* \"#utility.yul\":4845:4849   */\n  dup3\n    /* \"#utility.yul\":4841:4853   */\n  and\n    /* \"#utility.yul\":4872:4890   */\n  dup1\n    /* \"#utility.yul\":4862:4943   */\n  tag_103\n  jumpi\n    /* \"#utility.yul\":4928:4932   */\n  0x7f\n    /* \"#utility.yul\":4920:4926   */\n  dup3\n    /* \"#utility.yul\":4916:4933   */\n  and\n    /* \"#utility.yul\":4906:4933   */\n  swap2\n  pop\n    /* \"#utility.yul\":4862:4943   */\ntag_103:\n    /* \"#utility.yul\":4990:4992   */\n  0x20\n    /* \"#utility.yul\":4982:4988   */\n  dup3\n    /* \"#utility.yul\":4979:4993   */\n  lt\n    /* \"#utility.yul\":4959:4977   */\n  dup2\n    /* \"#utility.yul\":4956:4994   */\n  sub\n    /* \"#utility.yul\":4953:5037   */\n  tag_104\n  jumpi\n    /* \"#utility.yul\":5009:5027   */\n  tag_105\n  tag_32\n  jump\t// in\ntag_105:\n    /* \"#utility.yul\":4953:5037   */\ntag_104:\n    /* \"#utility.yul\":4774:5043   */\n  pop\n    /* \"#utility.yul\":4723:5043   */\n  swap2\n  swap1\n  pop\n  jump\t// out\n    /* \"#utility.yul\":5049:5190   */\ntag_34:\n    /* \"#utility.yul\":5098:5102   */\n  0x00\n    /* \"#utility.yul\":5121:5124   */\n  dup2\n    /* \"#utility.yul\":5113:5124   */\n  swap1\n  pop\n    /* \"#utility.yul\":5144:5147   */\n  dup2\n    /* \"#utility.yul\":5141:5142   */\n  0x00\n    /* \"#utility.yul\":5134:5148   */\n  mstore\n    /* \"#utility.yul\":5178:5182   */\n  0x20\n    /* \"#utility.yul\":5175:5176   */\n  0x00\n    /* \"#utility.yul\":5165:5183   */\n  keccak256\n    /* \"#utility.yul\":5157:5183   */\n  swap1\n  pop\n    /* \"#utility.yul\":5049:5190   */\n  swap2\n  swap1\n  pop\n  jump\t// out\n    /* \"#utility.yul\":5196:5289   */\ntag_35:\n    /* \"#utility.yul\":5233:5239   */\n  0x00\n    /* \"#utility.yul\":5280:5282   */\n  0x20\n    /* \"#utility.yul\":5275:5277   */\n  0x1f\n    /* \"#utility.yul\":5268:5273   */\n  dup4\n    /* \"#utility.yul\":5264:5278   */\n  add\n    /* \"#utility.yul\":5260:5283   */\n  div\n    /* \"#utility.yul\":5250:5283   */\n  swap1\n  pop\n    /* \"#utility.yul\":5196:5289   */\n  swap2\n  swap1\n  pop\n  jump\t// out\n    /* \"#utility.yul\":5295:5402   */\ntag_36:\n    /* \"#utility.yul\":5339:5347   */\n  0x00\n    /* \"#utility.yul\":5389:5394   */\n  dup3\n    /* \"#utility.yul\":5383:5387   */\n  dup3\n    /* \"#utility.yul\":5379:5395   */\n  shl\n    /* \"#utility.yul\":5358:5395   */\n  swap1\n  pop\n    /* \"#utility.yul\":5295:5402   */\n  swap3\n  swap2\n  pop\n  pop\n  jump\t// out\n    /* \"#utility.yul\":5408:5801   */\ntag_37:\n    /* \"#utility.yul\":5477:5483   */\n  0x00\n    /* \"#utility.yul\":5527:5528   */\n  0x08\n    /* \"#utility.yul\":5515:5525   */\n  dup4\n    /* \"#utility.yul\":5511:5529   */\n  mul\n    /* \"#utility.yul\":5550:5647   */\n  tag_110\n    /* \"#utility.yul\":5580:5646   */\n  0xffffffffffffffffffffffffffffffffffffffffffffffffffffffffffffffff\n    /* \"#utility.yul\":5569:5578   */\n  dup3\n    /* \"#utility.yul\":5550:5647   */\n  tag_36\n  jump\t// in\ntag_110:\n    /* \"#utility.yul\":5668:5707   */\n  tag_111\n    /* \"#utility.yul\":5698:5706   */\n  dup7\n    /* \"#utility.yul\":5687:5696   */\n  dup4\n    /* \"#utility.yul\":5668:5707   */\n  tag_36\n  jump\t// in\ntag_111:\n    /* \"#utility.yul\":5656:5707   */\n  swap6\n  pop\n    /* \"#utility.yul\":5740:5744   */\n  dup1\n    /* \"#utility.yul\":5736:5745   */\n  not\n    /* \"#utility.yul\":5729:5734   */\n  dup5\n    /* \"#utility.yul\":5725:5746   */\n  and\n    /* \"#utility.yul\":5716:5746   */\n  swap4\n  pop\n    /* \"#utility.yul\":5789:5793   */\n  dup1\n    /* \"#utility.yul\":5779:5787   */\n  dup7\n    /* \"#utility.yul\":5775:5794   */\n  and\n    /* \"#utility.yul\":5768:5773   */\n  dup5\n    /* \"#utility.yul\":5765:5795   */\n  or\n    /* \"#utility.yul\":5755:5795   */\n  swap3\n  pop\n    /* \"#utility.yul\":5484:5801   */\n  pop\n  pop\n    /* \"#utility.yul\":5408:5801   */\n  swap4\n  swap3\n  pop\n  pop\n  pop\n  jump\t// out\n    /* \"#utility.yul\":5807:5867   */\ntag_38:\n    /* \"#utility.yul\":5835:5838   */\n  0x00\n    /* \"#utility.yul\":5856:5861   */\n  dup2\n    /* \"#utility.yul\":5849:5861   */\n  swap1\n  pop\n    /* \"#utility.yul\":5807:5867   */\n  swap2\n  swap1\n  pop\n  jump\t// out\n    /* \"#utility.yul\":5873:6015   */\ntag_39:\n    /* \"#utility.yul\":5923:5932   */\n  0x00\n    /* \"#utility.yul\":5956:6009   */\n  tag_114\n    /* \"#utility.yul\":5974:6008   */\n  tag_115\n    /* \"#utility.yul\":5983:6007   */\n  tag_116\n    /* \"#utility.yul\":6001:6006   */\n  dup5\n    /* \"#utility.yul\":5983:6007   */\n  tag_28\n  jump\t// in\ntag_116:\n    /* \"#utility.yul\":5974:6008   */\n  tag_38\n  jump\t// in\ntag_115:\n    /* \"#utility.yul\":5956:6009   */\n  tag_28\n  jump\t// in\ntag_114:\n    /* \"#utility.yul\":5943:6009   */\n  swap1\n  pop\n    /* \"#utility.yul\":5873:6015   */\n  swap2\n  swap1\n  pop\n  jump\t// out\n    /* \"#utility.yul\":6021:6096   */\ntag_40:\n    /* \"#utility.yul\":6064:6067   */\n  0x00\n    /* \"#utility.yul\":6085:6090   */\n  dup2\n    /* \"#utility.yul\":6078:6090   */\n  swap1\n  pop\n    /* \"#utility.yul\":6021:6096   */\n  swap2\n  swap1\n  pop\n  jump\t// out\n    /* \"#utility.yul\":6102:6371   */\ntag_41:\n    /* \"#utility.yul\":6212:6251   */\n  tag_119\n    /* \"#utility.yul\":6243:6250   */\n  dup4\n    /* \"#utility.yul\":6212:6251   */\n  tag_39\n  jump\t// in\ntag_119:\n    /* \"#utility.yul\":6273:6364   */\n  tag_120\n    /* \"#utility.yul\":6322:6363   */\n  tag_121\n    /* \"#utility.yul\":6346:6362   */\n  dup3\n    /* \"#utility.yul\":6322:6363   */\n  tag_40\n  jump\t// in\ntag_121:\n    /* \"#utility.yul\":6314:6320   */\n  dup5\n    /* \"#utility.yul\":6307:6311   */\n  dup5\n    /* \"#utility.yul\":6301:6312   */\n  sload\n    /* \"#utility.yul\":6273:6364   */\n  tag_37\n  jump\t// in\ntag_120:\n    /* \"#utility.yul\":6267:6271   */\n  dup3\n    /* \"#utility.yul\":6260:6365   */\n  sstore\n    /* \"#utility.yul\":6178:6371   */\n  pop\n    /* \"#utility.yul\":6102:6371   */\n  pop\n  pop\n  pop\n  jump\t// out\n    /* \"#utility.yul\":6377:6450   */\ntag_42:\n    /* \"#utility.yul\":6422:6425   */\n  0x00\n    /* \"#utility.yul\":6443:6444   */\n  0x00\n    /* \"#utility.yul\":6436:6444   */\n  swap1\n  pop\n    /* \"#utility.yul\":6377:6450   */\n  swap1\n  jump\t// out\n    /* \"#utility.yul\":6456:6645   */\ntag_43:\n    /* \"#utility.yul\":6533:6565   */\n  tag_124\n  tag_42\n  jump\t// in\ntag_124:\n    /* \"#utility.yul\":6574:6639   */\n  tag_125\n    /* \"#utility.yul\":6632:6638   */\n  dup2\n    /* \"#utility.yul\":6624:6630   */\n  dup5\n    /* \"#utility.yul\":6618:6622   */\n  dup5\n    /* \"#utility.yul\":6574:6639   */\n  tag_41\n  jump\t// in\ntag_125:\n    /* \"#utility.yul\":6509:6645   */\n  pop\n    /* \"#utility.yul\":6456:6645   */\n  pop\n  pop\n  jump\t// out\n    /* \"#utility.yul\":6651:6837   */\ntag_44:\n    /* \"#utility.yul\":6711:6831   */\ntag_127:\n    /* \"#utility.yul\":6728:6731   */\n  dup2\n    /* \"#utility.yul\":6721:6726   */\n  dup2\n    /* \"#utility.yul\":6718:6732   */\n  lt\n    /* \"#utility.yul\":6711:6831   */\n  iszero\n  tag_129\n  jumpi\n    /* \"#utility.yul\":6782:6821   */\n  tag_130\n    /* \"#utility.yul\":6819:6820   */\n  0x00\n    /* \"#utility.yul\":6812:6817   */\n  dup3\n    /* \"#utility.yul\":6782:6821   */\n  tag_43\n  jump\t// in\ntag_130:\n    /* \"#utility.yul\":6755:6756   */\n  0x01\n    /* \"#utility.yul\":6748:6753   */\n  dup2\n    /* \"#utility.yul\":6744:6757   */\n  add\n    /* \"#utility.yul\":6735:6757   */\n  swap1\n  pop\n    /* \"#utility.yul\":6711:6831   */\n  jump(tag_127)\ntag_129:\n    /* \"#utility.yul\":6651:6837   */\n  pop\n  pop\n  jump\t// out\n    /* \"#utility.yul\":6843:7386   */\ntag_45:\n    /* \"#utility.yul\":6944:6946   */\n  0x1f\n    /* \"#utility.yul\":6939:6942   */\n  dup3\n    /* \"#utility.yul\":6936:6947   */\n  gt\n    /* \"#utility.yul\":6933:7379   */\n  iszero\n  tag_132\n  jumpi\n    /* \"#utility.yul\":6978:7016   */\n  tag_133\n    /* \"#utility.yul\":7010:7015   */\n  dup2\n    /* \"#utility.yul\":6978:7016   */\n  tag_34\n  jump\t// in\ntag_133:\n    /* \"#utility.yul\":7062:7091   */\n  tag_134\n    /* \"#utility.yul\":7080:7090   */\n  dup5\n    /* \"#utility.yul\":7062:7091   */\n  tag_35\n  jump\t// in\ntag_134:\n    /* \"#utility.yul\":7052:7060   */\n  dup2\n    /* \"#utility.yul\":7048:7092   */\n  add\n    /* \"#utility.yul\":7245:7247   */\n  0x20\n    /* \"#utility.yul\":7233:7243   */\n  dup6\n    /* \"#utility.yul\":7230:7248   */\n  lt\n    /* \"#utility.yul\":7227:7276   */\n  iszero\n  tag_135\n  jumpi\n    /* \"#utility.yul\":7266:7274   */\n  dup2\n    /* \"#utility.yul\":7251:7274   */\n  swap1\n  pop\n    /* \"#utility.yul\":7227:7276   */\ntag_135:\n    /* \"#utility.yul\":7289:7369   */\n  tag_136\n    /* \"#utility.yul\":7345:7367   */\n  tag_137\n    /* \"#utility.yul\":7363:7366   */\n  dup6\n    /* \"#utility.yul\":7345:7367   */\n  tag_35\n  jump\t// in\ntag_137:\n    /* \"#utility.yul\":7335:7343   */\n  dup4\n    /* \"#utility.yul\":7331:7368   */\n  add\n    /* \"#utility.yul\":7318:7329   */\n  dup3\n    /* \"#utility.yul\":7289:7369   */\n  tag_44\n  jump\t// in\ntag_136:\n    /* \"#utility.yul\":6948:7379   */\n  pop\n  pop\n    /* \"#utility.yul\":6933:7379   */\ntag_132:\n    /* \"#utility.yul\":6843:7386   */\n  pop\n  pop\n  pop\n  jump\t// out\n    /* \"#utility.yul\":7392:7509   */\ntag_46:\n    /* \"#utility.yul\":7446:7454   */\n  0x00\n    /* \"#utility.yul\":7496:7501   */\n  dup3\n    /* \"#utility.yul\":7490:7494   */\n  dup3\n    /* \"#utility.yul\":7486:7502   */\n  shr\n    /* \"#utility.yul\":7465:7502   */\n  swap1\n  pop\n    /* \"#utility.yul\":7392:7509   */\n  swap3\n  swap2\n  pop\n  pop\n  jump\t// out\n    /* \"#utility.yul\":7515:7684   */\ntag_47:\n    /* \"#utility.yul\":7559:7565   */\n  0x00\n    /* \"#utility.yul\":7592:7643   */\n  tag_140\n    /* \"#utility.yul\":7640:7641   */\n  0x00\n    /* \"#utility.yul\":7636:7642   */\n  not\n    /* \"#utility.yul\":7628:7633   */\n  dup5\n    /* \"#utility.yul\":7625:7626   */\n  0x08\n    /* \"#utility.yul\":7621:7634   */\n  mul\n    /* \"#utility.yul\":7592:7643   */\n  tag_46\n  jump\t// in\ntag_140:\n    /* \"#utility.yul\":7588:7644   */\n  not\n    /* \"#utility.yul\":7673:7677   */\n  dup1\n    /* \"#utility.yul\":7667:7671   */\n  dup4\n    /* \"#utility.yul\":7663:7678   */\n  and\n    /* \"#utility.yul\":7653:7678   */\n  swap2\n  pop\n    /* \"#utility.yul\":7566:7684   */\n  pop\n    /* \"#utility.yul\":7515:7684   */\n  swap3\n  swap2\n  pop\n  pop\n  jump\t// out\n    /* \"#utility.yul\":7689:7984   */\ntag_48:\n    /* \"#utility.yul\":7765:7769   */\n  0x00\n    /* \"#utility.yul\":7911:7940   */\n  tag_142\n    /* \"#utility.yul\":7936:7939   */\n  dup4\n    /* \"#utility.yul\":7930:7934   */\n  dup4\n    /* \"#utility.yul\":7911:7940   */\n  tag_47\n  jump\t// in\ntag_142:\n    /* \"#utility.yul\":7903:7940   */\n  swap2\n  pop\n    /* \"#utility.yul\":7973:7976   */\n  dup3\n    /* \"#utility.yul\":7970:7971   */\n  0x02\n    /* \"#utility.yul\":7966:7977   */\n  mul\n    /* \"#utility.yul\":7960:7964   */\n  dup3\n    /* \"#utility.yul\":7957:7978   */\n  or\n    /* \"#utility.yul\":7949:7978   */\n  swap1\n  pop\n    /* \"#utility.yul\":7689:7984   */\n  swap3\n  swap2\n  pop\n  pop\n  jump\t// out\n    /* \"#utility.yul\":7989:9384   */\ntag_7:\n    /* \"#utility.yul\":8106:8143   */\n  tag_144\n    /* \"#utility.yul\":8139:8142   */\n  dup3\n    /* \"#utility.yul\":8106:8143   */\n  tag_31\n  jump\t// in\ntag_144:\n    /* \"#utility.yul\":8208:8226   */\n  0xffffffffffffffff\n    /* \"#utility.yul\":8200:8206   */\n  dup2\n    /* \"#utility.yul\":8197:8227   */\n  gt\n    /* \"#utility.yul\":8194:8250   */\n  iszero\n  tag_145\n  jumpi\n    /* \"#utility.yul\":8230:8248   */\n  tag_146\n  tag_21\n  jump\t// in\ntag_146:\n    /* \"#utility.yul\":8194:8250   */\ntag_145:\n    /* \"#utility.yul\":8274:8312   */\n  tag_147\n    /* \"#utility.yul\":8306:8310   */\n  dup3\n    /* \"#utility.yul\":8300:8311   */\n  sload\n    /* \"#utility.yul\":8274:8312   */\n  tag_33\n  jump\t// in\ntag_147:\n    /* \"#utility.yul\":8359:8426   */\n  tag_148\n    /* \"#utility.yul\":8419:8425   */\n  dup3\n    /* \"#utility.yul\":8411:8417   */\n  dup3\n    /* \"#utility.yul\":8405:8409   */\n  dup6\n    /* \"#utility.yul\":8359:8426   */\n  tag_45\n  jump\t// in\ntag_148:\n    /* \"#utility.yul\":8453:8454   */\n  0x00\n    /* \"#utility.yul\":8477:8481   */\n  0x20\n    /* \"#utility.yul\":8464:8481   */\n  swap1\n  pop\n    /* \"#utility.yul\":8509:8511   */\n  0x1f\n    /* \"#utility.yul\":8501:8507   */\n  dup4\n    /* \"#utility.yul\":8498:8512   */\n  gt\n    /* \"#utility.yul\":8526:8527   */\n  0x01\n    /* \"#utility.yul\":8521:9139   */\n  dup2\n  eq\n  tag_150\n  jumpi\n    /* \"#utility.yul\":9183:9184   */\n  0x00\n    /* \"#utility.yul\":9200:9206   */\n  dup5\n    /* \"#utility.yul\":9197:9274   */\n  iszero\n  tag_151\n  jumpi\n    /* \"#utility.yul\":9249:9258   */\n  dup3\n    /* \"#utility.yul\":9244:9247   */\n  dup8\n    /* \"#utility.yul\":9240:9259   */\n  add\n    /* \"#utility.yul\":9234:9260   */\n  mload\n    /* \"#utility.yul\":9225:9260   */\n  swap1\n  pop\n    /* \"#utility.yul\":9197:9274   */\ntag_151:\n    /* \"#utility.yul\":9300:9367   */\n  tag_152\n    /* \"#utility.yul\":9360:9366   */\n  dup6\n    /* \"#utility.yul\":9353:9358   */\n  dup3\n    /* \"#utility.yul\":9300:9367   */\n  tag_48\n  jump\t// in\ntag_152:\n    /* \"#utility.yul\":9294:9298   */\n  dup7\n    /* \"#utility.yul\":9287:9368   */\n  sstore\n    /* \"#utility.yul\":9156:9378   */\n  pop\n    /* \"#utility.yul\":8491:9378   */\n  jump(tag_149)\n    /* \"#utility.yul\":8521:9139   */\ntag_150:\n    /* \"#utility.yul\":8573:8577   */\n  0x1f\n    /* \"#utility.yul\":8569:8578   */\n  not\n    /* \"#utility.yul\":8561:8567   */\n  dup5\n    /* \"#utility.yul\":8557:8579   */\n  and\n    /* \"#utility.yul\":8607:8644   */\n  tag_153\n    /* \"#utility.yul\":8639:8643   */\n  dup7\n    /* \"#utility.yul\":8607:8644   */\n  tag_34\n  jump\t// in\ntag_153:\n    /* \"#utility.yul\":8666:8667   */\n  0x00\n    /* \"#utility.yul\":8680:8888   */\ntag_154:\n    /* \"#utility.yul\":8694:8701   */\n  dup3\n    /* \"#utility.yul\":8691:8692   */\n  dup2\n    /* \"#utility.yul\":8688:8702   */\n  lt\n    /* \"#utility.yul\":8680:8888   */\n  iszero\n  tag_156\n  jumpi\n    /* \"#utility.yul\":8773:8782   */\n  dup5\n    /* \"#utility.yul\":8768:8771   */\n  dup10\n    /* \"#utility.yul\":8764:8783   */\n  add\n    /* \"#utility.yul\":8758:8784   */\n  mload\n    /* \"#utility.yul\":8750:8756   */\n  dup3\n    /* \"#utility.yul\":8743:8785   */\n  sstore\n    /* \"#utility.yul\":8824:8825   */\n  0x01\n    /* \"#utility.yul\":8816:8822   */\n  dup3\n    /* \"#utility.yul\":8812:8826   */\n  add\n    /* \"#utility.yul\":8802:8826   */\n  swap2\n  pop\n    /* \"#utility.yul\":8871:8873   */\n  0x20\n    /* \"#utility.yul\":8860:8869   */\n  dup6\n    /* \"#utility.yul\":8856:8874   */\n  add\n    /* \"#utility.yul\":8843:8874   */\n  swap5\n  pop\n    /* \"#utility.yul\":8717:8721   */\n  0x20\n    /* \"#utility.yul\":8714:8715   */\n  dup2\n    /* \"#utility.yul\":8710:8722   */\n  add\n    /* \"#utility.yul\":8705:8722   */\n  swap1\n  pop\n    /* \"#utility.yul\":8680:8888   */\n  jump(tag_154)\ntag_156:\n    /* \"#utility.yul\":8916:8922   */\n  dup7\n    /* \"#utility.yul\":8907:8914   */\n  dup4\n    /* \"#utility.yul\":8904:8923   */\n  lt\n    /* \"#utility.yul\":8901:9080   */\n  iszero\n  tag_157\n  jumpi\n    /* \"#utility.yul\":8974:8983   */\n  dup5\n    /* \"#utility.yul\":8969:8972   */\n  dup10\n    /* \"#utility.yul\":8965:8984   */\n  add\n    /* \"#utility.yul\":8959:8985   */\n  mload\n    /* \"#utility.yul\":9017:9065   */\n  tag_158\n    /* \"#utility.yul\":9059:9063   */\n  0x1f\n    /* \"#utility.yul\":9051:9057   */\n  dup10\n    /* \"#utility.yul\":9047:9064   */\n  and\n    /* \"#utility.yul\":9036:9045   */\n  dup3\n    /* \"#utility.yul\":9017:9065   */\n  tag_47\n  jump\t// in\ntag_158:\n    /* \"#utility.yul\":9009:9015   */\n  dup4\n    /* \"#utility.yul\":9002:9066   */\n  sstore\n    /* \"#utility.yul\":8924:9080   */\n  pop\n    /* \"#utility.yul\":8901:9080   */\ntag_157:\n    /* \"#utility.yul\":9126:9127   */\n  0x01\n    /* \"#utility.yul\":9122:9123   */\n  0x02\n    /* \"#utility.yul\":9114:9120   */\n  dup9\n    /* \"#utility.yul\":9110:9124   */\n  mul\n    /* \"#utility.yul\":9106:9128   */\n  add\n    /* \"#utility.yul\":9100:9104   */\n  dup9\n    /* \"#utility.yul\":9093:9129   */\n  sstore\n    /* \"#utility.yul\":8528:9139   */\n  pop\n  pop\n  pop\n    /* \"#utility.yul\":8491:9378   */\ntag_149:\n  pop\n    /* \"#utility.yul\":8081:9384   */\n  pop\n  pop\n  pop\n    /* \"#utility.yul\":7989:9384   */\n  pop\n  pop\n  jump\t// out\n    /* \"#utility.yul\":9390:9570   */\ntag_49:\n    /* \"#utility.yul\":9438:9515   */\n  0x4e487b7100000000000000000000000000000000000000000000000000000000\n    /* \"#utility.yul\":9435:9436   */\n  0x00\n    /* \"#utility.yul\":9428:9516   */\n  mstore\n    /* \"#utility.yul\":9535:9539   */\n  0x11\n    /* \"#utility.yul\":9532:9533   */\n  0x04\n    /* \"#utility.yul\":9525:9540   */\n  mstore\n    /* \"#utility.yul\":9559:9563   */\n  0x24\n    /* \"#utility.yul\":9556:9557   */\n  0x00\n    /* \"#utility.yul\":9549:9564   */\n  revert\n    /* \"#utility.yul\":9576:9986   */\ntag_11:\n    /* \"#utility.yul\":9616:9623   */\n  0x00\n    /* \"#utility.yul\":9639:9659   */\n  tag_161\n    /* \"#utility.yul\":9657:9658   */\n  dup3\n    /* \"#utility.yul\":9639:9659   */\n  tag_28\n  jump\t// in\ntag_161:\n    /* \"#utility.yul\":9634:9659   */\n  swap2\n  pop\n    /* \"#utility.yul\":9673:9693   */\n  tag_162\n    /* \"#utility.yul\":9691:9692   */\n  dup4\n    /* \"#utility.yul\":9673:9693   */\n  tag_28\n  jump\t// in\ntag_162:\n    /* \"#utility.yul\":9668:9693   */\n  swap3\n  pop\n    /* \"#utility.yul\":9728:9729   */\n  dup3\n    /* \"#utility.yul\":9725:9726   */\n  dup3\n    /* \"#utility.yul\":9721:9730   */\n  mul\n    /* \"#utility.yul\":9750:9780   */\n  tag_163\n    /* \"#utility.yul\":9768:9779   */\n  dup2\n    /* \"#utility.yul\":9750:9780   */\n  tag_28\n  jump\t// in\ntag_163:\n    /* \"#utility.yul\":9739:9780   */\n  swap2\n  pop\n    /* \"#utility.yul\":9929:9930   */\n  dup3\n    /* \"#utility.yul\":9920:9927   */\n  dup3\n    /* \"#utility.yul\":9916:9931   */\n  div\n    /* \"#utility.yul\":9913:9914   */\n  dup5\n    /* \"#utility.yul\":9910:9932   */\n  eq\n    /* \"#utility.yul\":9890:9891   */\n  dup4\n    /* \"#utility.yul\":9883:9892   */\n  iszero\n    /* \"#utility.yul\":9863:9946   */\n  or\n    /* \"#utility.yul\":9840:9979   */\n  tag_164\n  jumpi\n    /* \"#utility.yul\":9959:9977   */\n  tag_165\n  tag_49\n  jump\t// in\ntag_165:\n    /* \"#utility.yul\":9840:9979   */\ntag_164:\n    /* \"#utility.yul\":9624:9986   */\n  pop\n    /* \"#utility.yul\":9576:9986   */\n  swap3\n  swap2\n  pop\n  pop\n  jump\t// out\n    /* \"#utility.yul\":9992:10183   */\ntag_13:\n    /* \"#utility.yul\":10032:10035   */\n  0x00\n    /* \"#utility.yul\":10051:10071   */\n  tag_167\n    /* \"#utility.yul\":10069:10070   */\n  dup3\n    /* \"#utility.yul\":10051:10071   */\n  tag_28\n  jump\t// in\ntag_167:\n    /* \"#utility.yul\":10046:10071   */\n  swap2\n  pop\n    /* \"#utility.yul\":10085:10105   */\n  tag_168\n    /* \"#utility.yul\":10103:10104   */\n  dup4\n    /* \"#utility.yul\":10085:10105   */\n  tag_28\n  jump\t// in\ntag_168:\n    /* \"#utility.yul\":10080:10105   */\n  swap3\n  pop\n    /* \"#utility.yul\":10128:10129   */\n  dup3\n    /* \"#utility.yul\":10125:10126   */\n  dup3\n    /* \"#utility.yul\":10121:10130   */\n  add\n    /* \"#utility.yul\":10114:10130   */\n  swap1\n  pop\n    /* \"#utility.yul\":10149:10152   */\n  dup1\n    /* \"#utility.yul\":10146:10147   */\n  dup3\n    /* \"#utility.yul\":10143:10153   */\n  gt\n    /* \"#utility.yul\":10140:10176   */\n  iszero\n  tag_169\n  jumpi\n    /* \"#utility.yul\":10156:10174   */\n  tag_170\n  tag_49\n  jump\t// in\ntag_170:\n    /* \"#utility.yul\":10140:10176   */\ntag_169:\n    /* \"#utility.yul\":9992:10183   */\n  swap3\n  swap2\n  pop\n  pop\n  jump\t// out\n    /* \"contracts/CrowdFunding.sol\":57:2268  contract Crowdfunding {... */\ntag_14:\n  dataSize(sub_0)\n  dup1\n  dataOffset(sub_0)\n  0x00\n  codecopy\n  0x00\n  return\nstop\n\nsub_0: assembly {\n        /* \"contracts/CrowdFunding.sol\":57:2268  contract Crowdfunding {... */\n      mstore(0x40, 0x80)\n      jumpi(tag_1, lt(calldatasize, 0x04))\n      shr(0xe0, calldataload(0x00))\n      dup1\n      0x544a5446\n      gt\n      tag_14\n      jumpi\n      dup1\n      0x544a5446\n      eq\n      tag_8\n      jumpi\n      dup1\n      0x7284e416\n      eq\n      tag_9\n      jumpi\n      dup1\n      0x7497211b\n      eq\n      tag_10\n      jumpi\n      dup1\n      0x8da5cb5b\n      eq\n      tag_11\n      jumpi\n      dup1\n      0xca1d209d\n      eq\n      tag_12\n      jumpi\n      dup1\n      0xdb43adc0\n      eq\n      tag_13\n      jumpi\n      jump(tag_1)\n    tag_14:\n      dup1\n      0x039af9eb\n      eq\n      tag_2\n      jumpi\n      dup1\n      0x06fdde03\n      eq\n      tag_3\n      jumpi\n      dup1\n      0x12065fe0\n      eq\n      tag_4\n      jumpi\n      dup1\n      0x29dcb0cf\n      eq\n      tag_5\n      jumpi\n      dup1\n      0x3ccfd60b\n      eq\n      tag_6\n      jumpi\n      dup1\n      0x40193883\n      eq\n      tag_7\n      jumpi\n    tag_1:\n      revert(0x00, 0x00)\n        /* \"contracts/CrowdFunding.sol\":577:596  Tier[] public tiers */\n    tag_2:\n      callvalue\n      dup1\n      iszero\n      tag_15\n      jumpi\n      revert(0x00, 0x00)\n    tag_15:\n      pop\n      tag_16\n      0x04\n      dup1\n      calldatasize\n      sub\n      dup2\n      add\n      swap1\n      tag_17\n      swap2\n      swap1\n      tag_18\n      jump\t// in\n    tag_17:\n      tag_19\n      jump\t// in\n    tag_16:\n      mload(0x40)\n      tag_20\n      swap5\n      swap4\n      swap3\n      swap2\n      swap1\n      tag_21\n      jump\t// in\n    tag_20:\n      mload(0x40)\n      dup1\n      swap2\n      sub\n      swap1\n      return\n        /* \"contracts/CrowdFunding.sol\":85:103  string public name */\n    tag_3:\n      callvalue\n      dup1\n      iszero\n      tag_22\n      jumpi\n      revert(0x00, 0x00)\n    tag_22:\n      pop\n      tag_23\n      tag_24\n      jump\t// in\n    tag_23:\n      mload(0x40)\n      tag_25\n      swap2\n      swap1\n      tag_26\n      jump\t// in\n    tag_25:\n      mload(0x40)\n      dup1\n      swap2\n      sub\n      swap1\n      return\n        /* \"contracts/CrowdFunding.sol\":1716:1813  function getBalance() public view returns (uint256) {... */\n    tag_4:\n      callvalue\n      dup1\n      iszero\n      tag_27\n      jumpi\n      revert(0x00, 0x00)\n    tag_27:\n      pop\n      tag_28\n      tag_29\n      jump\t// in\n    tag_28:\n      mload(0x40)\n      tag_30\n      swap2\n      swap1\n      tag_31\n      jump\t// in\n    tag_30:\n      mload(0x40)\n      dup1\n      swap2\n      sub\n      swap1\n      return\n        /* \"contracts/CrowdFunding.sol\":326:349  uint256 public deadline */\n    tag_5:\n      callvalue\n      dup1\n      iszero\n      tag_32\n      jumpi\n      revert(0x00, 0x00)\n    tag_32:\n      pop\n      tag_33\n      tag_34\n      jump\t// in\n    tag_33:\n      mload(0x40)\n      tag_35\n      swap2\n      swap1\n      tag_31\n      jump\t// in\n    tag_35:\n      mload(0x40)\n      dup1\n      swap2\n      sub\n      swap1\n      return\n        /* \"contracts/CrowdFunding.sol\":1434:1710  function withdraw() public onlyOwner {... */\n    tag_6:\n      callvalue\n      dup1\n      iszero\n      tag_36\n      jumpi\n      revert(0x00, 0x00)\n    tag_36:\n      pop\n      tag_37\n      tag_38\n      jump\t// in\n    tag_37:\n      stop\n        /* \"contracts/CrowdFunding.sol\":267:286  uint256 public goal */\n    tag_7:\n      callvalue\n      dup1\n      iszero\n      tag_39\n      jumpi\n      revert(0x00, 0x00)\n    tag_39:\n      pop\n      tag_40\n      tag_41\n      jump\t// in\n    tag_40:\n      mload(0x40)\n      tag_42\n      swap2\n      swap1\n      tag_31\n      jump\t// in\n    tag_42:\n      mload(0x40)\n      dup1\n      swap2\n      sub\n      swap1\n      return\n        /* \"contracts/CrowdFunding.sol\":1819:2058  function addTier(string memory _name, string memory _description, uint256 _amount) public onlyOwner {... */\n    tag_8:\n      callvalue\n      dup1\n      iszero\n      tag_43\n      jumpi\n      revert(0x00, 0x00)\n    tag_43:\n      pop\n      tag_44\n      0x04\n      dup1\n      calldatasize\n      sub\n      dup2\n      add\n      swap1\n      tag_45\n      swap2\n      swap1\n      tag_46\n      jump\t// in\n    tag_45:\n      tag_47\n      jump\t// in\n    tag_44:\n      stop\n        /* \"contracts/CrowdFunding.sol\":205:230  string public description */\n    tag_9:\n      callvalue\n      dup1\n      iszero\n      tag_48\n      jumpi\n      revert(0x00, 0x00)\n    tag_48:\n      pop\n      tag_49\n      tag_50\n      jump\t// in\n    tag_49:\n      mload(0x40)\n      tag_51\n      swap2\n      swap1\n      tag_26\n      jump\t// in\n    tag_51:\n      mload(0x40)\n      dup1\n      swap2\n      sub\n      swap1\n      return\n        /* \"contracts/CrowdFunding.sol\":2064:2266  function removeTier(uint256 _index) public onlyOwner {... */\n    tag_10:\n      callvalue\n      dup1\n      iszero\n      tag_52\n      jumpi\n      revert(0x00, 0x00)\n    tag_52:\n      pop\n      tag_53\n      0x04\n      dup1\n      calldatasize\n      sub\n      dup2\n      add\n      swap1\n      tag_54\n      swap2\n      swap1\n      tag_18\n      jump\t// in\n    tag_54:\n      tag_55\n      jump\t// in\n    tag_53:\n      stop\n        /* \"contracts/CrowdFunding.sol\":383:403  address public owner */\n    tag_11:\n      callvalue\n      dup1\n      iszero\n      tag_56\n      jumpi\n      revert(0x00, 0x00)\n    tag_56:\n      pop\n      tag_57\n      tag_58\n      jump\t// in\n    tag_57:\n      mload(0x40)\n      tag_59\n      swap2\n      swap1\n      tag_60\n      jump\t// in\n    tag_59:\n      mload(0x40)\n      dup1\n      swap2\n      sub\n      swap1\n      return\n        /* \"contracts/CrowdFunding.sol\":1119:1428  function fund(uint256 _tier_index) public payable {... */\n    tag_12:\n      tag_61\n      0x04\n      dup1\n      calldatasize\n      sub\n      dup2\n      add\n      swap1\n      tag_62\n      swap2\n      swap1\n      tag_18\n      jump\t// in\n    tag_62:\n      tag_63\n      jump\t// in\n    tag_61:\n      stop\n        /* \"contracts/CrowdFunding.sol\":133:155  string public org_name */\n    tag_13:\n      callvalue\n      dup1\n      iszero\n      tag_64\n      jumpi\n      revert(0x00, 0x00)\n    tag_64:\n      pop\n      tag_65\n      tag_66\n      jump\t// in\n    tag_65:\n      mload(0x40)\n      tag_67\n      swap2\n      swap1\n      tag_26\n      jump\t// in\n    tag_67:\n      mload(0x40)\n      dup1\n      swap2\n      sub\n      swap1\n      return\n        /* \"contracts/CrowdFunding.sol\":577:596  Tier[] public tiers */\n    tag_19:\n      0x06\n      dup2\n      dup2\n      sload\n      dup2\n      lt\n      tag_68\n      jumpi\n      0x00\n      dup1\n      revert\n    tag_68:\n      swap1\n      0x00\n      mstore\n      keccak256(0x00, 0x20)\n      swap1\n      0x04\n      mul\n      add\n      0x00\n      swap2\n      pop\n      swap1\n      pop\n      dup1\n      0x00\n      add\n      dup1\n      sload\n      tag_70\n      swap1\n      tag_71\n      jump\t// in\n    tag_70:\n      dup1\n      0x1f\n      add\n      0x20\n      dup1\n      swap2\n      div\n      mul\n      0x20\n      add\n      mload(0x40)\n      swap1\n      dup2\n      add\n      0x40\n      mstore\n      dup1\n      swap3\n      swap2\n      swap1\n      dup2\n      dup2\n      mstore\n      0x20\n      add\n      dup3\n      dup1\n      sload\n      tag_72\n      swap1\n      tag_71\n      jump\t// in\n    tag_72:\n      dup1\n      iszero\n      tag_73\n      jumpi\n      dup1\n      0x1f\n      lt\n      tag_74\n      jumpi\n      0x0100\n      dup1\n      dup4\n      sload\n      div\n      mul\n      dup4\n      mstore\n      swap2\n      0x20\n      add\n      swap2\n      jump(tag_73)\n    tag_74:\n      dup3\n      add\n      swap2\n      swap1\n      0x00\n      mstore\n      keccak256(0x00, 0x20)\n      swap1\n    tag_75:\n      dup2\n      sload\n      dup2\n      mstore\n      swap1\n      0x01\n      add\n      swap1\n      0x20\n      add\n      dup1\n      dup4\n      gt\n      tag_75\n      jumpi\n      dup3\n      swap1\n      sub\n      0x1f\n      and\n      dup3\n      add\n      swap2\n    tag_73:\n      pop\n      pop\n      pop\n      pop\n      pop\n      swap1\n      dup1\n      0x01\n      add\n      dup1\n      sload\n      tag_76\n      swap1\n      tag_71\n      jump\t// in\n    tag_76:\n      dup1\n      0x1f\n      add\n      0x20\n      dup1\n      swap2\n      div\n      mul\n      0x20\n      add\n      mload(0x40)\n      swap1\n      dup2\n      add\n      0x40\n      mstore\n      dup1\n      swap3\n      swap2\n      swap1\n      dup2\n      dup2\n      mstore\n      0x20\n      add\n      dup3\n      dup1\n      sload\n      tag_77\n      swap1\n      tag_71\n      jump\t// in\n    tag_77:\n      dup1\n      iszero\n      tag_78\n      jumpi\n      dup1\n      0x1f\n      lt\n      tag_79\n      jumpi\n      0x0100\n      dup1\n      dup4\n      sload\n      div\n      mul\n      dup4\n      mstore\n      swap2\n      0x20\n      add\n      swap2\n      jump(tag_78)\n    tag_79:\n      dup3\n      add\n      swap2\n      swap1\n      0x00\n      mstore\n      keccak256(0x00, 0x20)\n      swap1\n    tag_80:\n      dup2\n      sload\n      dup2\n      mstore\n      swap1\n      0x01\n      add\n      swap1\n      0x20\n      add\n      dup1\n      dup4\n      gt\n      tag_80\n      jumpi\n      dup3\n      swap1\n      sub\n      0x1f\n      and\n      dup3\n      add\n      swap2\n    tag_78:\n      pop\n      pop\n      pop\n      pop\n      pop\n      swap1\n      dup1\n      0x02\n      add\n      sload\n      swap1\n      dup1\n      0x03\n      add\n      sload\n      swap1\n      pop\n      dup5\n      jump\t// out\n        /* \"contracts/CrowdFunding.sol\":85:103  string public name */\n    tag_24:\n      0x00\n      dup1\n      sload\n      tag_81\n      swap1\n      tag_71\n      jump\t// in\n    tag_81:\n      dup1\n      0x1f\n      add\n      0x20\n      dup1\n      swap2\n      div\n      mul\n      0x20\n      add\n      mload(0x40)\n      swap1\n      dup2\n      add\n      0x40\n      mstore\n      dup1\n      swap3\n      swap2\n      swap1\n      dup2\n      dup2\n      mstore\n      0x20\n      add\n      dup3\n      dup1\n      sload\n      tag_82\n      swap1\n      tag_71\n      jump\t// in\n    tag_82:\n      dup1\n      iszero\n      tag_83\n      jumpi\n      dup1\n      0x1f\n      lt\n      tag_84\n      jumpi\n      0x0100\n      dup1\n      dup4\n      sload\n      div\n      mul\n      dup4\n      mstore\n      swap2\n      0x20\n      add\n      swap2\n      jump(tag_83)\n    tag_84:\n      dup3\n      add\n      swap2\n      swap1\n      0x00\n      mstore\n      keccak256(0x00, 0x20)\n      swap1\n    tag_85:\n      dup2\n      sload\n      dup2\n      mstore\n      swap1\n      0x01\n      add\n      swap1\n      0x20\n      add\n      dup1\n      dup4\n      gt\n      tag_85\n      jumpi\n      dup3\n      swap1\n      sub\n      0x1f\n      and\n      dup3\n      add\n      swap2\n    tag_83:\n      pop\n      pop\n      pop\n      pop\n      pop\n      dup2\n      jump\t// out\n        /* \"contracts/CrowdFunding.sol\":1716:1813  function getBalance() public view returns (uint256) {... */\n    tag_29:\n        /* \"contracts/CrowdFunding.sol\":1759:1766  uint256 */\n      0x00\n        /* \"contracts/CrowdFunding.sol\":1785:1806  address(this).balance */\n      selfbalance\n        /* \"contracts/CrowdFunding.sol\":1778:1806  return address(this).balance */\n      swap1\n      pop\n        /* \"contracts/CrowdFunding.sol\":1716:1813  function getBalance() public view returns (uint256) {... */\n      swap1\n      jump\t// out\n        /* \"contracts/CrowdFunding.sol\":326:349  uint256 public deadline */\n    tag_34:\n      sload(0x04)\n      dup2\n      jump\t// out\n        /* \"contracts/CrowdFunding.sol\":1434:1710  function withdraw() public onlyOwner {... */\n    tag_38:\n        /* \"contracts/CrowdFunding.sol\":656:661  owner */\n      0x05\n      0x00\n      swap1\n      sload\n      swap1\n      0x0100\n      exp\n      swap1\n      div\n      0xffffffffffffffffffffffffffffffffffffffff\n      and\n        /* \"contracts/CrowdFunding.sol\":642:661  msg.sender == owner */\n      0xffffffffffffffffffffffffffffffffffffffff\n      and\n        /* \"contracts/CrowdFunding.sol\":642:652  msg.sender */\n      caller\n        /* \"contracts/CrowdFunding.sol\":642:661  msg.sender == owner */\n      0xffffffffffffffffffffffffffffffffffffffff\n      and\n      eq\n        /* \"contracts/CrowdFunding.sol\":634:703  require(msg.sender == owner, \"Only the owner can call this function\") */\n      tag_88\n      jumpi\n      mload(0x40)\n      0x08c379a000000000000000000000000000000000000000000000000000000000\n      dup2\n      mstore\n      0x04\n      add\n      tag_89\n      swap1\n      tag_90\n      jump\t// in\n    tag_89:\n      mload(0x40)\n      dup1\n      swap2\n      sub\n      swap1\n      revert\n    tag_88:\n        /* \"contracts/CrowdFunding.sol\":1514:1518  goal */\n      sload(0x03)\n        /* \"contracts/CrowdFunding.sol\":1489:1510  address(this).balance */\n      selfbalance\n        /* \"contracts/CrowdFunding.sol\":1489:1518  address(this).balance >= goal */\n      lt\n      iszero\n        /* \"contracts/CrowdFunding.sol\":1481:1553  require(address(this).balance >= goal, \"The goal has not been reached.\") */\n      tag_92\n      jumpi\n      mload(0x40)\n      0x08c379a000000000000000000000000000000000000000000000000000000000\n      dup2\n      mstore\n      0x04\n      add\n      tag_93\n      swap1\n      tag_94\n      jump\t// in\n    tag_93:\n      mload(0x40)\n      dup1\n      swap2\n      sub\n      swap1\n      revert\n    tag_92:\n        /* \"contracts/CrowdFunding.sol\":1564:1579  uint256 balance */\n      0x00\n        /* \"contracts/CrowdFunding.sol\":1582:1603  address(this).balance */\n      selfbalance\n        /* \"contracts/CrowdFunding.sol\":1564:1603  uint256 balance = address(this).balance */\n      swap1\n      pop\n        /* \"contracts/CrowdFunding.sol\":1631:1632  0 */\n      0x00\n        /* \"contracts/CrowdFunding.sol\":1621:1628  balance */\n      dup2\n        /* \"contracts/CrowdFunding.sol\":1621:1632  balance > 0 */\n      gt\n        /* \"contracts/CrowdFunding.sol\":1613:1660  require(balance > 0, \"No balance to withdraw.\") */\n      tag_95\n      jumpi\n      mload(0x40)\n      0x08c379a000000000000000000000000000000000000000000000000000000000\n      dup2\n      mstore\n      0x04\n      add\n      tag_96\n      swap1\n      tag_97\n      jump\t// in\n    tag_96:\n      mload(0x40)\n      dup1\n      swap2\n      sub\n      swap1\n      revert\n    tag_95:\n        /* \"contracts/CrowdFunding.sol\":1679:1684  owner */\n      0x05\n      0x00\n      swap1\n      sload\n      swap1\n      0x0100\n      exp\n      swap1\n      div\n      0xffffffffffffffffffffffffffffffffffffffff\n      and\n        /* \"contracts/CrowdFunding.sol\":1671:1694  payable(owner).transfer */\n      0xffffffffffffffffffffffffffffffffffffffff\n      and\n        /* \"contracts/CrowdFunding.sol\":1671:1703  payable(owner).transfer(balance) */\n      0x08fc\n        /* \"contracts/CrowdFunding.sol\":1695:1702  balance */\n      dup3\n        /* \"contracts/CrowdFunding.sol\":1671:1703  payable(owner).transfer(balance) */\n      swap1\n      dup2\n      iszero\n      mul\n      swap1\n      mload(0x40)\n      0x00\n      mload(0x40)\n      dup1\n      dup4\n      sub\n      dup2\n      dup6\n      dup9\n      dup9\n      call\n      swap4\n      pop\n      pop\n      pop\n      pop\n      iszero\n      dup1\n      iszero\n      tag_99\n      jumpi\n      returndatacopy(0x00, 0x00, returndatasize)\n      revert(0x00, returndatasize)\n    tag_99:\n      pop\n        /* \"contracts/CrowdFunding.sol\":1471:1710  {... */\n      pop\n        /* \"contracts/CrowdFunding.sol\":1434:1710  function withdraw() public onlyOwner {... */\n      jump\t// out\n        /* \"contracts/CrowdFunding.sol\":267:286  uint256 public goal */\n    tag_41:\n      sload(0x03)\n      dup2\n      jump\t// out\n        /* \"contracts/CrowdFunding.sol\":1819:2058  function addTier(string memory _name, string memory _description, uint256 _amount) public onlyOwner {... */\n    tag_47:\n        /* \"contracts/CrowdFunding.sol\":656:661  owner */\n      0x05\n      0x00\n      swap1\n      sload\n      swap1\n      0x0100\n      exp\n      swap1\n      div\n      0xffffffffffffffffffffffffffffffffffffffff\n      and\n        /* \"contracts/CrowdFunding.sol\":642:661  msg.sender == owner */\n      0xffffffffffffffffffffffffffffffffffffffff\n      and\n        /* \"contracts/CrowdFunding.sol\":642:652  msg.sender */\n      caller\n        /* \"contracts/CrowdFunding.sol\":642:661  msg.sender == owner */\n      0xffffffffffffffffffffffffffffffffffffffff\n      and\n      eq\n        /* \"contracts/CrowdFunding.sol\":634:703  require(msg.sender == owner, \"Only the owner can call this function\") */\n      tag_101\n      jumpi\n      mload(0x40)\n      0x08c379a000000000000000000000000000000000000000000000000000000000\n      dup2\n      mstore\n      0x04\n      add\n      tag_102\n      swap1\n      tag_90\n      jump\t// in\n    tag_102:\n      mload(0x40)\n      dup1\n      swap2\n      sub\n      swap1\n      revert\n    tag_101:\n        /* \"contracts/CrowdFunding.sol\":1947:1948  0 */\n      0x00\n        /* \"contracts/CrowdFunding.sol\":1937:1944  _amount */\n      dup2\n        /* \"contracts/CrowdFunding.sol\":1937:1948  _amount > 0 */\n      gt\n        /* \"contracts/CrowdFunding.sol\":1929:1983  require(_amount > 0, \"Amount must be greater than 0.\") */\n      tag_104\n      jumpi\n      mload(0x40)\n      0x08c379a000000000000000000000000000000000000000000000000000000000\n      dup2\n      mstore\n      0x04\n      add\n      tag_105\n      swap1\n      tag_106\n      jump\t// in\n    tag_105:\n      mload(0x40)\n      dup1\n      swap2\n      sub\n      swap1\n      revert\n    tag_104:\n        /* \"contracts/CrowdFunding.sol\":2002:2007  tiers */\n      0x06\n        /* \"contracts/CrowdFunding.sol\":2013:2050  Tier(_name, _description, _amount, 0) */\n      mload(0x40)\n      dup1\n      0x80\n      add\n      0x40\n      mstore\n      dup1\n        /* \"contracts/CrowdFunding.sol\":2018:2023  _name */\n      dup6\n        /* \"contracts/CrowdFunding.sol\":2013:2050  Tier(_name, _description, _amount, 0) */\n      dup2\n      mstore\n      0x20\n      add\n        /* \"contracts/CrowdFunding.sol\":2025:2037  _description */\n      dup5\n        /* \"contracts/CrowdFunding.sol\":2013:2050  Tier(_name, _description, _amount, 0) */\n      dup2\n      mstore\n      0x20\n      add\n        /* \"contracts/CrowdFunding.sol\":2039:2046  _amount */\n      dup4\n        /* \"contracts/CrowdFunding.sol\":2013:2050  Tier(_name, _description, _amount, 0) */\n      dup2\n      mstore\n      0x20\n      add\n        /* \"contracts/CrowdFunding.sol\":2048:2049  0 */\n      0x00\n        /* \"contracts/CrowdFunding.sol\":2013:2050  Tier(_name, _description, _amount, 0) */\n      dup2\n      mstore\n      pop\n        /* \"contracts/CrowdFunding.sol\":2002:2051  tiers.push(Tier(_name, _description, _amount, 0)) */\n      swap1\n      dup1\n      0x01\n      dup2\n      sload\n      add\n      dup1\n      dup3\n      sstore\n      dup1\n      swap2\n      pop\n      pop\n      0x01\n      swap1\n      sub\n      swap1\n      0x00\n      mstore\n      keccak256(0x00, 0x20)\n      swap1\n      0x04\n      mul\n      add\n      0x00\n      swap1\n      swap2\n      swap1\n      swap2\n      swap1\n      swap2\n      pop\n      0x00\n      dup3\n      add\n      mload\n      dup2\n      0x00\n      add\n      swap1\n      dup2\n      tag_108\n      swap2\n      swap1\n      tag_109\n      jump\t// in\n    tag_108:\n      pop\n      0x20\n      dup3\n      add\n      mload\n      dup2\n      0x01\n      add\n      swap1\n      dup2\n      tag_110\n      swap2\n      swap1\n      tag_109\n      jump\t// in\n    tag_110:\n      pop\n      0x40\n      dup3\n      add\n      mload\n      dup2\n      0x02\n      add\n      sstore\n      0x60\n      dup3\n      add\n      mload\n      dup2\n      0x03\n      add\n      sstore\n      pop\n      pop\n        /* \"contracts/CrowdFunding.sol\":1819:2058  function addTier(string memory _name, string memory _description, uint256 _amount) public onlyOwner {... */\n      pop\n      pop\n      pop\n      jump\t// out\n        /* \"contracts/CrowdFunding.sol\":205:230  string public description */\n    tag_50:\n      0x02\n      dup1\n      sload\n      tag_111\n      swap1\n      tag_71\n      jump\t// in\n    tag_111:\n      dup1\n      0x1f\n      add\n      0x20\n      dup1\n      swap2\n      div\n      mul\n      0x20\n      add\n      mload(0x40)\n      swap1\n      dup2\n      add\n      0x40\n      mstore\n      dup1\n      swap3\n      swap2\n      swap1\n      dup2\n      dup2\n      mstore\n      0x20\n      add\n      dup3\n      dup1\n      sload\n      tag_112\n      swap1\n      tag_71\n      jump\t// in\n    tag_112:\n      dup1\n      iszero\n      tag_113\n      jumpi\n      dup1\n      0x1f\n      lt\n      tag_114\n      jumpi\n      0x0100\n      dup1\n      dup4\n      sload\n      div\n      mul\n      dup4\n      mstore\n      swap2\n      0x20\n      add\n      swap2\n      jump(tag_113)\n    tag_114:\n      dup3\n      add\n      swap2\n      swap1\n      0x00\n      mstore\n      keccak256(0x00, 0x20)\n      swap1\n    tag_115:\n      dup2\n      sload\n      dup2\n      mstore\n      swap1\n      0x01\n      add\n      swap1\n      0x20\n      add\n      dup1\n      dup4\n      gt\n      tag_115\n      jumpi\n      dup3\n      swap1\n      sub\n      0x1f\n      and\n      dup3\n      add\n      swap2\n    tag_113:\n      pop\n      pop\n      pop\n      pop\n      pop\n      dup2\n      jump\t// out\n        /* \"contracts/CrowdFunding.sol\":2064:2266  function removeTier(uint256 _index) public onlyOwner {... */\n    tag_55:\n        /* \"contracts/CrowdFunding.sol\":656:661  owner */\n      0x05\n      0x00\n      swap1\n      sload\n      swap1\n      0x0100\n      exp\n      swap1\n      div\n      0xffffffffffffffffffffffffffffffffffffffff\n      and\n        /* \"contracts/CrowdFunding.sol\":642:661  msg.sender == owner */\n      0xffffffffffffffffffffffffffffffffffffffff\n      and\n        /* \"contracts/CrowdFunding.sol\":642:652  msg.sender */\n      caller\n        /* \"contracts/CrowdFunding.sol\":642:661  msg.sender == owner */\n      0xffffffffffffffffffffffffffffffffffffffff\n      and\n      eq\n        /* \"contracts/CrowdFunding.sol\":634:703  require(msg.sender == owner, \"Only the owner can call this function\") */\n      tag_117\n      jumpi\n      mload(0x40)\n      0x08c379a000000000000000000000000000000000000000000000000000000000\n      dup2\n      mstore\n      0x04\n      add\n      tag_118\n      swap1\n      tag_90\n      jump\t// in\n    tag_118:\n      mload(0x40)\n      dup1\n      swap2\n      sub\n      swap1\n      revert\n    tag_117:\n        /* \"contracts/CrowdFunding.sol\":2144:2149  tiers */\n      0x06\n        /* \"contracts/CrowdFunding.sol\":2144:2156  tiers.length */\n      dup1\n      sload\n      swap1\n      pop\n        /* \"contracts/CrowdFunding.sol\":2135:2141  _index */\n      dup2\n        /* \"contracts/CrowdFunding.sol\":2135:2156  _index < tiers.length */\n      lt\n        /* \"contracts/CrowdFunding.sol\":2127:2181  require(_index < tiers.length, \"Tier does not exist.\") */\n      tag_120\n      jumpi\n      mload(0x40)\n      0x08c379a000000000000000000000000000000000000000000000000000000000\n      dup2\n      mstore\n      0x04\n      add\n      tag_121\n      swap1\n      tag_122\n      jump\t// in\n    tag_121:\n      mload(0x40)\n      dup1\n      swap2\n      sub\n      swap1\n      revert\n    tag_120:\n        /* \"contracts/CrowdFunding.sol\":2216:2221  tiers */\n      0x06\n        /* \"contracts/CrowdFunding.sol\":2236:2237  1 */\n      0x01\n        /* \"contracts/CrowdFunding.sol\":2222:2227  tiers */\n      0x06\n        /* \"contracts/CrowdFunding.sol\":2222:2234  tiers.length */\n      dup1\n      sload\n      swap1\n      pop\n        /* \"contracts/CrowdFunding.sol\":2222:2237  tiers.length -1 */\n      tag_123\n      swap2\n      swap1\n      tag_124\n      jump\t// in\n    tag_123:\n        /* \"contracts/CrowdFunding.sol\":2216:2238  tiers[tiers.length -1] */\n      dup2\n      sload\n      dup2\n      lt\n      tag_125\n      jumpi\n      tag_126\n      tag_127\n      jump\t// in\n    tag_126:\n    tag_125:\n      swap1\n      0x00\n      mstore\n      keccak256(0x00, 0x20)\n      swap1\n      0x04\n      mul\n      add\n        /* \"contracts/CrowdFunding.sol\":2200:2205  tiers */\n      0x06\n        /* \"contracts/CrowdFunding.sol\":2206:2212  _index */\n      dup3\n        /* \"contracts/CrowdFunding.sol\":2200:2213  tiers[_index] */\n      dup2\n      sload\n      dup2\n      lt\n      tag_129\n      jumpi\n      tag_130\n      tag_127\n      jump\t// in\n    tag_130:\n    tag_129:\n      swap1\n      0x00\n      mstore\n      keccak256(0x00, 0x20)\n      swap1\n      0x04\n      mul\n      add\n        /* \"contracts/CrowdFunding.sol\":2200:2238  tiers[_index] = tiers[tiers.length -1] */\n      0x00\n      dup3\n      add\n      dup2\n      0x00\n      add\n      swap1\n      dup2\n      tag_132\n      swap2\n      swap1\n      tag_133\n      jump\t// in\n    tag_132:\n      pop\n      0x01\n      dup3\n      add\n      dup2\n      0x01\n      add\n      swap1\n      dup2\n      tag_134\n      swap2\n      swap1\n      tag_133\n      jump\t// in\n    tag_134:\n      pop\n      0x02\n      dup3\n      add\n      sload\n      dup2\n      0x02\n      add\n      sstore\n      0x03\n      dup3\n      add\n      sload\n      dup2\n      0x03\n      add\n      sstore\n      swap1\n      pop\n      pop\n        /* \"contracts/CrowdFunding.sol\":2248:2253  tiers */\n      0x06\n        /* \"contracts/CrowdFunding.sol\":2248:2259  tiers.pop() */\n      dup1\n      sload\n      dup1\n      tag_135\n      jumpi\n      tag_136\n      tag_137\n      jump\t// in\n    tag_136:\n    tag_135:\n      0x01\n      swap1\n      sub\n      dup2\n      dup2\n      swap1\n      0x00\n      mstore\n      keccak256(0x00, 0x20)\n      swap1\n      0x04\n      mul\n      add\n      0x00\n      0x00\n      dup3\n      add\n      0x00\n      tag_139\n      swap2\n      swap1\n      tag_140\n      jump\t// in\n    tag_139:\n      0x01\n      dup3\n      add\n      0x00\n      tag_141\n      swap2\n      swap1\n      tag_140\n      jump\t// in\n    tag_141:\n      0x02\n      dup3\n      add\n      0x00\n      swap1\n      sstore\n      0x03\n      dup3\n      add\n      0x00\n      swap1\n      sstore\n      pop\n      pop\n      swap1\n      sstore\n        /* \"contracts/CrowdFunding.sol\":2064:2266  function removeTier(uint256 _index) public onlyOwner {... */\n      pop\n      jump\t// out\n        /* \"contracts/CrowdFunding.sol\":383:403  address public owner */\n    tag_58:\n      0x05\n      0x00\n      swap1\n      sload\n      swap1\n      0x0100\n      exp\n      swap1\n      div\n      0xffffffffffffffffffffffffffffffffffffffff\n      and\n      dup2\n      jump\t// out\n        /* \"contracts/CrowdFunding.sol\":1119:1428  function fund(uint256 _tier_index) public payable {... */\n    tag_63:\n        /* \"contracts/CrowdFunding.sol\":1205:1213  deadline */\n      sload(0x04)\n        /* \"contracts/CrowdFunding.sol\":1187:1202  block.timestamp */\n      timestamp\n        /* \"contracts/CrowdFunding.sol\":1187:1213  block.timestamp < deadline */\n      lt\n        /* \"contracts/CrowdFunding.sol\":1179:1242  require(block.timestamp < deadline, \"This campaign has ended.\") */\n      tag_143\n      jumpi\n      mload(0x40)\n      0x08c379a000000000000000000000000000000000000000000000000000000000\n      dup2\n      mstore\n      0x04\n      add\n      tag_144\n      swap1\n      tag_145\n      jump\t// in\n    tag_144:\n      mload(0x40)\n      dup1\n      swap2\n      sub\n      swap1\n      revert\n    tag_143:\n        /* \"contracts/CrowdFunding.sol\":1274:1279  tiers */\n      0x06\n        /* \"contracts/CrowdFunding.sol\":1274:1286  tiers.length */\n      dup1\n      sload\n      swap1\n      pop\n        /* \"contracts/CrowdFunding.sol\":1260:1271  _tier_index */\n      dup2\n        /* \"contracts/CrowdFunding.sol\":1260:1286  _tier_index < tiers.length */\n      lt\n        /* \"contracts/CrowdFunding.sol\":1252:1304  require(_tier_index < tiers.length, \"Invalid tier.\") */\n      tag_146\n      jumpi\n      mload(0x40)\n      0x08c379a000000000000000000000000000000000000000000000000000000000\n      dup2\n      mstore\n      0x04\n      add\n      tag_147\n      swap1\n      tag_148\n      jump\t// in\n    tag_147:\n      mload(0x40)\n      dup1\n      swap2\n      sub\n      swap1\n      revert\n    tag_146:\n        /* \"contracts/CrowdFunding.sol\":1335:1340  tiers */\n      0x06\n        /* \"contracts/CrowdFunding.sol\":1341:1352  _tier_index */\n      dup2\n        /* \"contracts/CrowdFunding.sol\":1335:1353  tiers[_tier_index] */\n      dup2\n      sload\n      dup2\n      lt\n      tag_149\n      jumpi\n      tag_150\n      tag_127\n      jump\t// in\n    tag_150:\n    tag_149:\n      swap1\n      0x00\n      mstore\n      keccak256(0x00, 0x20)\n      swap1\n      0x04\n      mul\n      add\n        /* \"contracts/CrowdFunding.sol\":1335:1360  tiers[_tier_index].amount */\n      0x02\n      add\n      sload\n        /* \"contracts/CrowdFunding.sol\":1322:1331  msg.value */\n      callvalue\n        /* \"contracts/CrowdFunding.sol\":1322:1360  msg.value == tiers[_tier_index].amount */\n      eq\n        /* \"contracts/CrowdFunding.sol\":1314:1382  require(msg.value == tiers[_tier_index].amount, \"Incorrect amount.\") */\n      tag_152\n      jumpi\n      mload(0x40)\n      0x08c379a000000000000000000000000000000000000000000000000000000000\n      dup2\n      mstore\n      0x04\n      add\n      tag_153\n      swap1\n      tag_154\n      jump\t// in\n    tag_153:\n      mload(0x40)\n      dup1\n      swap2\n      sub\n      swap1\n      revert\n    tag_152:\n        /* \"contracts/CrowdFunding.sol\":1393:1398  tiers */\n      0x06\n        /* \"contracts/CrowdFunding.sol\":1399:1410  _tier_index */\n      dup2\n        /* \"contracts/CrowdFunding.sol\":1393:1411  tiers[_tier_index] */\n      dup2\n      sload\n      dup2\n      lt\n      tag_155\n      jumpi\n      tag_156\n      tag_127\n      jump\t// in\n    tag_156:\n    tag_155:\n      swap1\n      0x00\n      mstore\n      keccak256(0x00, 0x20)\n      swap1\n      0x04\n      mul\n      add\n        /* \"contracts/CrowdFunding.sol\":1393:1419  tiers[_tier_index].backers */\n      0x03\n      add\n      0x00\n        /* \"contracts/CrowdFunding.sol\":1393:1421  tiers[_tier_index].backers++ */\n      dup2\n      sload\n      dup1\n      swap3\n      swap2\n      swap1\n      tag_158\n      swap1\n      tag_159\n      jump\t// in\n    tag_158:\n      swap2\n      swap1\n      pop\n      sstore\n      pop\n        /* \"contracts/CrowdFunding.sol\":1119:1428  function fund(uint256 _tier_index) public payable {... */\n      pop\n      jump\t// out\n        /* \"contracts/CrowdFunding.sol\":133:155  string public org_name */\n    tag_66:\n      0x01\n      dup1\n      sload\n      tag_160\n      swap1\n      tag_71\n      jump\t// in\n    tag_160:\n      dup1\n      0x1f\n      add\n      0x20\n      dup1\n      swap2\n      div\n      mul\n      0x20\n      add\n      mload(0x40)\n      swap1\n      dup2\n      add\n      0x40\n      mstore\n      dup1\n      swap3\n      swap2\n      swap1\n      dup2\n      dup2\n      mstore\n      0x20\n      add\n      dup3\n      dup1\n      sload\n      tag_161\n      swap1\n      tag_71\n      jump\t// in\n    tag_161:\n      dup1\n      iszero\n      tag_162\n      jumpi\n      dup1\n      0x1f\n      lt\n      tag_163\n      jumpi\n      0x0100\n      dup1\n      dup4\n      sload\n      div\n      mul\n      dup4\n      mstore\n      swap2\n      0x20\n      add\n      swap2\n      jump(tag_162)\n    tag_163:\n      dup3\n      add\n      swap2\n      swap1\n      0x00\n      mstore\n      keccak256(0x00, 0x20)\n      swap1\n    tag_164:\n      dup2\n      sload\n      dup2\n      mstore\n      swap1\n      0x01\n      add\n      swap1\n      0x20\n      add\n      dup1\n      dup4\n      gt\n      tag_164\n      jumpi\n      dup3\n      swap1\n      sub\n      0x1f\n      and\n      dup3\n      add\n      swap2\n    tag_162:\n      pop\n      pop\n      pop\n      pop\n      pop\n      dup2\n      jump\t// out\n    tag_140:\n      pop\n      dup1\n      sload\n      tag_165\n      swap1\n      tag_71\n      jump\t// in\n    tag_165:\n      0x00\n      dup3\n      sstore\n      dup1\n      0x1f\n      lt\n      tag_167\n      jumpi\n      pop\n      jump(tag_166)\n    tag_167:\n      0x1f\n      add\n      0x20\n      swap1\n      div\n      swap1\n      0x00\n      mstore\n      keccak256(0x00, 0x20)\n      swap1\n      dup2\n      add\n      swap1\n      tag_168\n      swap2\n      swap1\n      tag_169\n      jump\t// in\n    tag_168:\n    tag_166:\n      pop\n      jump\t// out\n    tag_169:\n    tag_170:\n      dup1\n      dup3\n      gt\n      iszero\n      tag_171\n      jumpi\n      0x00\n      dup2\n      0x00\n      swap1\n      sstore\n      pop\n      0x01\n      add\n      jump(tag_170)\n    tag_171:\n      pop\n      swap1\n      jump\t// out\n        /* \"#utility.yul\":7:82   */\n    tag_172:\n        /* \"#utility.yul\":40:46   */\n      0x00\n        /* \"#utility.yul\":73:75   */\n      0x40\n        /* \"#utility.yul\":67:76   */\n      mload\n        /* \"#utility.yul\":57:76   */\n      swap1\n      pop\n        /* \"#utility.yul\":7:82   */\n      swap1\n      jump\t// out\n        /* \"#utility.yul\":88:205   */\n    tag_173:\n        /* \"#utility.yul\":197:198   */\n      0x00\n        /* \"#utility.yul\":194:195   */\n      0x00\n        /* \"#utility.yul\":187:199   */\n      revert\n        /* \"#utility.yul\":211:328   */\n    tag_174:\n        /* \"#utility.yul\":320:321   */\n      0x00\n        /* \"#utility.yul\":317:318   */\n      0x00\n        /* \"#utility.yul\":310:322   */\n      revert\n        /* \"#utility.yul\":334:411   */\n    tag_175:\n        /* \"#utility.yul\":371:378   */\n      0x00\n        /* \"#utility.yul\":400:405   */\n      dup2\n        /* \"#utility.yul\":389:405   */\n      swap1\n      pop\n        /* \"#utility.yul\":334:411   */\n      swap2\n      swap1\n      pop\n      jump\t// out\n        /* \"#utility.yul\":417:539   */\n    tag_176:\n        /* \"#utility.yul\":490:514   */\n      tag_236\n        /* \"#utility.yul\":508:513   */\n      dup2\n        /* \"#utility.yul\":490:514   */\n      tag_175\n      jump\t// in\n    tag_236:\n        /* \"#utility.yul\":483:488   */\n      dup2\n        /* \"#utility.yul\":480:515   */\n      eq\n        /* \"#utility.yul\":470:533   */\n      tag_237\n      jumpi\n        /* \"#utility.yul\":529:530   */\n      0x00\n        /* \"#utility.yul\":526:527   */\n      0x00\n        /* \"#utility.yul\":519:531   */\n      revert\n        /* \"#utility.yul\":470:533   */\n    tag_237:\n        /* \"#utility.yul\":417:539   */\n      pop\n      jump\t// out\n        /* \"#utility.yul\":545:684   */\n    tag_177:\n        /* \"#utility.yul\":591:596   */\n      0x00\n        /* \"#utility.yul\":629:635   */\n      dup2\n        /* \"#utility.yul\":616:636   */\n      calldataload\n        /* \"#utility.yul\":607:636   */\n      swap1\n      pop\n        /* \"#utility.yul\":645:678   */\n      tag_239\n        /* \"#utility.yul\":672:677   */\n      dup2\n        /* \"#utility.yul\":645:678   */\n      tag_176\n      jump\t// in\n    tag_239:\n        /* \"#utility.yul\":545:684   */\n      swap3\n      swap2\n      pop\n      pop\n      jump\t// out\n        /* \"#utility.yul\":690:1019   */\n    tag_18:\n        /* \"#utility.yul\":749:755   */\n      0x00\n        /* \"#utility.yul\":798:800   */\n      0x20\n        /* \"#utility.yul\":786:795   */\n      dup3\n        /* \"#utility.yul\":777:784   */\n      dup5\n        /* \"#utility.yul\":773:796   */\n      sub\n        /* \"#utility.yul\":769:801   */\n      slt\n        /* \"#utility.yul\":766:885   */\n      iszero\n      tag_241\n      jumpi\n        /* \"#utility.yul\":804:883   */\n      tag_242\n      tag_173\n      jump\t// in\n    tag_242:\n        /* \"#utility.yul\":766:885   */\n    tag_241:\n        /* \"#utility.yul\":924:925   */\n      0x00\n        /* \"#utility.yul\":949:1002   */\n      tag_243\n        /* \"#utility.yul\":994:1001   */\n      dup5\n        /* \"#utility.yul\":985:991   */\n      dup3\n        /* \"#utility.yul\":974:983   */\n      dup6\n        /* \"#utility.yul\":970:992   */\n      add\n        /* \"#utility.yul\":949:1002   */\n      tag_177\n      jump\t// in\n    tag_243:\n        /* \"#utility.yul\":939:1002   */\n      swap2\n      pop\n        /* \"#utility.yul\":895:1012   */\n      pop\n        /* \"#utility.yul\":690:1019   */\n      swap3\n      swap2\n      pop\n      pop\n      jump\t// out\n        /* \"#utility.yul\":1025:1124   */\n    tag_178:\n        /* \"#utility.yul\":1077:1083   */\n      0x00\n        /* \"#utility.yul\":1111:1116   */\n      dup2\n        /* \"#utility.yul\":1105:1117   */\n      mload\n        /* \"#utility.yul\":1095:1117   */\n      swap1\n      pop\n        /* \"#utility.yul\":1025:1124   */\n      swap2\n      swap1\n      pop\n      jump\t// out\n        /* \"#utility.yul\":1130:1299   */\n    tag_179:\n        /* \"#utility.yul\":1214:1225   */\n      0x00\n        /* \"#utility.yul\":1248:1254   */\n      dup3\n        /* \"#utility.yul\":1243:1246   */\n      dup3\n        /* \"#utility.yul\":1236:1255   */\n      mstore\n        /* \"#utility.yul\":1288:1292   */\n      0x20\n        /* \"#utility.yul\":1283:1286   */\n      dup3\n        /* \"#utility.yul\":1279:1293   */\n      add\n        /* \"#utility.yul\":1264:1293   */\n      swap1\n      pop\n        /* \"#utility.yul\":1130:1299   */\n      swap3\n      swap2\n      pop\n      pop\n      jump\t// out\n        /* \"#utility.yul\":1305:1444   */\n    tag_180:\n        /* \"#utility.yul\":1394:1400   */\n      dup3\n        /* \"#utility.yul\":1389:1392   */\n      dup2\n        /* \"#utility.yul\":1384:1387   */\n      dup4\n        /* \"#utility.yul\":1378:1401   */\n      mcopy\n        /* \"#utility.yul\":1435:1436   */\n      0x00\n        /* \"#utility.yul\":1426:1432   */\n      dup4\n        /* \"#utility.yul\":1421:1424   */\n      dup4\n        /* \"#utility.yul\":1417:1433   */\n      add\n        /* \"#utility.yul\":1410:1437   */\n      mstore\n        /* \"#utility.yul\":1305:1444   */\n      pop\n      pop\n      pop\n      jump\t// out\n        /* \"#utility.yul\":1450:1552   */\n    tag_181:\n        /* \"#utility.yul\":1491:1497   */\n      0x00\n        /* \"#utility.yul\":1542:1544   */\n      0x1f\n        /* \"#utility.yul\":1538:1545   */\n      not\n        /* \"#utility.yul\":1533:1535   */\n      0x1f\n        /* \"#utility.yul\":1526:1531   */\n      dup4\n        /* \"#utility.yul\":1522:1536   */\n      add\n        /* \"#utility.yul\":1518:1546   */\n      and\n        /* \"#utility.yul\":1508:1546   */\n      swap1\n      pop\n        /* \"#utility.yul\":1450:1552   */\n      swap2\n      swap1\n      pop\n      jump\t// out\n        /* \"#utility.yul\":1558:1935   */\n    tag_182:\n        /* \"#utility.yul\":1646:1649   */\n      0x00\n        /* \"#utility.yul\":1674:1713   */\n      tag_249\n        /* \"#utility.yul\":1707:1712   */\n      dup3\n        /* \"#utility.yul\":1674:1713   */\n      tag_178\n      jump\t// in\n    tag_249:\n        /* \"#utility.yul\":1729:1800   */\n      tag_250\n        /* \"#utility.yul\":1793:1799   */\n      dup2\n        /* \"#utility.yul\":1788:1791   */\n      dup6\n        /* \"#utility.yul\":1729:1800   */\n      tag_179\n      jump\t// in\n    tag_250:\n        /* \"#utility.yul\":1722:1800   */\n      swap4\n      pop\n        /* \"#utility.yul\":1809:1874   */\n      tag_251\n        /* \"#utility.yul\":1867:1873   */\n      dup2\n        /* \"#utility.yul\":1862:1865   */\n      dup6\n        /* \"#utility.yul\":1855:1859   */\n      0x20\n        /* \"#utility.yul\":1848:1853   */\n      dup7\n        /* \"#utility.yul\":1844:1860   */\n      add\n        /* \"#utility.yul\":1809:1874   */\n      tag_180\n      jump\t// in\n    tag_251:\n        /* \"#utility.yul\":1899:1928   */\n      tag_252\n        /* \"#utility.yul\":1921:1927   */\n      dup2\n        /* \"#utility.yul\":1899:1928   */\n      tag_181\n      jump\t// in\n    tag_252:\n        /* \"#utility.yul\":1894:1897   */\n      dup5\n        /* \"#utility.yul\":1890:1929   */\n      add\n        /* \"#utility.yul\":1883:1929   */\n      swap2\n      pop\n        /* \"#utility.yul\":1650:1935   */\n      pop\n        /* \"#utility.yul\":1558:1935   */\n      swap3\n      swap2\n      pop\n      pop\n      jump\t// out\n        /* \"#utility.yul\":1941:2059   */\n    tag_183:\n        /* \"#utility.yul\":2028:2052   */\n      tag_254\n        /* \"#utility.yul\":2046:2051   */\n      dup2\n        /* \"#utility.yul\":2028:2052   */\n      tag_175\n      jump\t// in\n    tag_254:\n        /* \"#utility.yul\":2023:2026   */\n      dup3\n        /* \"#utility.yul\":2016:2053   */\n      mstore\n        /* \"#utility.yul\":1941:2059   */\n      pop\n      pop\n      jump\t// out\n        /* \"#utility.yul\":2065:2800   */\n    tag_21:\n        /* \"#utility.yul\":2282:2286   */\n      0x00\n        /* \"#utility.yul\":2320:2323   */\n      0x80\n        /* \"#utility.yul\":2309:2318   */\n      dup3\n        /* \"#utility.yul\":2305:2324   */\n      add\n        /* \"#utility.yul\":2297:2324   */\n      swap1\n      pop\n        /* \"#utility.yul\":2370:2379   */\n      dup2\n        /* \"#utility.yul\":2364:2368   */\n      dup2\n        /* \"#utility.yul\":2360:2380   */\n      sub\n        /* \"#utility.yul\":2356:2357   */\n      0x00\n        /* \"#utility.yul\":2345:2354   */\n      dup4\n        /* \"#utility.yul\":2341:2358   */\n      add\n        /* \"#utility.yul\":2334:2381   */\n      mstore\n        /* \"#utility.yul\":2398:2476   */\n      tag_256\n        /* \"#utility.yul\":2471:2475   */\n      dup2\n        /* \"#utility.yul\":2462:2468   */\n      dup8\n        /* \"#utility.yul\":2398:2476   */\n      tag_182\n      jump\t// in\n    tag_256:\n        /* \"#utility.yul\":2390:2476   */\n      swap1\n      pop\n        /* \"#utility.yul\":2523:2532   */\n      dup2\n        /* \"#utility.yul\":2517:2521   */\n      dup2\n        /* \"#utility.yul\":2513:2533   */\n      sub\n        /* \"#utility.yul\":2508:2510   */\n      0x20\n        /* \"#utility.yul\":2497:2506   */\n      dup4\n        /* \"#utility.yul\":2493:2511   */\n      add\n        /* \"#utility.yul\":2486:2534   */\n      mstore\n        /* \"#utility.yul\":2551:2629   */\n      tag_257\n        /* \"#utility.yul\":2624:2628   */\n      dup2\n        /* \"#utility.yul\":2615:2621   */\n      dup7\n        /* \"#utility.yul\":2551:2629   */\n      tag_182\n      jump\t// in\n    tag_257:\n        /* \"#utility.yul\":2543:2629   */\n      swap1\n      pop\n        /* \"#utility.yul\":2639:2711   */\n      tag_258\n        /* \"#utility.yul\":2707:2709   */\n      0x40\n        /* \"#utility.yul\":2696:2705   */\n      dup4\n        /* \"#utility.yul\":2692:2710   */\n      add\n        /* \"#utility.yul\":2683:2689   */\n      dup6\n        /* \"#utility.yul\":2639:2711   */\n      tag_183\n      jump\t// in\n    tag_258:\n        /* \"#utility.yul\":2721:2793   */\n      tag_259\n        /* \"#utility.yul\":2789:2791   */\n      0x60\n        /* \"#utility.yul\":2778:2787   */\n      dup4\n        /* \"#utility.yul\":2774:2792   */\n      add\n        /* \"#utility.yul\":2765:2771   */\n      dup5\n        /* \"#utility.yul\":2721:2793   */\n      tag_183\n      jump\t// in\n    tag_259:\n        /* \"#utility.yul\":2065:2800   */\n      swap6\n      swap5\n      pop\n      pop\n      pop\n      pop\n      pop\n      jump\t// out\n        /* \"#utility.yul\":2806:3119   */\n    tag_26:\n        /* \"#utility.yul\":2919:2923   */\n      0x00\n        /* \"#utility.yul\":2957:2959   */\n      0x20\n        /* \"#utility.yul\":2946:2955   */\n      dup3\n        /* \"#utility.yul\":2942:2960   */\n      add\n        /* \"#utility.yul\":2934:2960   */\n      swap1\n      pop\n        /* \"#utility.yul\":3006:3015   */\n      dup2\n        /* \"#utility.yul\":3000:3004   */\n      dup2\n        /* \"#utility.yul\":2996:3016   */\n      sub\n        /* \"#utility.yul\":2992:2993   */\n      0x00\n        /* \"#utility.yul\":2981:2990   */\n      dup4\n        /* \"#utility.yul\":2977:2994   */\n      add\n        /* \"#utility.yul\":2970:3017   */\n      mstore\n        /* \"#utility.yul\":3034:3112   */\n      tag_261\n        /* \"#utility.yul\":3107:3111   */\n      dup2\n        /* \"#utility.yul\":3098:3104   */\n      dup5\n        /* \"#utility.yul\":3034:3112   */\n      tag_182\n      jump\t// in\n    tag_261:\n        /* \"#utility.yul\":3026:3112   */\n      swap1\n      pop\n        /* \"#utility.yul\":2806:3119   */\n      swap3\n      swap2\n      pop\n      pop\n      jump\t// out\n        /* \"#utility.yul\":3125:3347   */\n    tag_31:\n        /* \"#utility.yul\":3218:3222   */\n      0x00\n        /* \"#utility.yul\":3256:3258   */\n      0x20\n        /* \"#utility.yul\":3245:3254   */\n      dup3\n        /* \"#utility.yul\":3241:3259   */\n      add\n        /* \"#utility.yul\":3233:3259   */\n      swap1\n      pop\n        /* \"#utility.yul\":3269:3340   */\n      tag_263\n        /* \"#utility.yul\":3337:3338   */\n      0x00\n        /* \"#utility.yul\":3326:3335   */\n      dup4\n        /* \"#utility.yul\":3322:3339   */\n      add\n        /* \"#utility.yul\":3313:3319   */\n      dup5\n        /* \"#utility.yul\":3269:3340   */\n      tag_183\n      jump\t// in\n    tag_263:\n        /* \"#utility.yul\":3125:3347   */\n      swap3\n      swap2\n      pop\n      pop\n      jump\t// out\n        /* \"#utility.yul\":3353:3470   */\n    tag_184:\n        /* \"#utility.yul\":3462:3463   */\n      0x00\n        /* \"#utility.yul\":3459:3460   */\n      0x00\n        /* \"#utility.yul\":3452:3464   */\n      revert\n        /* \"#utility.yul\":3476:3593   */\n    tag_185:\n        /* \"#utility.yul\":3585:3586   */\n      0x00\n        /* \"#utility.yul\":3582:3583   */\n      0x00\n        /* \"#utility.yul\":3575:3587   */\n      revert\n        /* \"#utility.yul\":3599:3779   */\n    tag_186:\n        /* \"#utility.yul\":3647:3724   */\n      0x4e487b7100000000000000000000000000000000000000000000000000000000\n        /* \"#utility.yul\":3644:3645   */\n      0x00\n        /* \"#utility.yul\":3637:3725   */\n      mstore\n        /* \"#utility.yul\":3744:3748   */\n      0x41\n        /* \"#utility.yul\":3741:3742   */\n      0x04\n        /* \"#utility.yul\":3734:3749   */\n      mstore\n        /* \"#utility.yul\":3768:3772   */\n      0x24\n        /* \"#utility.yul\":3765:3766   */\n      0x00\n        /* \"#utility.yul\":3758:3773   */\n      revert\n        /* \"#utility.yul\":3785:4066   */\n    tag_187:\n        /* \"#utility.yul\":3868:3895   */\n      tag_268\n        /* \"#utility.yul\":3890:3894   */\n      dup3\n        /* \"#utility.yul\":3868:3895   */\n      tag_181\n      jump\t// in\n    tag_268:\n        /* \"#utility.yul\":3860:3866   */\n      dup2\n        /* \"#utility.yul\":3856:3896   */\n      add\n        /* \"#utility.yul\":3998:4004   */\n      dup2\n        /* \"#utility.yul\":3986:3996   */\n      dup2\n        /* \"#utility.yul\":3983:4005   */\n      lt\n        /* \"#utility.yul\":3962:3980   */\n      0xffffffffffffffff\n        /* \"#utility.yul\":3950:3960   */\n      dup3\n        /* \"#utility.yul\":3947:3981   */\n      gt\n        /* \"#utility.yul\":3944:4006   */\n      or\n        /* \"#utility.yul\":3941:4029   */\n      iszero\n      tag_269\n      jumpi\n        /* \"#utility.yul\":4009:4027   */\n      tag_270\n      tag_186\n      jump\t// in\n    tag_270:\n        /* \"#utility.yul\":3941:4029   */\n    tag_269:\n        /* \"#utility.yul\":4049:4059   */\n      dup1\n        /* \"#utility.yul\":4045:4047   */\n      0x40\n        /* \"#utility.yul\":4038:4060   */\n      mstore\n        /* \"#utility.yul\":3828:4066   */\n      pop\n        /* \"#utility.yul\":3785:4066   */\n      pop\n      pop\n      jump\t// out\n        /* \"#utility.yul\":4072:4201   */\n    tag_188:\n        /* \"#utility.yul\":4106:4112   */\n      0x00\n        /* \"#utility.yul\":4133:4153   */\n      tag_272\n      tag_172\n      jump\t// in\n    tag_272:\n        /* \"#utility.yul\":4123:4153   */\n      swap1\n      pop\n        /* \"#utility.yul\":4162:4195   */\n      tag_273\n        /* \"#utility.yul\":4190:4194   */\n      dup3\n        /* \"#utility.yul\":4182:4188   */\n      dup3\n        /* \"#utility.yul\":4162:4195   */\n      tag_187\n      jump\t// in\n    tag_273:\n        /* \"#utility.yul\":4072:4201   */\n      swap2\n      swap1\n      pop\n      jump\t// out\n        /* \"#utility.yul\":4207:4515   */\n    tag_189:\n        /* \"#utility.yul\":4269:4273   */\n      0x00\n        /* \"#utility.yul\":4359:4377   */\n      0xffffffffffffffff\n        /* \"#utility.yul\":4351:4357   */\n      dup3\n        /* \"#utility.yul\":4348:4378   */\n      gt\n        /* \"#utility.yul\":4345:4401   */\n      iszero\n      tag_275\n      jumpi\n        /* \"#utility.yul\":4381:4399   */\n      tag_276\n      tag_186\n      jump\t// in\n    tag_276:\n        /* \"#utility.yul\":4345:4401   */\n    tag_275:\n        /* \"#utility.yul\":4419:4448   */\n      tag_277\n        /* \"#utility.yul\":4441:4447   */\n      dup3\n        /* \"#utility.yul\":4419:4448   */\n      tag_181\n      jump\t// in\n    tag_277:\n        /* \"#utility.yul\":4411:4448   */\n      swap1\n      pop\n        /* \"#utility.yul\":4503:4507   */\n      0x20\n        /* \"#utility.yul\":4497:4501   */\n      dup2\n        /* \"#utility.yul\":4493:4508   */\n      add\n        /* \"#utility.yul\":4485:4508   */\n      swap1\n      pop\n        /* \"#utility.yul\":4207:4515   */\n      swap2\n      swap1\n      pop\n      jump\t// out\n        /* \"#utility.yul\":4521:4669   */\n    tag_190:\n        /* \"#utility.yul\":4619:4625   */\n      dup3\n        /* \"#utility.yul\":4614:4617   */\n      dup2\n        /* \"#utility.yul\":4609:4612   */\n      dup4\n        /* \"#utility.yul\":4596:4626   */\n      calldatacopy\n        /* \"#utility.yul\":4660:4661   */\n      0x00\n        /* \"#utility.yul\":4651:4657   */\n      dup4\n        /* \"#utility.yul\":4646:4649   */\n      dup4\n        /* \"#utility.yul\":4642:4658   */\n      add\n        /* \"#utility.yul\":4635:4662   */\n      mstore\n        /* \"#utility.yul\":4521:4669   */\n      pop\n      pop\n      pop\n      jump\t// out\n        /* \"#utility.yul\":4675:5100   */\n    tag_191:\n        /* \"#utility.yul\":4753:4758   */\n      0x00\n        /* \"#utility.yul\":4778:4844   */\n      tag_280\n        /* \"#utility.yul\":4794:4843   */\n      tag_281\n        /* \"#utility.yul\":4836:4842   */\n      dup5\n        /* \"#utility.yul\":4794:4843   */\n      tag_189\n      jump\t// in\n    tag_281:\n        /* \"#utility.yul\":4778:4844   */\n      tag_188\n      jump\t// in\n    tag_280:\n        /* \"#utility.yul\":4769:4844   */\n      swap1\n      pop\n        /* \"#utility.yul\":4867:4873   */\n      dup3\n        /* \"#utility.yul\":4860:4865   */\n      dup2\n        /* \"#utility.yul\":4853:4874   */\n      mstore\n        /* \"#utility.yul\":4905:4909   */\n      0x20\n        /* \"#utility.yul\":4898:4903   */\n      dup2\n        /* \"#utility.yul\":4894:4910   */\n      add\n        /* \"#utility.yul\":4943:4946   */\n      dup5\n        /* \"#utility.yul\":4934:4940   */\n      dup5\n        /* \"#utility.yul\":4929:4932   */\n      dup5\n        /* \"#utility.yul\":4925:4941   */\n      add\n        /* \"#utility.yul\":4922:4947   */\n      gt\n        /* \"#utility.yul\":4919:5031   */\n      iszero\n      tag_282\n      jumpi\n        /* \"#utility.yul\":4950:5029   */\n      tag_283\n      tag_185\n      jump\t// in\n    tag_283:\n        /* \"#utility.yul\":4919:5031   */\n    tag_282:\n        /* \"#utility.yul\":5040:5094   */\n      tag_284\n        /* \"#utility.yul\":5087:5093   */\n      dup5\n        /* \"#utility.yul\":5082:5085   */\n      dup3\n        /* \"#utility.yul\":5077:5080   */\n      dup6\n        /* \"#utility.yul\":5040:5094   */\n      tag_190\n      jump\t// in\n    tag_284:\n        /* \"#utility.yul\":4759:5100   */\n      pop\n        /* \"#utility.yul\":4675:5100   */\n      swap4\n      swap3\n      pop\n      pop\n      pop\n      jump\t// out\n        /* \"#utility.yul\":5120:5460   */\n    tag_192:\n        /* \"#utility.yul\":5176:5181   */\n      0x00\n        /* \"#utility.yul\":5225:5228   */\n      dup3\n        /* \"#utility.yul\":5218:5222   */\n      0x1f\n        /* \"#utility.yul\":5210:5216   */\n      dup4\n        /* \"#utility.yul\":5206:5223   */\n      add\n        /* \"#utility.yul\":5202:5229   */\n      slt\n        /* \"#utility.yul\":5192:5314   */\n      tag_286\n      jumpi\n        /* \"#utility.yul\":5233:5312   */\n      tag_287\n      tag_184\n      jump\t// in\n    tag_287:\n        /* \"#utility.yul\":5192:5314   */\n    tag_286:\n        /* \"#utility.yul\":5350:5356   */\n      dup2\n        /* \"#utility.yul\":5337:5357   */\n      calldataload\n        /* \"#utility.yul\":5375:5454   */\n      tag_288\n        /* \"#utility.yul\":5450:5453   */\n      dup5\n        /* \"#utility.yul\":5442:5448   */\n      dup3\n        /* \"#utility.yul\":5435:5439   */\n      0x20\n        /* \"#utility.yul\":5427:5433   */\n      dup7\n        /* \"#utility.yul\":5423:5440   */\n      add\n        /* \"#utility.yul\":5375:5454   */\n      tag_191\n      jump\t// in\n    tag_288:\n        /* \"#utility.yul\":5366:5454   */\n      swap2\n      pop\n        /* \"#utility.yul\":5182:5460   */\n      pop\n        /* \"#utility.yul\":5120:5460   */\n      swap3\n      swap2\n      pop\n      pop\n      jump\t// out\n        /* \"#utility.yul\":5466:6445   */\n    tag_46:\n        /* \"#utility.yul\":5563:5569   */\n      0x00\n        /* \"#utility.yul\":5571:5577   */\n      0x00\n        /* \"#utility.yul\":5579:5585   */\n      0x00\n        /* \"#utility.yul\":5628:5630   */\n      0x60\n        /* \"#utility.yul\":5616:5625   */\n      dup5\n        /* \"#utility.yul\":5607:5614   */\n      dup7\n        /* \"#utility.yul\":5603:5626   */\n      sub\n        /* \"#utility.yul\":5599:5631   */\n      slt\n        /* \"#utility.yul\":5596:5715   */\n      iszero\n      tag_290\n      jumpi\n        /* \"#utility.yul\":5634:5713   */\n      tag_291\n      tag_173\n      jump\t// in\n    tag_291:\n        /* \"#utility.yul\":5596:5715   */\n    tag_290:\n        /* \"#utility.yul\":5782:5783   */\n      0x00\n        /* \"#utility.yul\":5771:5780   */\n      dup5\n        /* \"#utility.yul\":5767:5784   */\n      add\n        /* \"#utility.yul\":5754:5785   */\n      calldataload\n        /* \"#utility.yul\":5812:5830   */\n      0xffffffffffffffff\n        /* \"#utility.yul\":5804:5810   */\n      dup2\n        /* \"#utility.yul\":5801:5831   */\n      gt\n        /* \"#utility.yul\":5798:5915   */\n      iszero\n      tag_292\n      jumpi\n        /* \"#utility.yul\":5834:5913   */\n      tag_293\n      tag_174\n      jump\t// in\n    tag_293:\n        /* \"#utility.yul\":5798:5915   */\n    tag_292:\n        /* \"#utility.yul\":5939:6002   */\n      tag_294\n        /* \"#utility.yul\":5994:6001   */\n      dup7\n        /* \"#utility.yul\":5985:5991   */\n      dup3\n        /* \"#utility.yul\":5974:5983   */\n      dup8\n        /* \"#utility.yul\":5970:5992   */\n      add\n        /* \"#utility.yul\":5939:6002   */\n      tag_192\n      jump\t// in\n    tag_294:\n        /* \"#utility.yul\":5929:6002   */\n      swap4\n      pop\n        /* \"#utility.yul\":5725:6012   */\n      pop\n        /* \"#utility.yul\":6079:6081   */\n      0x20\n        /* \"#utility.yul\":6068:6077   */\n      dup5\n        /* \"#utility.yul\":6064:6082   */\n      add\n        /* \"#utility.yul\":6051:6083   */\n      calldataload\n        /* \"#utility.yul\":6110:6128   */\n      0xffffffffffffffff\n        /* \"#utility.yul\":6102:6108   */\n      dup2\n        /* \"#utility.yul\":6099:6129   */\n      gt\n        /* \"#utility.yul\":6096:6213   */\n      iszero\n      tag_295\n      jumpi\n        /* \"#utility.yul\":6132:6211   */\n      tag_296\n      tag_174\n      jump\t// in\n    tag_296:\n        /* \"#utility.yul\":6096:6213   */\n    tag_295:\n        /* \"#utility.yul\":6237:6300   */\n      tag_297\n        /* \"#utility.yul\":6292:6299   */\n      dup7\n        /* \"#utility.yul\":6283:6289   */\n      dup3\n        /* \"#utility.yul\":6272:6281   */\n      dup8\n        /* \"#utility.yul\":6268:6290   */\n      add\n        /* \"#utility.yul\":6237:6300   */\n      tag_192\n      jump\t// in\n    tag_297:\n        /* \"#utility.yul\":6227:6300   */\n      swap3\n      pop\n        /* \"#utility.yul\":6022:6310   */\n      pop\n        /* \"#utility.yul\":6349:6351   */\n      0x40\n        /* \"#utility.yul\":6375:6428   */\n      tag_298\n        /* \"#utility.yul\":6420:6427   */\n      dup7\n        /* \"#utility.yul\":6411:6417   */\n      dup3\n        /* \"#utility.yul\":6400:6409   */\n      dup8\n        /* \"#utility.yul\":6396:6418   */\n      add\n        /* \"#utility.yul\":6375:6428   */\n      tag_177\n      jump\t// in\n    tag_298:\n        /* \"#utility.yul\":6365:6428   */\n      swap2\n      pop\n        /* \"#utility.yul\":6320:6438   */\n      pop\n        /* \"#utility.yul\":5466:6445   */\n      swap3\n      pop\n      swap3\n      pop\n      swap3\n      jump\t// out\n        /* \"#utility.yul\":6451:6577   */\n    tag_193:\n        /* \"#utility.yul\":6488:6495   */\n      0x00\n        /* \"#utility.yul\":6528:6570   */\n      0xffffffffffffffffffffffffffffffffffffffff\n        /* \"#utility.yul\":6521:6526   */\n      dup3\n        /* \"#utility.yul\":6517:6571   */\n      and\n        /* \"#utility.yul\":6506:6571   */\n      swap1\n      pop\n        /* \"#utility.yul\":6451:6577   */\n      swap2\n      swap1\n      pop\n      jump\t// out\n        /* \"#utility.yul\":6583:6679   */\n    tag_194:\n        /* \"#utility.yul\":6620:6627   */\n      0x00\n        /* \"#utility.yul\":6649:6673   */\n      tag_301\n        /* \"#utility.yul\":6667:6672   */\n      dup3\n        /* \"#utility.yul\":6649:6673   */\n      tag_193\n      jump\t// in\n    tag_301:\n        /* \"#utility.yul\":6638:6673   */\n      swap1\n      pop\n        /* \"#utility.yul\":6583:6679   */\n      swap2\n      swap1\n      pop\n      jump\t// out\n        /* \"#utility.yul\":6685:6803   */\n    tag_195:\n        /* \"#utility.yul\":6772:6796   */\n      tag_303\n        /* \"#utility.yul\":6790:6795   */\n      dup2\n        /* \"#utility.yul\":6772:6796   */\n      tag_194\n      jump\t// in\n    tag_303:\n        /* \"#utility.yul\":6767:6770   */\n      dup3\n        /* \"#utility.yul\":6760:6797   */\n      mstore\n        /* \"#utility.yul\":6685:6803   */\n      pop\n      pop\n      jump\t// out\n        /* \"#utility.yul\":6809:7031   */\n    tag_60:\n        /* \"#utility.yul\":6902:6906   */\n      0x00\n        /* \"#utility.yul\":6940:6942   */\n      0x20\n        /* \"#utility.yul\":6929:6938   */\n      dup3\n        /* \"#utility.yul\":6925:6943   */\n      add\n        /* \"#utility.yul\":6917:6943   */\n      swap1\n      pop\n        /* \"#utility.yul\":6953:7024   */\n      tag_305\n        /* \"#utility.yul\":7021:7022   */\n      0x00\n        /* \"#utility.yul\":7010:7019   */\n      dup4\n        /* \"#utility.yul\":7006:7023   */\n      add\n        /* \"#utility.yul\":6997:7003   */\n      dup5\n        /* \"#utility.yul\":6953:7024   */\n      tag_195\n      jump\t// in\n    tag_305:\n        /* \"#utility.yul\":6809:7031   */\n      swap3\n      swap2\n      pop\n      pop\n      jump\t// out\n        /* \"#utility.yul\":7037:7217   */\n    tag_196:\n        /* \"#utility.yul\":7085:7162   */\n      0x4e487b7100000000000000000000000000000000000000000000000000000000\n        /* \"#utility.yul\":7082:7083   */\n      0x00\n        /* \"#utility.yul\":7075:7163   */\n      mstore\n        /* \"#utility.yul\":7182:7186   */\n      0x22\n        /* \"#utility.yul\":7179:7180   */\n      0x04\n        /* \"#utility.yul\":7172:7187   */\n      mstore\n        /* \"#utility.yul\":7206:7210   */\n      0x24\n        /* \"#utility.yul\":7203:7204   */\n      0x00\n        /* \"#utility.yul\":7196:7211   */\n      revert\n        /* \"#utility.yul\":7223:7543   */\n    tag_71:\n        /* \"#utility.yul\":7267:7273   */\n      0x00\n        /* \"#utility.yul\":7304:7305   */\n      0x02\n        /* \"#utility.yul\":7298:7302   */\n      dup3\n        /* \"#utility.yul\":7294:7306   */\n      div\n        /* \"#utility.yul\":7284:7306   */\n      swap1\n      pop\n        /* \"#utility.yul\":7351:7352   */\n      0x01\n        /* \"#utility.yul\":7345:7349   */\n      dup3\n        /* \"#utility.yul\":7341:7353   */\n      and\n        /* \"#utility.yul\":7372:7390   */\n      dup1\n        /* \"#utility.yul\":7362:7443   */\n      tag_308\n      jumpi\n        /* \"#utility.yul\":7428:7432   */\n      0x7f\n        /* \"#utility.yul\":7420:7426   */\n      dup3\n        /* \"#utility.yul\":7416:7433   */\n      and\n        /* \"#utility.yul\":7406:7433   */\n      swap2\n      pop\n        /* \"#utility.yul\":7362:7443   */\n    tag_308:\n        /* \"#utility.yul\":7490:7492   */\n      0x20\n        /* \"#utility.yul\":7482:7488   */\n      dup3\n        /* \"#utility.yul\":7479:7493   */\n      lt\n        /* \"#utility.yul\":7459:7477   */\n      dup2\n        /* \"#utility.yul\":7456:7494   */\n      sub\n        /* \"#utility.yul\":7453:7537   */\n      tag_309\n      jumpi\n        /* \"#utility.yul\":7509:7527   */\n      tag_310\n      tag_196\n      jump\t// in\n    tag_310:\n        /* \"#utility.yul\":7453:7537   */\n    tag_309:\n        /* \"#utility.yul\":7274:7543   */\n      pop\n        /* \"#utility.yul\":7223:7543   */\n      swap2\n      swap1\n      pop\n      jump\t// out\n        /* \"#utility.yul\":7549:7773   */\n    tag_197:\n        /* \"#utility.yul\":7689:7723   */\n      0x4f6e6c7920746865206f776e65722063616e2063616c6c20746869732066756e\n        /* \"#utility.yul\":7685:7686   */\n      0x00\n        /* \"#utility.yul\":7677:7683   */\n      dup3\n        /* \"#utility.yul\":7673:7687   */\n      add\n        /* \"#utility.yul\":7666:7724   */\n      mstore\n        /* \"#utility.yul\":7758:7765   */\n      0x6374696f6e000000000000000000000000000000000000000000000000000000\n        /* \"#utility.yul\":7753:7755   */\n      0x20\n        /* \"#utility.yul\":7745:7751   */\n      dup3\n        /* \"#utility.yul\":7741:7756   */\n      add\n        /* \"#utility.yul\":7734:7766   */\n      mstore\n        /* \"#utility.yul\":7549:7773   */\n      pop\n      jump\t// out\n        /* \"#utility.yul\":7779:8145   */\n    tag_198:\n        /* \"#utility.yul\":7921:7924   */\n      0x00\n        /* \"#utility.yul\":7942:8009   */\n      tag_313\n        /* \"#utility.yul\":8006:8008   */\n      0x25\n        /* \"#utility.yul\":8001:8004   */\n      dup4\n        /* \"#utility.yul\":7942:8009   */\n      tag_179\n      jump\t// in\n    tag_313:\n        /* \"#utility.yul\":7935:8009   */\n      swap2\n      pop\n        /* \"#utility.yul\":8018:8111   */\n      tag_314\n        /* \"#utility.yul\":8107:8110   */\n      dup3\n        /* \"#utility.yul\":8018:8111   */\n      tag_197\n      jump\t// in\n    tag_314:\n        /* \"#utility.yul\":8136:8138   */\n      0x40\n        /* \"#utility.yul\":8131:8134   */\n      dup3\n        /* \"#utility.yul\":8127:8139   */\n      add\n        /* \"#utility.yul\":8120:8139   */\n      swap1\n      pop\n        /* \"#utility.yul\":7779:8145   */\n      swap2\n      swap1\n      pop\n      jump\t// out\n        /* \"#utility.yul\":8151:8570   */\n    tag_90:\n        /* \"#utility.yul\":8317:8321   */\n      0x00\n        /* \"#utility.yul\":8355:8357   */\n      0x20\n        /* \"#utility.yul\":8344:8353   */\n      dup3\n        /* \"#utility.yul\":8340:8358   */\n      add\n        /* \"#utility.yul\":8332:8358   */\n      swap1\n      pop\n        /* \"#utility.yul\":8404:8413   */\n      dup2\n        /* \"#utility.yul\":8398:8402   */\n      dup2\n        /* \"#utility.yul\":8394:8414   */\n      sub\n        /* \"#utility.yul\":8390:8391   */\n      0x00\n        /* \"#utility.yul\":8379:8388   */\n      dup4\n        /* \"#utility.yul\":8375:8392   */\n      add\n        /* \"#utility.yul\":8368:8415   */\n      mstore\n        /* \"#utility.yul\":8432:8563   */\n      tag_316\n        /* \"#utility.yul\":8558:8562   */\n      dup2\n        /* \"#utility.yul\":8432:8563   */\n      tag_198\n      jump\t// in\n    tag_316:\n        /* \"#utility.yul\":8424:8563   */\n      swap1\n      pop\n        /* \"#utility.yul\":8151:8570   */\n      swap2\n      swap1\n      pop\n      jump\t// out\n        /* \"#utility.yul\":8576:8756   */\n    tag_199:\n        /* \"#utility.yul\":8716:8748   */\n      0x54686520676f616c20686173206e6f74206265656e20726561636865642e0000\n        /* \"#utility.yul\":8712:8713   */\n      0x00\n        /* \"#utility.yul\":8704:8710   */\n      dup3\n        /* \"#utility.yul\":8700:8714   */\n      add\n        /* \"#utility.yul\":8693:8749   */\n      mstore\n        /* \"#utility.yul\":8576:8756   */\n      pop\n      jump\t// out\n        /* \"#utility.yul\":8762:9128   */\n    tag_200:\n        /* \"#utility.yul\":8904:8907   */\n      0x00\n        /* \"#utility.yul\":8925:8992   */\n      tag_319\n        /* \"#utility.yul\":8989:8991   */\n      0x1e\n        /* \"#utility.yul\":8984:8987   */\n      dup4\n        /* \"#utility.yul\":8925:8992   */\n      tag_179\n      jump\t// in\n    tag_319:\n        /* \"#utility.yul\":8918:8992   */\n      swap2\n      pop\n        /* \"#utility.yul\":9001:9094   */\n      tag_320\n        /* \"#utility.yul\":9090:9093   */\n      dup3\n        /* \"#utility.yul\":9001:9094   */\n      tag_199\n      jump\t// in\n    tag_320:\n        /* \"#utility.yul\":9119:9121   */\n      0x20\n        /* \"#utility.yul\":9114:9117   */\n      dup3\n        /* \"#utility.yul\":9110:9122   */\n      add\n        /* \"#utility.yul\":9103:9122   */\n      swap1\n      pop\n        /* \"#utility.yul\":8762:9128   */\n      swap2\n      swap1\n      pop\n      jump\t// out\n        /* \"#utility.yul\":9134:9553   */\n    tag_94:\n        /* \"#utility.yul\":9300:9304   */\n      0x00\n        /* \"#utility.yul\":9338:9340   */\n      0x20\n        /* \"#utility.yul\":9327:9336   */\n      dup3\n        /* \"#utility.yul\":9323:9341   */\n      add\n        /* \"#utility.yul\":9315:9341   */\n      swap1\n      pop\n        /* \"#utility.yul\":9387:9396   */\n      dup2\n        /* \"#utility.yul\":9381:9385   */\n      dup2\n        /* \"#utility.yul\":9377:9397   */\n      sub\n        /* \"#utility.yul\":9373:9374   */\n      0x00\n        /* \"#utility.yul\":9362:9371   */\n      dup4\n        /* \"#utility.yul\":9358:9375   */\n      add\n        /* \"#utility.yul\":9351:9398   */\n      mstore\n        /* \"#utility.yul\":9415:9546   */\n      tag_322\n        /* \"#utility.yul\":9541:9545   */\n      dup2\n        /* \"#utility.yul\":9415:9546   */\n      tag_200\n      jump\t// in\n    tag_322:\n        /* \"#utility.yul\":9407:9546   */\n      swap1\n      pop\n        /* \"#utility.yul\":9134:9553   */\n      swap2\n      swap1\n      pop\n      jump\t// out\n        /* \"#utility.yul\":9559:9732   */\n    tag_201:\n        /* \"#utility.yul\":9699:9724   */\n      0x4e6f2062616c616e636520746f2077697468647261772e000000000000000000\n        /* \"#utility.yul\":9695:9696   */\n      0x00\n        /* \"#utility.yul\":9687:9693   */\n      dup3\n        /* \"#utility.yul\":9683:9697   */\n      add\n        /* \"#utility.yul\":9676:9725   */\n      mstore\n        /* \"#utility.yul\":9559:9732   */\n      pop\n      jump\t// out\n        /* \"#utility.yul\":9738:10104   */\n    tag_202:\n        /* \"#utility.yul\":9880:9883   */\n      0x00\n        /* \"#utility.yul\":9901:9968   */\n      tag_325\n        /* \"#utility.yul\":9965:9967   */\n      0x17\n        /* \"#utility.yul\":9960:9963   */\n      dup4\n        /* \"#utility.yul\":9901:9968   */\n      tag_179\n      jump\t// in\n    tag_325:\n        /* \"#utility.yul\":9894:9968   */\n      swap2\n      pop\n        /* \"#utility.yul\":9977:10070   */\n      tag_326\n        /* \"#utility.yul\":10066:10069   */\n      dup3\n        /* \"#utility.yul\":9977:10070   */\n      tag_201\n      jump\t// in\n    tag_326:\n        /* \"#utility.yul\":10095:10097   */\n      0x20\n        /* \"#utility.yul\":10090:10093   */\n      dup3\n        /* \"#utility.yul\":10086:10098   */\n      add\n        /* \"#utility.yul\":10079:10098   */\n      swap1\n      pop\n        /* \"#utility.yul\":9738:10104   */\n      swap2\n      swap1\n      pop\n      jump\t// out\n        /* \"#utility.yul\":10110:10529   */\n    tag_97:\n        /* \"#utility.yul\":10276:10280   */\n      0x00\n        /* \"#utility.yul\":10314:10316   */\n      0x20\n        /* \"#utility.yul\":10303:10312   */\n      dup3\n        /* \"#utility.yul\":10299:10317   */\n      add\n        /* \"#utility.yul\":10291:10317   */\n      swap1\n      pop\n        /* \"#utility.yul\":10363:10372   */\n      dup2\n        /* \"#utility.yul\":10357:10361   */\n      dup2\n        /* \"#utility.yul\":10353:10373   */\n      sub\n        /* \"#utility.yul\":10349:10350   */\n      0x00\n        /* \"#utility.yul\":10338:10347   */\n      dup4\n        /* \"#utility.yul\":10334:10351   */\n      add\n        /* \"#utility.yul\":10327:10374   */\n      mstore\n        /* \"#utility.yul\":10391:10522   */\n      tag_328\n        /* \"#utility.yul\":10517:10521   */\n      dup2\n        /* \"#utility.yul\":10391:10522   */\n      tag_202\n      jump\t// in\n    tag_328:\n        /* \"#utility.yul\":10383:10522   */\n      swap1\n      pop\n        /* \"#utility.yul\":10110:10529   */\n      swap2\n      swap1\n      pop\n      jump\t// out\n        /* \"#utility.yul\":10535:10715   */\n    tag_203:\n        /* \"#utility.yul\":10675:10707   */\n      0x416d6f756e74206d7573742062652067726561746572207468616e20302e0000\n        /* \"#utility.yul\":10671:10672   */\n      0x00\n        /* \"#utility.yul\":10663:10669   */\n      dup3\n        /* \"#utility.yul\":10659:10673   */\n      add\n        /* \"#utility.yul\":10652:10708   */\n      mstore\n        /* \"#utility.yul\":10535:10715   */\n      pop\n      jump\t// out\n        /* \"#utility.yul\":10721:11087   */\n    tag_204:\n        /* \"#utility.yul\":10863:10866   */\n      0x00\n        /* \"#utility.yul\":10884:10951   */\n      tag_331\n        /* \"#utility.yul\":10948:10950   */\n      0x1e\n        /* \"#utility.yul\":10943:10946   */\n      dup4\n        /* \"#utility.yul\":10884:10951   */\n      tag_179\n      jump\t// in\n    tag_331:\n        /* \"#utility.yul\":10877:10951   */\n      swap2\n      pop\n        /* \"#utility.yul\":10960:11053   */\n      tag_332\n        /* \"#utility.yul\":11049:11052   */\n      dup3\n        /* \"#utility.yul\":10960:11053   */\n      tag_203\n      jump\t// in\n    tag_332:\n        /* \"#utility.yul\":11078:11080   */\n      0x20\n        /* \"#utility.yul\":11073:11076   */\n      dup3\n        /* \"#utility.yul\":11069:11081   */\n      add\n        /* \"#utility.yul\":11062:11081   */\n      swap1\n      pop\n        /* \"#utility.yul\":10721:11087   */\n      swap2\n      swap1\n      pop\n      jump\t// out\n        /* \"#utility.yul\":11093:11512   */\n    tag_106:\n        /* \"#utility.yul\":11259:11263   */\n      0x00\n        /* \"#utility.yul\":11297:11299   */\n      0x20\n        /* \"#utility.yul\":11286:11295   */\n      dup3\n        /* \"#utility.yul\":11282:11300   */\n      add\n        /* \"#utility.yul\":11274:11300   */\n      swap1\n      pop\n        /* \"#utility.yul\":11346:11355   */\n      dup2\n        /* \"#utility.yul\":11340:11344   */\n      dup2\n        /* \"#utility.yul\":11336:11356   */\n      sub\n        /* \"#utility.yul\":11332:11333   */\n      0x00\n        /* \"#utility.yul\":11321:11330   */\n      dup4\n        /* \"#utility.yul\":11317:11334   */\n      add\n        /* \"#utility.yul\":11310:11357   */\n      mstore\n        /* \"#utility.yul\":11374:11505   */\n      tag_334\n        /* \"#utility.yul\":11500:11504   */\n      dup2\n        /* \"#utility.yul\":11374:11505   */\n      tag_204\n      jump\t// in\n    tag_334:\n        /* \"#utility.yul\":11366:11505   */\n      swap1\n      pop\n        /* \"#utility.yul\":11093:11512   */\n      swap2\n      swap1\n      pop\n      jump\t// out\n        /* \"#utility.yul\":11518:11659   */\n    tag_205:\n        /* \"#utility.yul\":11567:11571   */\n      0x00\n        /* \"#utility.yul\":11590:11593   */\n      dup2\n        /* \"#utility.yul\":11582:11593   */\n      swap1\n      pop\n        /* \"#utility.yul\":11613:11616   */\n      dup2\n        /* \"#utility.yul\":11610:11611   */\n      0x00\n        /* \"#utility.yul\":11603:11617   */\n      mstore\n        /* \"#utility.yul\":11647:11651   */\n      0x20\n        /* \"#utility.yul\":11644:11645   */\n      0x00\n        /* \"#utility.yul\":11634:11652   */\n      keccak256\n        /* \"#utility.yul\":11626:11652   */\n      swap1\n      pop\n        /* \"#utility.yul\":11518:11659   */\n      swap2\n      swap1\n      pop\n      jump\t// out\n        /* \"#utility.yul\":11665:11758   */\n    tag_206:\n        /* \"#utility.yul\":11702:11708   */\n      0x00\n        /* \"#utility.yul\":11749:11751   */\n      0x20\n        /* \"#utility.yul\":11744:11746   */\n      0x1f\n        /* \"#utility.yul\":11737:11742   */\n      dup4\n        /* \"#utility.yul\":11733:11747   */\n      add\n        /* \"#utility.yul\":11729:11752   */\n      div\n        /* \"#utility.yul\":11719:11752   */\n      swap1\n      pop\n        /* \"#utility.yul\":11665:11758   */\n      swap2\n      swap1\n      pop\n      jump\t// out\n        /* \"#utility.yul\":11764:11871   */\n    tag_207:\n        /* \"#utility.yul\":11808:11816   */\n      0x00\n        /* \"#utility.yul\":11858:11863   */\n      dup3\n        /* \"#utility.yul\":11852:11856   */\n      dup3\n        /* \"#utility.yul\":11848:11864   */\n      shl\n        /* \"#utility.yul\":11827:11864   */\n      swap1\n      pop\n        /* \"#utility.yul\":11764:11871   */\n      swap3\n      swap2\n      pop\n      pop\n      jump\t// out\n        /* \"#utility.yul\":11877:12270   */\n    tag_208:\n        /* \"#utility.yul\":11946:11952   */\n      0x00\n        /* \"#utility.yul\":11996:11997   */\n      0x08\n        /* \"#utility.yul\":11984:11994   */\n      dup4\n        /* \"#utility.yul\":11980:11998   */\n      mul\n        /* \"#utility.yul\":12019:12116   */\n      tag_339\n        /* \"#utility.yul\":12049:12115   */\n      0xffffffffffffffffffffffffffffffffffffffffffffffffffffffffffffffff\n        /* \"#utility.yul\":12038:12047   */\n      dup3\n        /* \"#utility.yul\":12019:12116   */\n      tag_207\n      jump\t// in\n    tag_339:\n        /* \"#utility.yul\":12137:12176   */\n      tag_340\n        /* \"#utility.yul\":12167:12175   */\n      dup7\n        /* \"#utility.yul\":12156:12165   */\n      dup4\n        /* \"#utility.yul\":12137:12176   */\n      tag_207\n      jump\t// in\n    tag_340:\n        /* \"#utility.yul\":12125:12176   */\n      swap6\n      pop\n        /* \"#utility.yul\":12209:12213   */\n      dup1\n        /* \"#utility.yul\":12205:12214   */\n      not\n        /* \"#utility.yul\":12198:12203   */\n      dup5\n        /* \"#utility.yul\":12194:12215   */\n      and\n        /* \"#utility.yul\":12185:12215   */\n      swap4\n      pop\n        /* \"#utility.yul\":12258:12262   */\n      dup1\n        /* \"#utility.yul\":12248:12256   */\n      dup7\n        /* \"#utility.yul\":12244:12263   */\n      and\n        /* \"#utility.yul\":12237:12242   */\n      dup5\n        /* \"#utility.yul\":12234:12264   */\n      or\n        /* \"#utility.yul\":12224:12264   */\n      swap3\n      pop\n        /* \"#utility.yul\":11953:12270   */\n      pop\n      pop\n        /* \"#utility.yul\":11877:12270   */\n      swap4\n      swap3\n      pop\n      pop\n      pop\n      jump\t// out\n        /* \"#utility.yul\":12276:12336   */\n    tag_209:\n        /* \"#utility.yul\":12304:12307   */\n      0x00\n        /* \"#utility.yul\":12325:12330   */\n      dup2\n        /* \"#utility.yul\":12318:12330   */\n      swap1\n      pop\n        /* \"#utility.yul\":12276:12336   */\n      swap2\n      swap1\n      pop\n      jump\t// out\n        /* \"#utility.yul\":12342:12484   */\n    tag_210:\n        /* \"#utility.yul\":12392:12401   */\n      0x00\n        /* \"#utility.yul\":12425:12478   */\n      tag_343\n        /* \"#utility.yul\":12443:12477   */\n      tag_344\n        /* \"#utility.yul\":12452:12476   */\n      tag_345\n        /* \"#utility.yul\":12470:12475   */\n      dup5\n        /* \"#utility.yul\":12452:12476   */\n      tag_175\n      jump\t// in\n    tag_345:\n        /* \"#utility.yul\":12443:12477   */\n      tag_209\n      jump\t// in\n    tag_344:\n        /* \"#utility.yul\":12425:12478   */\n      tag_175\n      jump\t// in\n    tag_343:\n        /* \"#utility.yul\":12412:12478   */\n      swap1\n      pop\n        /* \"#utility.yul\":12342:12484   */\n      swap2\n      swap1\n      pop\n      jump\t// out\n        /* \"#utility.yul\":12490:12565   */\n    tag_211:\n        /* \"#utility.yul\":12533:12536   */\n      0x00\n        /* \"#utility.yul\":12554:12559   */\n      dup2\n        /* \"#utility.yul\":12547:12559   */\n      swap1\n      pop\n        /* \"#utility.yul\":12490:12565   */\n      swap2\n      swap1\n      pop\n      jump\t// out\n        /* \"#utility.yul\":12571:12840   */\n    tag_212:\n        /* \"#utility.yul\":12681:12720   */\n      tag_348\n        /* \"#utility.yul\":12712:12719   */\n      dup4\n        /* \"#utility.yul\":12681:12720   */\n      tag_210\n      jump\t// in\n    tag_348:\n        /* \"#utility.yul\":12742:12833   */\n      tag_349\n        /* \"#utility.yul\":12791:12832   */\n      tag_350\n        /* \"#utility.yul\":12815:12831   */\n      dup3\n        /* \"#utility.yul\":12791:12832   */\n      tag_211\n      jump\t// in\n    tag_350:\n        /* \"#utility.yul\":12783:12789   */\n      dup5\n        /* \"#utility.yul\":12776:12780   */\n      dup5\n        /* \"#utility.yul\":12770:12781   */\n      sload\n        /* \"#utility.yul\":12742:12833   */\n      tag_208\n      jump\t// in\n    tag_349:\n        /* \"#utility.yul\":12736:12740   */\n      dup3\n        /* \"#utility.yul\":12729:12834   */\n      sstore\n        /* \"#utility.yul\":12647:12840   */\n      pop\n        /* \"#utility.yul\":12571:12840   */\n      pop\n      pop\n      pop\n      jump\t// out\n        /* \"#utility.yul\":12846:12919   */\n    tag_213:\n        /* \"#utility.yul\":12891:12894   */\n      0x00\n        /* \"#utility.yul\":12912:12913   */\n      0x00\n        /* \"#utility.yul\":12905:12913   */\n      swap1\n      pop\n        /* \"#utility.yul\":12846:12919   */\n      swap1\n      jump\t// out\n        /* \"#utility.yul\":12925:13114   */\n    tag_214:\n        /* \"#utility.yul\":13002:13034   */\n      tag_353\n      tag_213\n      jump\t// in\n    tag_353:\n        /* \"#utility.yul\":13043:13108   */\n      tag_354\n        /* \"#utility.yul\":13101:13107   */\n      dup2\n        /* \"#utility.yul\":13093:13099   */\n      dup5\n        /* \"#utility.yul\":13087:13091   */\n      dup5\n        /* \"#utility.yul\":13043:13108   */\n      tag_212\n      jump\t// in\n    tag_354:\n        /* \"#utility.yul\":12978:13114   */\n      pop\n        /* \"#utility.yul\":12925:13114   */\n      pop\n      pop\n      jump\t// out\n        /* \"#utility.yul\":13120:13306   */\n    tag_215:\n        /* \"#utility.yul\":13180:13300   */\n    tag_356:\n        /* \"#utility.yul\":13197:13200   */\n      dup2\n        /* \"#utility.yul\":13190:13195   */\n      dup2\n        /* \"#utility.yul\":13187:13201   */\n      lt\n        /* \"#utility.yul\":13180:13300   */\n      iszero\n      tag_358\n      jumpi\n        /* \"#utility.yul\":13251:13290   */\n      tag_359\n        /* \"#utility.yul\":13288:13289   */\n      0x00\n        /* \"#utility.yul\":13281:13286   */\n      dup3\n        /* \"#utility.yul\":13251:13290   */\n      tag_214\n      jump\t// in\n    tag_359:\n        /* \"#utility.yul\":13224:13225   */\n      0x01\n        /* \"#utility.yul\":13217:13222   */\n      dup2\n        /* \"#utility.yul\":13213:13226   */\n      add\n        /* \"#utility.yul\":13204:13226   */\n      swap1\n      pop\n        /* \"#utility.yul\":13180:13300   */\n      jump(tag_356)\n    tag_358:\n        /* \"#utility.yul\":13120:13306   */\n      pop\n      pop\n      jump\t// out\n        /* \"#utility.yul\":13312:13855   */\n    tag_216:\n        /* \"#utility.yul\":13413:13415   */\n      0x1f\n        /* \"#utility.yul\":13408:13411   */\n      dup3\n        /* \"#utility.yul\":13405:13416   */\n      gt\n        /* \"#utility.yul\":13402:13848   */\n      iszero\n      tag_361\n      jumpi\n        /* \"#utility.yul\":13447:13485   */\n      tag_362\n        /* \"#utility.yul\":13479:13484   */\n      dup2\n        /* \"#utility.yul\":13447:13485   */\n      tag_205\n      jump\t// in\n    tag_362:\n        /* \"#utility.yul\":13531:13560   */\n      tag_363\n        /* \"#utility.yul\":13549:13559   */\n      dup5\n        /* \"#utility.yul\":13531:13560   */\n      tag_206\n      jump\t// in\n    tag_363:\n        /* \"#utility.yul\":13521:13529   */\n      dup2\n        /* \"#utility.yul\":13517:13561   */\n      add\n        /* \"#utility.yul\":13714:13716   */\n      0x20\n        /* \"#utility.yul\":13702:13712   */\n      dup6\n        /* \"#utility.yul\":13699:13717   */\n      lt\n        /* \"#utility.yul\":13696:13745   */\n      iszero\n      tag_364\n      jumpi\n        /* \"#utility.yul\":13735:13743   */\n      dup2\n        /* \"#utility.yul\":13720:13743   */\n      swap1\n      pop\n        /* \"#utility.yul\":13696:13745   */\n    tag_364:\n        /* \"#utility.yul\":13758:13838   */\n      tag_365\n        /* \"#utility.yul\":13814:13836   */\n      tag_366\n        /* \"#utility.yul\":13832:13835   */\n      dup6\n        /* \"#utility.yul\":13814:13836   */\n      tag_206\n      jump\t// in\n    tag_366:\n        /* \"#utility.yul\":13804:13812   */\n      dup4\n        /* \"#utility.yul\":13800:13837   */\n      add\n        /* \"#utility.yul\":13787:13798   */\n      dup3\n        /* \"#utility.yul\":13758:13838   */\n      tag_215\n      jump\t// in\n    tag_365:\n        /* \"#utility.yul\":13417:13848   */\n      pop\n      pop\n        /* \"#utility.yul\":13402:13848   */\n    tag_361:\n        /* \"#utility.yul\":13312:13855   */\n      pop\n      pop\n      pop\n      jump\t// out\n        /* \"#utility.yul\":13861:13978   */\n    tag_217:\n        /* \"#utility.yul\":13915:13923   */\n      0x00\n        /* \"#utility.yul\":13965:13970   */\n      dup3\n        /* \"#utility.yul\":13959:13963   */\n      dup3\n        /* \"#utility.yul\":13955:13971   */\n      shr\n        /* \"#utility.yul\":13934:13971   */\n      swap1\n      pop\n        /* \"#utility.yul\":13861:13978   */\n      swap3\n      swap2\n      pop\n      pop\n      jump\t// out\n        /* \"#utility.yul\":13984:14153   */\n    tag_218:\n        /* \"#utility.yul\":14028:14034   */\n      0x00\n        /* \"#utility.yul\":14061:14112   */\n      tag_369\n        /* \"#utility.yul\":14109:14110   */\n      0x00\n        /* \"#utility.yul\":14105:14111   */\n      not\n        /* \"#utility.yul\":14097:14102   */\n      dup5\n        /* \"#utility.yul\":14094:14095   */\n      0x08\n        /* \"#utility.yul\":14090:14103   */\n      mul\n        /* \"#utility.yul\":14061:14112   */\n      tag_217\n      jump\t// in\n    tag_369:\n        /* \"#utility.yul\":14057:14113   */\n      not\n        /* \"#utility.yul\":14142:14146   */\n      dup1\n        /* \"#utility.yul\":14136:14140   */\n      dup4\n        /* \"#utility.yul\":14132:14147   */\n      and\n        /* \"#utility.yul\":14122:14147   */\n      swap2\n      pop\n        /* \"#utility.yul\":14035:14153   */\n      pop\n        /* \"#utility.yul\":13984:14153   */\n      swap3\n      swap2\n      pop\n      pop\n      jump\t// out\n        /* \"#utility.yul\":14158:14453   */\n    tag_219:\n        /* \"#utility.yul\":14234:14238   */\n      0x00\n        /* \"#utility.yul\":14380:14409   */\n      tag_371\n        /* \"#utility.yul\":14405:14408   */\n      dup4\n        /* \"#utility.yul\":14399:14403   */\n      dup4\n        /* \"#utility.yul\":14380:14409   */\n      tag_218\n      jump\t// in\n    tag_371:\n        /* \"#utility.yul\":14372:14409   */\n      swap2\n      pop\n        /* \"#utility.yul\":14442:14445   */\n      dup3\n        /* \"#utility.yul\":14439:14440   */\n      0x02\n        /* \"#utility.yul\":14435:14446   */\n      mul\n        /* \"#utility.yul\":14429:14433   */\n      dup3\n        /* \"#utility.yul\":14426:14447   */\n      or\n        /* \"#utility.yul\":14418:14447   */\n      swap1\n      pop\n        /* \"#utility.yul\":14158:14453   */\n      swap3\n      swap2\n      pop\n      pop\n      jump\t// out\n        /* \"#utility.yul\":14458:15853   */\n    tag_109:\n        /* \"#utility.yul\":14575:14612   */\n      tag_373\n        /* \"#utility.yul\":14608:14611   */\n      dup3\n        /* \"#utility.yul\":14575:14612   */\n      tag_178\n      jump\t// in\n    tag_373:\n        /* \"#utility.yul\":14677:14695   */\n      0xffffffffffffffff\n        /* \"#utility.yul\":14669:14675   */\n      dup2\n        /* \"#utility.yul\":14666:14696   */\n      gt\n        /* \"#utility.yul\":14663:14719   */\n      iszero\n      tag_374\n      jumpi\n        /* \"#utility.yul\":14699:14717   */\n      tag_375\n      tag_186\n      jump\t// in\n    tag_375:\n        /* \"#utility.yul\":14663:14719   */\n    tag_374:\n        /* \"#utility.yul\":14743:14781   */\n      tag_376\n        /* \"#utility.yul\":14775:14779   */\n      dup3\n        /* \"#utility.yul\":14769:14780   */\n      sload\n        /* \"#utility.yul\":14743:14781   */\n      tag_71\n      jump\t// in\n    tag_376:\n        /* \"#utility.yul\":14828:14895   */\n      tag_377\n        /* \"#utility.yul\":14888:14894   */\n      dup3\n        /* \"#utility.yul\":14880:14886   */\n      dup3\n        /* \"#utility.yul\":14874:14878   */\n      dup6\n        /* \"#utility.yul\":14828:14895   */\n      tag_216\n      jump\t// in\n    tag_377:\n        /* \"#utility.yul\":14922:14923   */\n      0x00\n        /* \"#utility.yul\":14946:14950   */\n      0x20\n        /* \"#utility.yul\":14933:14950   */\n      swap1\n      pop\n        /* \"#utility.yul\":14978:14980   */\n      0x1f\n        /* \"#utility.yul\":14970:14976   */\n      dup4\n        /* \"#utility.yul\":14967:14981   */\n      gt\n        /* \"#utility.yul\":14995:14996   */\n      0x01\n        /* \"#utility.yul\":14990:15608   */\n      dup2\n      eq\n      tag_379\n      jumpi\n        /* \"#utility.yul\":15652:15653   */\n      0x00\n        /* \"#utility.yul\":15669:15675   */\n      dup5\n        /* \"#utility.yul\":15666:15743   */\n      iszero\n      tag_380\n      jumpi\n        /* \"#utility.yul\":15718:15727   */\n      dup3\n        /* \"#utility.yul\":15713:15716   */\n      dup8\n        /* \"#utility.yul\":15709:15728   */\n      add\n        /* \"#utility.yul\":15703:15729   */\n      mload\n        /* \"#utility.yul\":15694:15729   */\n      swap1\n      pop\n        /* \"#utility.yul\":15666:15743   */\n    tag_380:\n        /* \"#utility.yul\":15769:15836   */\n      tag_381\n        /* \"#utility.yul\":15829:15835   */\n      dup6\n        /* \"#utility.yul\":15822:15827   */\n      dup3\n        /* \"#utility.yul\":15769:15836   */\n      tag_219\n      jump\t// in\n    tag_381:\n        /* \"#utility.yul\":15763:15767   */\n      dup7\n        /* \"#utility.yul\":15756:15837   */\n      sstore\n        /* \"#utility.yul\":15625:15847   */\n      pop\n        /* \"#utility.yul\":14960:15847   */\n      jump(tag_378)\n        /* \"#utility.yul\":14990:15608   */\n    tag_379:\n        /* \"#utility.yul\":15042:15046   */\n      0x1f\n        /* \"#utility.yul\":15038:15047   */\n      not\n        /* \"#utility.yul\":15030:15036   */\n      dup5\n        /* \"#utility.yul\":15026:15048   */\n      and\n        /* \"#utility.yul\":15076:15113   */\n      tag_382\n        /* \"#utility.yul\":15108:15112   */\n      dup7\n        /* \"#utility.yul\":15076:15113   */\n      tag_205\n      jump\t// in\n    tag_382:\n        /* \"#utility.yul\":15135:15136   */\n      0x00\n        /* \"#utility.yul\":15149:15357   */\n    tag_383:\n        /* \"#utility.yul\":15163:15170   */\n      dup3\n        /* \"#utility.yul\":15160:15161   */\n      dup2\n        /* \"#utility.yul\":15157:15171   */\n      lt\n        /* \"#utility.yul\":15149:15357   */\n      iszero\n      tag_385\n      jumpi\n        /* \"#utility.yul\":15242:15251   */\n      dup5\n        /* \"#utility.yul\":15237:15240   */\n      dup10\n        /* \"#utility.yul\":15233:15252   */\n      add\n        /* \"#utility.yul\":15227:15253   */\n      mload\n        /* \"#utility.yul\":15219:15225   */\n      dup3\n        /* \"#utility.yul\":15212:15254   */\n      sstore\n        /* \"#utility.yul\":15293:15294   */\n      0x01\n        /* \"#utility.yul\":15285:15291   */\n      dup3\n        /* \"#utility.yul\":15281:15295   */\n      add\n        /* \"#utility.yul\":15271:15295   */\n      swap2\n      pop\n        /* \"#utility.yul\":15340:15342   */\n      0x20\n        /* \"#utility.yul\":15329:15338   */\n      dup6\n        /* \"#utility.yul\":15325:15343   */\n      add\n        /* \"#utility.yul\":15312:15343   */\n      swap5\n      pop\n        /* \"#utility.yul\":15186:15190   */\n      0x20\n        /* \"#utility.yul\":15183:15184   */\n      dup2\n        /* \"#utility.yul\":15179:15191   */\n      add\n        /* \"#utility.yul\":15174:15191   */\n      swap1\n      pop\n        /* \"#utility.yul\":15149:15357   */\n      jump(tag_383)\n    tag_385:\n        /* \"#utility.yul\":15385:15391   */\n      dup7\n        /* \"#utility.yul\":15376:15383   */\n      dup4\n        /* \"#utility.yul\":15373:15392   */\n      lt\n        /* \"#utility.yul\":15370:15549   */\n      iszero\n      tag_386\n      jumpi\n        /* \"#utility.yul\":15443:15452   */\n      dup5\n        /* \"#utility.yul\":15438:15441   */\n      dup10\n        /* \"#utility.yul\":15434:15453   */\n      add\n        /* \"#utility.yul\":15428:15454   */\n      mload\n        /* \"#utility.yul\":15486:15534   */\n      tag_387\n        /* \"#utility.yul\":15528:15532   */\n      0x1f\n        /* \"#utility.yul\":15520:15526   */\n      dup10\n        /* \"#utility.yul\":15516:15533   */\n      and\n        /* \"#utility.yul\":15505:15514   */\n      dup3\n        /* \"#utility.yul\":15486:15534   */\n      tag_218\n      jump\t// in\n    tag_387:\n        /* \"#utility.yul\":15478:15484   */\n      dup4\n        /* \"#utility.yul\":15471:15535   */\n      sstore\n        /* \"#utility.yul\":15393:15549   */\n      pop\n        /* \"#utility.yul\":15370:15549   */\n    tag_386:\n        /* \"#utility.yul\":15595:15596   */\n      0x01\n        /* \"#utility.yul\":15591:15592   */\n      0x02\n        /* \"#utility.yul\":15583:15589   */\n      dup9\n        /* \"#utility.yul\":15579:15593   */\n      mul\n        /* \"#utility.yul\":15575:15597   */\n      add\n        /* \"#utility.yul\":15569:15573   */\n      dup9\n        /* \"#utility.yul\":15562:15598   */\n      sstore\n        /* \"#utility.yul\":14997:15608   */\n      pop\n      pop\n      pop\n        /* \"#utility.yul\":14960:15847   */\n    tag_378:\n      pop\n        /* \"#utility.yul\":14550:15853   */\n      pop\n      pop\n      pop\n        /* \"#utility.yul\":14458:15853   */\n      pop\n      pop\n      jump\t// out\n        /* \"#utility.yul\":15859:16029   */\n    tag_220:\n        /* \"#utility.yul\":15999:16021   */\n      0x5469657220646f6573206e6f742065786973742e000000000000000000000000\n        /* \"#utility.yul\":15995:15996   */\n      0x00\n        /* \"#utility.yul\":15987:15993   */\n      dup3\n        /* \"#utility.yul\":15983:15997   */\n      add\n        /* \"#utility.yul\":15976:16022   */\n      mstore\n        /* \"#utility.yul\":15859:16029   */\n      pop\n      jump\t// out\n        /* \"#utility.yul\":16035:16401   */\n    tag_221:\n        /* \"#utility.yul\":16177:16180   */\n      0x00\n        /* \"#utility.yul\":16198:16265   */\n      tag_390\n        /* \"#utility.yul\":16262:16264   */\n      0x14\n        /* \"#utility.yul\":16257:16260   */\n      dup4\n        /* \"#utility.yul\":16198:16265   */\n      tag_179\n      jump\t// in\n    tag_390:\n        /* \"#utility.yul\":16191:16265   */\n      swap2\n      pop\n        /* \"#utility.yul\":16274:16367   */\n      tag_391\n        /* \"#utility.yul\":16363:16366   */\n      dup3\n        /* \"#utility.yul\":16274:16367   */\n      tag_220\n      jump\t// in\n    tag_391:\n        /* \"#utility.yul\":16392:16394   */\n      0x20\n        /* \"#utility.yul\":16387:16390   */\n      dup3\n        /* \"#utility.yul\":16383:16395   */\n      add\n        /* \"#utility.yul\":16376:16395   */\n      swap1\n      pop\n        /* \"#utility.yul\":16035:16401   */\n      swap2\n      swap1\n      pop\n      jump\t// out\n        /* \"#utility.yul\":16407:16826   */\n    tag_122:\n        /* \"#utility.yul\":16573:16577   */\n      0x00\n        /* \"#utility.yul\":16611:16613   */\n      0x20\n        /* \"#utility.yul\":16600:16609   */\n      dup3\n        /* \"#utility.yul\":16596:16614   */\n      add\n        /* \"#utility.yul\":16588:16614   */\n      swap1\n      pop\n        /* \"#utility.yul\":16660:16669   */\n      dup2\n        /* \"#utility.yul\":16654:16658   */\n      dup2\n        /* \"#utility.yul\":16650:16670   */\n      sub\n        /* \"#utility.yul\":16646:16647   */\n      0x00\n        /* \"#utility.yul\":16635:16644   */\n      dup4\n        /* \"#utility.yul\":16631:16648   */\n      add\n        /* \"#utility.yul\":16624:16671   */\n      mstore\n        /* \"#utility.yul\":16688:16819   */\n      tag_393\n        /* \"#utility.yul\":16814:16818   */\n      dup2\n        /* \"#utility.yul\":16688:16819   */\n      tag_221\n      jump\t// in\n    tag_393:\n        /* \"#utility.yul\":16680:16819   */\n      swap1\n      pop\n        /* \"#utility.yul\":16407:16826   */\n      swap2\n      swap1\n      pop\n      jump\t// out\n        /* \"#utility.yul\":16832:17012   */\n    tag_222:\n        /* \"#utility.yul\":16880:16957   */\n      0x4e487b7100000000000000000000000000000000000000000000000000000000\n        /* \"#utility.yul\":16877:16878   */\n      0x00\n        /* \"#utility.yul\":16870:16958   */\n      mstore\n        /* \"#utility.yul\":16977:16981   */\n      0x11\n        /* \"#utility.yul\":16974:16975   */\n      0x04\n        /* \"#utility.yul\":16967:16982   */\n      mstore\n        /* \"#utility.yul\":17001:17005   */\n      0x24\n        /* \"#utility.yul\":16998:16999   */\n      0x00\n        /* \"#utility.yul\":16991:17006   */\n      revert\n        /* \"#utility.yul\":17018:17212   */\n    tag_124:\n        /* \"#utility.yul\":17058:17062   */\n      0x00\n        /* \"#utility.yul\":17078:17098   */\n      tag_396\n        /* \"#utility.yul\":17096:17097   */\n      dup3\n        /* \"#utility.yul\":17078:17098   */\n      tag_175\n      jump\t// in\n    tag_396:\n        /* \"#utility.yul\":17073:17098   */\n      swap2\n      pop\n        /* \"#utility.yul\":17112:17132   */\n      tag_397\n        /* \"#utility.yul\":17130:17131   */\n      dup4\n        /* \"#utility.yul\":17112:17132   */\n      tag_175\n      jump\t// in\n    tag_397:\n        /* \"#utility.yul\":17107:17132   */\n      swap3\n      pop\n        /* \"#utility.yul\":17156:17157   */\n      dup3\n        /* \"#utility.yul\":17153:17154   */\n      dup3\n        /* \"#utility.yul\":17149:17158   */\n      sub\n        /* \"#utility.yul\":17141:17158   */\n      swap1\n      pop\n        /* \"#utility.yul\":17180:17181   */\n      dup2\n        /* \"#utility.yul\":17174:17178   */\n      dup2\n        /* \"#utility.yul\":17171:17182   */\n      gt\n        /* \"#utility.yul\":17168:17205   */\n      iszero\n      tag_398\n      jumpi\n        /* \"#utility.yul\":17185:17203   */\n      tag_399\n      tag_222\n      jump\t// in\n    tag_399:\n        /* \"#utility.yul\":17168:17205   */\n    tag_398:\n        /* \"#utility.yul\":17018:17212   */\n      swap3\n      swap2\n      pop\n      pop\n      jump\t// out\n        /* \"#utility.yul\":17218:17398   */\n    tag_127:\n        /* \"#utility.yul\":17266:17343   */\n      0x4e487b7100000000000000000000000000000000000000000000000000000000\n        /* \"#utility.yul\":17263:17264   */\n      0x00\n        /* \"#utility.yul\":17256:17344   */\n      mstore\n        /* \"#utility.yul\":17363:17367   */\n      0x32\n        /* \"#utility.yul\":17360:17361   */\n      0x04\n        /* \"#utility.yul\":17353:17368   */\n      mstore\n        /* \"#utility.yul\":17387:17391   */\n      0x24\n        /* \"#utility.yul\":17384:17385   */\n      0x00\n        /* \"#utility.yul\":17377:17392   */\n      revert\n        /* \"#utility.yul\":17404:17553   */\n    tag_223:\n        /* \"#utility.yul\":17453:17459   */\n      0x00\n        /* \"#utility.yul\":17487:17492   */\n      dup2\n        /* \"#utility.yul\":17481:17493   */\n      sload\n        /* \"#utility.yul\":17471:17493   */\n      swap1\n      pop\n        /* \"#utility.yul\":17513:17546   */\n      tag_402\n        /* \"#utility.yul\":17539:17545   */\n      dup2\n        /* \"#utility.yul\":17513:17546   */\n      tag_71\n      jump\t// in\n    tag_402:\n        /* \"#utility.yul\":17503:17546   */\n      swap1\n      pop\n        /* \"#utility.yul\":17404:17553   */\n      swap2\n      swap1\n      pop\n      jump\t// out\n        /* \"#utility.yul\":17559:19010   */\n    tag_133:\n        /* \"#utility.yul\":17670:17673   */\n      dup2\n        /* \"#utility.yul\":17664:17668   */\n      dup2\n        /* \"#utility.yul\":17661:17674   */\n      sub\n        /* \"#utility.yul\":17658:17684   */\n      tag_404\n      jumpi\n        /* \"#utility.yul\":17677:17682   */\n      pop\n      pop\n      jump(tag_403)\n        /* \"#utility.yul\":17658:17684   */\n    tag_404:\n        /* \"#utility.yul\":17708:17742   */\n      tag_405\n        /* \"#utility.yul\":17738:17741   */\n      dup3\n        /* \"#utility.yul\":17708:17742   */\n      tag_223\n      jump\t// in\n    tag_405:\n        /* \"#utility.yul\":17807:17825   */\n      0xffffffffffffffff\n        /* \"#utility.yul\":17799:17805   */\n      dup2\n        /* \"#utility.yul\":17796:17826   */\n      gt\n        /* \"#utility.yul\":17793:17849   */\n      iszero\n      tag_406\n      jumpi\n        /* \"#utility.yul\":17829:17847   */\n      tag_407\n      tag_186\n      jump\t// in\n    tag_407:\n        /* \"#utility.yul\":17793:17849   */\n    tag_406:\n        /* \"#utility.yul\":17873:17911   */\n      tag_408\n        /* \"#utility.yul\":17905:17909   */\n      dup3\n        /* \"#utility.yul\":17899:17910   */\n      sload\n        /* \"#utility.yul\":17873:17911   */\n      tag_71\n      jump\t// in\n    tag_408:\n        /* \"#utility.yul\":17958:18025   */\n      tag_409\n        /* \"#utility.yul\":18018:18024   */\n      dup3\n        /* \"#utility.yul\":18010:18016   */\n      dup3\n        /* \"#utility.yul\":18004:18008   */\n      dup6\n        /* \"#utility.yul\":17958:18025   */\n      tag_216\n      jump\t// in\n    tag_409:\n        /* \"#utility.yul\":18052:18053   */\n      0x00\n        /* \"#utility.yul\":18081:18083   */\n      0x1f\n        /* \"#utility.yul\":18073:18079   */\n      dup4\n        /* \"#utility.yul\":18070:18084   */\n      gt\n        /* \"#utility.yul\":18098:18099   */\n      0x01\n        /* \"#utility.yul\":18093:18765   */\n      dup2\n      eq\n      tag_411\n      jumpi\n        /* \"#utility.yul\":18809:18810   */\n      0x00\n        /* \"#utility.yul\":18826:18832   */\n      dup5\n        /* \"#utility.yul\":18823:18900   */\n      iszero\n      tag_412\n      jumpi\n        /* \"#utility.yul\":18875:18884   */\n      dup3\n        /* \"#utility.yul\":18870:18873   */\n      dup8\n        /* \"#utility.yul\":18866:18885   */\n      add\n        /* \"#utility.yul\":18860:18886   */\n      sload\n        /* \"#utility.yul\":18851:18886   */\n      swap1\n      pop\n        /* \"#utility.yul\":18823:18900   */\n    tag_412:\n        /* \"#utility.yul\":18926:18993   */\n      tag_413\n        /* \"#utility.yul\":18986:18992   */\n      dup6\n        /* \"#utility.yul\":18979:18984   */\n      dup3\n        /* \"#utility.yul\":18926:18993   */\n      tag_219\n      jump\t// in\n    tag_413:\n        /* \"#utility.yul\":18920:18924   */\n      dup7\n        /* \"#utility.yul\":18913:18994   */\n      sstore\n        /* \"#utility.yul\":18782:19004   */\n      pop\n        /* \"#utility.yul\":18063:19004   */\n      jump(tag_410)\n        /* \"#utility.yul\":18093:18765   */\n    tag_411:\n        /* \"#utility.yul\":18145:18149   */\n      0x1f\n        /* \"#utility.yul\":18141:18150   */\n      not\n        /* \"#utility.yul\":18133:18139   */\n      dup5\n        /* \"#utility.yul\":18129:18151   */\n      and\n        /* \"#utility.yul\":18171:18207   */\n      tag_414\n        /* \"#utility.yul\":18203:18206   */\n      dup8\n        /* \"#utility.yul\":18171:18207   */\n      tag_205\n      jump\t// in\n    tag_414:\n        /* \"#utility.yul\":18164:18207   */\n      swap7\n      pop\n        /* \"#utility.yul\":18234:18271   */\n      tag_415\n        /* \"#utility.yul\":18266:18270   */\n      dup7\n        /* \"#utility.yul\":18234:18271   */\n      tag_205\n      jump\t// in\n    tag_415:\n        /* \"#utility.yul\":18293:18294   */\n      0x00\n        /* \"#utility.yul\":18307:18514   */\n    tag_416:\n        /* \"#utility.yul\":18321:18328   */\n      dup3\n        /* \"#utility.yul\":18318:18319   */\n      dup2\n        /* \"#utility.yul\":18315:18329   */\n      lt\n        /* \"#utility.yul\":18307:18514   */\n      iszero\n      tag_418\n      jumpi\n        /* \"#utility.yul\":18400:18409   */\n      dup5\n        /* \"#utility.yul\":18395:18398   */\n      dup10\n        /* \"#utility.yul\":18391:18410   */\n      add\n        /* \"#utility.yul\":18385:18411   */\n      sload\n        /* \"#utility.yul\":18377:18383   */\n      dup3\n        /* \"#utility.yul\":18370:18412   */\n      sstore\n        /* \"#utility.yul\":18451:18452   */\n      0x01\n        /* \"#utility.yul\":18443:18449   */\n      dup3\n        /* \"#utility.yul\":18439:18453   */\n      add\n        /* \"#utility.yul\":18429:18453   */\n      swap2\n      pop\n        /* \"#utility.yul\":18498:18499   */\n      0x01\n        /* \"#utility.yul\":18487:18496   */\n      dup6\n        /* \"#utility.yul\":18483:18500   */\n      add\n        /* \"#utility.yul\":18470:18500   */\n      swap5\n      pop\n        /* \"#utility.yul\":18344:18348   */\n      0x20\n        /* \"#utility.yul\":18341:18342   */\n      dup2\n        /* \"#utility.yul\":18337:18349   */\n      add\n        /* \"#utility.yul\":18332:18349   */\n      swap1\n      pop\n        /* \"#utility.yul\":18307:18514   */\n      jump(tag_416)\n    tag_418:\n        /* \"#utility.yul\":18542:18548   */\n      dup7\n        /* \"#utility.yul\":18533:18540   */\n      dup4\n        /* \"#utility.yul\":18530:18549   */\n      lt\n        /* \"#utility.yul\":18527:18706   */\n      iszero\n      tag_419\n      jumpi\n        /* \"#utility.yul\":18600:18609   */\n      dup5\n        /* \"#utility.yul\":18595:18598   */\n      dup10\n        /* \"#utility.yul\":18591:18610   */\n      add\n        /* \"#utility.yul\":18585:18611   */\n      sload\n        /* \"#utility.yul\":18643:18691   */\n      tag_420\n        /* \"#utility.yul\":18685:18689   */\n      0x1f\n        /* \"#utility.yul\":18677:18683   */\n      dup10\n        /* \"#utility.yul\":18673:18690   */\n      and\n        /* \"#utility.yul\":18662:18671   */\n      dup3\n        /* \"#utility.yul\":18643:18691   */\n      tag_218\n      jump\t// in\n    tag_420:\n        /* \"#utility.yul\":18635:18641   */\n      dup4\n        /* \"#utility.yul\":18628:18692   */\n      sstore\n        /* \"#utility.yul\":18550:18706   */\n      pop\n        /* \"#utility.yul\":18527:18706   */\n    tag_419:\n        /* \"#utility.yul\":18752:18753   */\n      0x01\n        /* \"#utility.yul\":18748:18749   */\n      0x02\n        /* \"#utility.yul\":18740:18746   */\n      dup9\n        /* \"#utility.yul\":18736:18750   */\n      mul\n        /* \"#utility.yul\":18732:18754   */\n      add\n        /* \"#utility.yul\":18726:18730   */\n      dup9\n        /* \"#utility.yul\":18719:18755   */\n      sstore\n        /* \"#utility.yul\":18100:18765   */\n      pop\n      pop\n      pop\n        /* \"#utility.yul\":18063:19004   */\n    tag_410:\n      pop\n        /* \"#utility.yul\":17648:19010   */\n      pop\n      pop\n      pop\n        /* \"#utility.yul\":17559:19010   */\n      pop\n      pop\n    tag_403:\n      jump\t// out\n        /* \"#utility.yul\":19016:19196   */\n    tag_137:\n        /* \"#utility.yul\":19064:19141   */\n      0x4e487b7100000000000000000000000000000000000000000000000000000000\n        /* \"#utility.yul\":19061:19062   */\n      0x00\n        /* \"#utility.yul\":19054:19142   */\n      mstore\n        /* \"#utility.yul\":19161:19165   */\n      0x31\n        /* \"#utility.yul\":19158:19159   */\n      0x04\n        /* \"#utility.yul\":19151:19166   */\n      mstore\n        /* \"#utility.yul\":19185:19189   */\n      0x24\n        /* \"#utility.yul\":19182:19183   */\n      0x00\n        /* \"#utility.yul\":19175:19190   */\n      revert\n        /* \"#utility.yul\":19202:19376   */\n    tag_224:\n        /* \"#utility.yul\":19342:19368   */\n      0x546869732063616d706169676e2068617320656e6465642e0000000000000000\n        /* \"#utility.yul\":19338:19339   */\n      0x00\n        /* \"#utility.yul\":19330:19336   */\n      dup3\n        /* \"#utility.yul\":19326:19340   */\n      add\n        /* \"#utility.yul\":19319:19369   */\n      mstore\n        /* \"#utility.yul\":19202:19376   */\n      pop\n      jump\t// out\n        /* \"#utility.yul\":19382:19748   */\n    tag_225:\n        /* \"#utility.yul\":19524:19527   */\n      0x00\n        /* \"#utility.yul\":19545:19612   */\n      tag_424\n        /* \"#utility.yul\":19609:19611   */\n      0x18\n        /* \"#utility.yul\":19604:19607   */\n      dup4\n        /* \"#utility.yul\":19545:19612   */\n      tag_179\n      jump\t// in\n    tag_424:\n        /* \"#utility.yul\":19538:19612   */\n      swap2\n      pop\n        /* \"#utility.yul\":19621:19714   */\n      tag_425\n        /* \"#utility.yul\":19710:19713   */\n      dup3\n        /* \"#utility.yul\":19621:19714   */\n      tag_224\n      jump\t// in\n    tag_425:\n        /* \"#utility.yul\":19739:19741   */\n      0x20\n        /* \"#utility.yul\":19734:19737   */\n      dup3\n        /* \"#utility.yul\":19730:19742   */\n      add\n        /* \"#utility.yul\":19723:19742   */\n      swap1\n      pop\n        /* \"#utility.yul\":19382:19748   */\n      swap2\n      swap1\n      pop\n      jump\t// out\n        /* \"#utility.yul\":19754:20173   */\n    tag_145:\n        /* \"#utility.yul\":19920:19924   */\n      0x00\n        /* \"#utility.yul\":19958:19960   */\n      0x20\n        /* \"#utility.yul\":19947:19956   */\n      dup3\n        /* \"#utility.yul\":19943:19961   */\n      add\n        /* \"#utility.yul\":19935:19961   */\n      swap1\n      pop\n        /* \"#utility.yul\":20007:20016   */\n      dup2\n        /* \"#utility.yul\":20001:20005   */\n      dup2\n        /* \"#utility.yul\":19997:20017   */\n      sub\n        /* \"#utility.yul\":19993:19994   */\n      0x00\n        /* \"#utility.yul\":19982:19991   */\n      dup4\n        /* \"#utility.yul\":19978:19995   */\n      add\n        /* \"#utility.yul\":19971:20018   */\n      mstore\n        /* \"#utility.yul\":20035:20166   */\n      tag_427\n        /* \"#utility.yul\":20161:20165   */\n      dup2\n        /* \"#utility.yul\":20035:20166   */\n      tag_225\n      jump\t// in\n    tag_427:\n        /* \"#utility.yul\":20027:20166   */\n      swap1\n      pop\n        /* \"#utility.yul\":19754:20173   */\n      swap2\n      swap1\n      pop\n      jump\t// out\n        /* \"#utility.yul\":20179:20342   */\n    tag_226:\n        /* \"#utility.yul\":20319:20334   */\n      0x496e76616c696420746965722e00000000000000000000000000000000000000\n        /* \"#utility.yul\":20315:20316   */\n      0x00\n        /* \"#utility.yul\":20307:20313   */\n      dup3\n        /* \"#utility.yul\":20303:20317   */\n      add\n        /* \"#utility.yul\":20296:20335   */\n      mstore\n        /* \"#utility.yul\":20179:20342   */\n      pop\n      jump\t// out\n        /* \"#utility.yul\":20348:20714   */\n    tag_227:\n        /* \"#utility.yul\":20490:20493   */\n      0x00\n        /* \"#utility.yul\":20511:20578   */\n      tag_430\n        /* \"#utility.yul\":20575:20577   */\n      0x0d\n        /* \"#utility.yul\":20570:20573   */\n      dup4\n        /* \"#utility.yul\":20511:20578   */\n      tag_179\n      jump\t// in\n    tag_430:\n        /* \"#utility.yul\":20504:20578   */\n      swap2\n      pop\n        /* \"#utility.yul\":20587:20680   */\n      tag_431\n        /* \"#utility.yul\":20676:20679   */\n      dup3\n        /* \"#utility.yul\":20587:20680   */\n      tag_226\n      jump\t// in\n    tag_431:\n        /* \"#utility.yul\":20705:20707   */\n      0x20\n        /* \"#utility.yul\":20700:20703   */\n      dup3\n        /* \"#utility.yul\":20696:20708   */\n      add\n        /* \"#utility.yul\":20689:20708   */\n      swap1\n      pop\n        /* \"#utility.yul\":20348:20714   */\n      swap2\n      swap1\n      pop\n      jump\t// out\n        /* \"#utility.yul\":20720:21139   */\n    tag_148:\n        /* \"#utility.yul\":20886:20890   */\n      0x00\n        /* \"#utility.yul\":20924:20926   */\n      0x20\n        /* \"#utility.yul\":20913:20922   */\n      dup3\n        /* \"#utility.yul\":20909:20927   */\n      add\n        /* \"#utility.yul\":20901:20927   */\n      swap1\n      pop\n        /* \"#utility.yul\":20973:20982   */\n      dup2\n        /* \"#utility.yul\":20967:20971   */\n      dup2\n        /* \"#utility.yul\":20963:20983   */\n      sub\n        /* \"#utility.yul\":20959:20960   */\n      0x00\n        /* \"#utility.yul\":20948:20957   */\n      dup4\n        /* \"#utility.yul\":20944:20961   */\n      add\n        /* \"#utility.yul\":20937:20984   */\n      mstore\n        /* \"#utility.yul\":21001:21132   */\n      tag_433\n        /* \"#utility.yul\":21127:21131   */\n      dup2\n        /* \"#utility.yul\":21001:21132   */\n      tag_227\n      jump\t// in\n    tag_433:\n        /* \"#utility.yul\":20993:21132   */\n      swap1\n      pop\n        /* \"#utility.yul\":20720:21139   */\n      swap2\n      swap1\n      pop\n      jump\t// out\n        /* \"#utility.yul\":21145:21312   */\n    tag_228:\n        /* \"#utility.yul\":21285:21304   */\n      0x496e636f727265637420616d6f756e742e000000000000000000000000000000\n        /* \"#utility.yul\":21281:21282   */\n      0x00\n        /* \"#utility.yul\":21273:21279   */\n      dup3\n        /* \"#utility.yul\":21269:21283   */\n      add\n        /* \"#utility.yul\":21262:21305   */\n      mstore\n        /* \"#utility.yul\":21145:21312   */\n      pop\n      jump\t// out\n        /* \"#utility.yul\":21318:21684   */\n    tag_229:\n        /* \"#utility.yul\":21460:21463   */\n      0x00\n        /* \"#utility.yul\":21481:21548   */\n      tag_436\n        /* \"#utility.yul\":21545:21547   */\n      0x11\n        /* \"#utility.yul\":21540:21543   */\n      dup4\n        /* \"#utility.yul\":21481:21548   */\n      tag_179\n      jump\t// in\n    tag_436:\n        /* \"#utility.yul\":21474:21548   */\n      swap2\n      pop\n        /* \"#utility.yul\":21557:21650   */\n      tag_437\n        /* \"#utility.yul\":21646:21649   */\n      dup3\n        /* \"#utility.yul\":21557:21650   */\n      tag_228\n      jump\t// in\n    tag_437:\n        /* \"#utility.yul\":21675:21677   */\n      0x20\n        /* \"#utility.yul\":21670:21673   */\n      dup3\n        /* \"#utility.yul\":21666:21678   */\n      add\n        /* \"#utility.yul\":21659:21678   */\n      swap1\n      pop\n        /* \"#utility.yul\":21318:21684   */\n      swap2\n      swap1\n      pop\n      jump\t// out\n        /* \"#utility.yul\":21690:22109   */\n    tag_154:\n        /* \"#utility.yul\":21856:21860   */\n      0x00\n        /* \"#utility.yul\":21894:21896   */\n      0x20\n        /* \"#utility.yul\":21883:21892   */\n      dup3\n        /* \"#utility.yul\":21879:21897   */\n      add\n        /* \"#utility.yul\":21871:21897   */\n      swap1\n      pop\n        /* \"#utility.yul\":21943:21952   */\n      dup2\n        /* \"#utility.yul\":21937:21941   */\n      dup2\n        /* \"#utility.yul\":21933:21953   */\n      sub\n        /* \"#utility.yul\":21929:21930   */\n      0x00\n        /* \"#utility.yul\":21918:21927   */\n      dup4\n        /* \"#utility.yul\":21914:21931   */\n      add\n        /* \"#utility.yul\":21907:21954   */\n      mstore\n        /* \"#utility.yul\":21971:22102   */\n      tag_439\n        /* \"#utility.yul\":22097:22101   */\n      dup2\n        /* \"#utility.yul\":21971:22102   */\n      tag_229\n      jump\t// in\n    tag_439:\n        /* \"#utility.yul\":21963:22102   */\n      swap1\n      pop\n        /* \"#utility.yul\":21690:22109   */\n      swap2\n      swap1\n      pop\n      jump\t// out\n        /* \"#utility.yul\":22115:22348   */\n    tag_159:\n        /* \"#utility.yul\":22154:22157   */\n      0x00\n        /* \"#utility.yul\":22177:22201   */\n      tag_441\n        /* \"#utility.yul\":22195:22200   */\n      dup3\n        /* \"#utility.yul\":22177:22201   */\n      tag_175\n      jump\t// in\n    tag_441:\n        /* \"#utility.yul\":22168:22201   */\n      swap2\n      pop\n        /* \"#utility.yul\":22223:22289   */\n      0xffffffffffffffffffffffffffffffffffffffffffffffffffffffffffffffff\n        /* \"#utility.yul\":22216:22221   */\n      dup3\n        /* \"#utility.yul\":22213:22290   */\n      sub\n        /* \"#utility.yul\":22210:22313   */\n      tag_442\n      jumpi\n        /* \"#utility.yul\":22293:22311   */\n      tag_443\n      tag_222\n      jump\t// in\n    tag_443:\n        /* \"#utility.yul\":22210:22313   */\n    tag_442:\n        /* \"#utility.yul\":22340:22341   */\n      0x01\n        /* \"#utility.yul\":22333:22338   */\n      dup3\n        /* \"#utility.yul\":22329:22342   */\n      add\n        /* \"#utility.yul\":22322:22342   */\n      swap1\n      pop\n        /* \"#utility.yul\":22115:22348   */\n      swap2\n      swap1\n      pop\n      jump\t// out\n\n    auxdata: 0xa264697066735822122060cfb84d13438f7f8465b5559c1e7e0aff1c5193fbae6852ce78a7f2b558608064736f6c634300081e0033\n}\n",
				"bytecode": {
					"linkReferences": {},
					"object": "608060405234801561000f575f5ffd5b50604051611e5b380380611e5b83398181016040528101906100319190610251565b845f908161003f9190610523565b50836001908161004f9190610523565b50826002908161005f9190610523565b50816003819055506201518081610076919061061f565b426100819190610660565b6004819055503360055f6101000a81548173ffffffffffffffffffffffffffffffffffffffff021916908373ffffffffffffffffffffffffffffffffffffffff1602179055505050505050610693565b5f604051905090565b5f5ffd5b5f5ffd5b5f5ffd5b5f5ffd5b5f601f19601f8301169050919050565b7f4e487b71000000000000000000000000000000000000000000000000000000005f52604160045260245ffd5b610130826100ea565b810181811067ffffffffffffffff8211171561014f5761014e6100fa565b5b80604052505050565b5f6101616100d1565b905061016d8282610127565b919050565b5f67ffffffffffffffff82111561018c5761018b6100fa565b5b610195826100ea565b9050602081019050919050565b8281835e5f83830152505050565b5f6101c26101bd84610172565b610158565b9050828152602081018484840111156101de576101dd6100e6565b5b6101e98482856101a2565b509392505050565b5f82601f830112610205576102046100e2565b5b81516102158482602086016101b0565b91505092915050565b5f819050919050565b6102308161021e565b811461023a575f5ffd5b50565b5f8151905061024b81610227565b92915050565b5f5f5f5f5f60a0868803121561026a576102696100da565b5b5f86015167ffffffffffffffff811115610287576102866100de565b5b610293888289016101f1565b955050602086015167ffffffffffffffff8111156102b4576102b36100de565b5b6102c0888289016101f1565b945050604086015167ffffffffffffffff8111156102e1576102e06100de565b5b6102ed888289016101f1565b93505060606102fe8882890161023d565b925050608061030f8882890161023d565b9150509295509295909350565b5f81519050919050565b7f4e487b71000000000000000000000000000000000000000000000000000000005f52602260045260245ffd5b5f600282049050600182168061036a57607f821691505b60208210810361037d5761037c610326565b5b50919050565b5f819050815f5260205f209050919050565b5f6020601f8301049050919050565b5f82821b905092915050565b5f600883026103df7fffffffffffffffffffffffffffffffffffffffffffffffffffffffffffffffff826103a4565b6103e986836103a4565b95508019841693508086168417925050509392505050565b5f819050919050565b5f61042461041f61041a8461021e565b610401565b61021e565b9050919050565b5f819050919050565b61043d8361040a565b6104516104498261042b565b8484546103b0565b825550505050565b5f5f905090565b610468610459565b610473818484610434565b505050565b5b818110156104965761048b5f82610460565b600181019050610479565b5050565b601f8211156104db576104ac81610383565b6104b584610395565b810160208510156104c4578190505b6104d86104d085610395565b830182610478565b50505b505050565b5f82821c905092915050565b5f6104fb5f19846008026104e0565b1980831691505092915050565b5f61051383836104ec565b9150826002028217905092915050565b61052c8261031c565b67ffffffffffffffff811115610545576105446100fa565b5b61054f8254610353565b61055a82828561049a565b5f60209050601f83116001811461058b575f8415610579578287015190505b6105838582610508565b8655506105ea565b601f19841661059986610383565b5f5b828110156105c05784890151825560018201915060208501945060208101905061059b565b868310156105dd57848901516105d9601f8916826104ec565b8355505b6001600288020188555050505b505050505050565b7f4e487b71000000000000000000000000000000000000000000000000000000005f52601160045260245ffd5b5f6106298261021e565b91506106348361021e565b92508282026106428161021e565b91508282048414831517610659576106586105f2565b5b5092915050565b5f61066a8261021e565b91506106758361021e565b925082820190508082111561068d5761068c6105f2565b5b92915050565b6117bb806106a05f395ff3fe6080604052600436106100a6575f3560e01c8063544a544611610063578063544a5446146101a75780637284e416146101cf5780637497211b146101f95780638da5cb5b14610221578063ca1d209d1461024b578063db43adc014610267576100a6565b8063039af9eb146100aa57806306fdde03146100e957806312065fe01461011357806329dcb0cf1461013d5780633ccfd60b14610167578063401938831461017d575b5f5ffd5b3480156100b5575f5ffd5b506100d060048036038101906100cb9190610c18565b610291565b6040516100e09493929190610cc2565b60405180910390f35b3480156100f4575f5ffd5b506100fd6103d8565b60405161010a9190610d13565b60405180910390f35b34801561011e575f5ffd5b50610127610463565b6040516101349190610d33565b60405180910390f35b348015610148575f5ffd5b5061015161046a565b60405161015e9190610d33565b60405180910390f35b348015610172575f5ffd5b5061017b610470565b005b348015610188575f5ffd5b506101916105f2565b60405161019e9190610d33565b60405180910390f35b3480156101b2575f5ffd5b506101cd60048036038101906101c89190610e78565b6105f8565b005b3480156101da575f5ffd5b506101e3610757565b6040516101f09190610d13565b60405180910390f35b348015610204575f5ffd5b5061021f600480360381019061021a9190610c18565b6107e3565b005b34801561022c575f5ffd5b506102356109a0565b6040516102429190610f3f565b60405180910390f35b61026560048036038101906102609190610c18565b6109c5565b005b348015610272575f5ffd5b5061027b610af0565b6040516102889190610d13565b60405180910390f35b600681815481106102a0575f80fd5b905f5260205f2090600402015f91509050805f0180546102bf90610f85565b80601f01602080910402602001604051908101604052809291908181526020018280546102eb90610f85565b80156103365780601f1061030d57610100808354040283529160200191610336565b820191905f5260205f20905b81548152906001019060200180831161031957829003601f168201915b50505050509080600101805461034b90610f85565b80601f016020809104026020016040519081016040528092919081815260200182805461037790610f85565b80156103c25780601f10610399576101008083540402835291602001916103c2565b820191905f5260205f20905b8154815290600101906020018083116103a557829003601f168201915b5050505050908060020154908060030154905084565b5f80546103e490610f85565b80601f016020809104026020016040519081016040528092919081815260200182805461041090610f85565b801561045b5780601f106104325761010080835404028352916020019161045b565b820191905f5260205f20905b81548152906001019060200180831161043e57829003601f168201915b505050505081565b5f47905090565b60045481565b60055f9054906101000a900473ffffffffffffffffffffffffffffffffffffffff1673ffffffffffffffffffffffffffffffffffffffff163373ffffffffffffffffffffffffffffffffffffffff16146104ff576040517f08c379a00000000000000000000000000000000000000000000000000000000081526004016104f690611025565b60405180910390fd5b600354471015610544576040517f08c379a000000000000000000000000000000000000000000000000000000000815260040161053b9061108d565b60405180910390fd5b5f4790505f811161058a576040517f08c379a0000000000000000000000000000000000000000000000000000000008152600401610581906110f5565b60405180910390fd5b60055f9054906101000a900473ffffffffffffffffffffffffffffffffffffffff1673ffffffffffffffffffffffffffffffffffffffff166108fc8290811502906040515f60405180830381858888f193505050501580156105ee573d5f5f3e3d5ffd5b5050565b60035481565b60055f9054906101000a900473ffffffffffffffffffffffffffffffffffffffff1673ffffffffffffffffffffffffffffffffffffffff163373ffffffffffffffffffffffffffffffffffffffff1614610687576040517f08c379a000000000000000000000000000000000000000000000000000000000815260040161067e90611025565b60405180910390fd5b5f81116106c9576040517f08c379a00000000000000000000000000000000000000000000000000000000081526004016106c09061115d565b60405180910390fd5b600660405180608001604052808581526020018481526020018381526020015f815250908060018154018082558091505060019003905f5260205f2090600402015f909190919091505f820151815f019081610725919061131b565b50602082015181600101908161073b919061131b565b5060408201518160020155606082015181600301555050505050565b6002805461076490610f85565b80601f016020809104026020016040519081016040528092919081815260200182805461079090610f85565b80156107db5780601f106107b2576101008083540402835291602001916107db565b820191905f5260205f20905b8154815290600101906020018083116107be57829003601f168201915b505050505081565b60055f9054906101000a900473ffffffffffffffffffffffffffffffffffffffff1673ffffffffffffffffffffffffffffffffffffffff163373ffffffffffffffffffffffffffffffffffffffff1614610872576040517f08c379a000000000000000000000000000000000000000000000000000000000815260040161086990611025565b60405180910390fd5b60068054905081106108b9576040517f08c379a00000000000000000000000000000000000000000000000000000000081526004016108b090611434565b60405180910390fd5b600660016006805490506108cd919061147f565b815481106108de576108dd6114b2565b5b905f5260205f209060040201600682815481106108fe576108fd6114b2565b5b905f5260205f2090600402015f8201815f01908161091c91906114f4565b506001820181600101908161093191906114f4565b506002820154816002015560038201548160030155905050600680548061095b5761095a6115d9565b5b600190038181905f5260205f2090600402015f5f82015f61097c9190610b7c565b600182015f61098b9190610b7c565b600282015f9055600382015f90555050905550565b60055f9054906101000a900473ffffffffffffffffffffffffffffffffffffffff1681565b6004544210610a09576040517f08c379a0000000000000000000000000000000000000000000000000000000008152600401610a0090611650565b60405180910390fd5b6006805490508110610a50576040517f08c379a0000000000000000000000000000000000000000000000000000000008152600401610a47906116b8565b60405180910390fd5b60068181548110610a6457610a636114b2565b5b905f5260205f209060040201600201543414610ab5576040517f08c379a0000000000000000000000000000000000000000000000000000000008152600401610aac90611720565b60405180910390fd5b60068181548110610ac957610ac86114b2565b5b905f5260205f2090600402016003015f815480929190610ae89061173e565b919050555050565b60018054610afd90610f85565b80601f0160208091040260200160405190810160405280929190818152602001828054610b2990610f85565b8015610b745780601f10610b4b57610100808354040283529160200191610b74565b820191905f5260205f20905b815481529060010190602001808311610b5757829003601f168201915b505050505081565b508054610b8890610f85565b5f825580601f10610b995750610bb6565b601f0160209004905f5260205f2090810190610bb59190610bb9565b5b50565b5b80821115610bd0575f815f905550600101610bba565b5090565b5f604051905090565b5f5ffd5b5f5ffd5b5f819050919050565b610bf781610be5565b8114610c01575f5ffd5b50565b5f81359050610c1281610bee565b92915050565b5f60208284031215610c2d57610c2c610bdd565b5b5f610c3a84828501610c04565b91505092915050565b5f81519050919050565b5f82825260208201905092915050565b8281835e5f83830152505050565b5f601f19601f8301169050919050565b5f610c8582610c43565b610c8f8185610c4d565b9350610c9f818560208601610c5d565b610ca881610c6b565b840191505092915050565b610cbc81610be5565b82525050565b5f6080820190508181035f830152610cda8187610c7b565b90508181036020830152610cee8186610c7b565b9050610cfd6040830185610cb3565b610d0a6060830184610cb3565b95945050505050565b5f6020820190508181035f830152610d2b8184610c7b565b905092915050565b5f602082019050610d465f830184610cb3565b92915050565b5f5ffd5b5f5ffd5b7f4e487b71000000000000000000000000000000000000000000000000000000005f52604160045260245ffd5b610d8a82610c6b565b810181811067ffffffffffffffff82111715610da957610da8610d54565b5b80604052505050565b5f610dbb610bd4565b9050610dc78282610d81565b919050565b5f67ffffffffffffffff821115610de657610de5610d54565b5b610def82610c6b565b9050602081019050919050565b828183375f83830152505050565b5f610e1c610e1784610dcc565b610db2565b905082815260208101848484011115610e3857610e37610d50565b5b610e43848285610dfc565b509392505050565b5f82601f830112610e5f57610e5e610d4c565b5b8135610e6f848260208601610e0a565b91505092915050565b5f5f5f60608486031215610e8f57610e8e610bdd565b5b5f84013567ffffffffffffffff811115610eac57610eab610be1565b5b610eb886828701610e4b565b935050602084013567ffffffffffffffff811115610ed957610ed8610be1565b5b610ee586828701610e4b565b9250506040610ef686828701610c04565b9150509250925092565b5f73ffffffffffffffffffffffffffffffffffffffff82169050919050565b5f610f2982610f00565b9050919050565b610f3981610f1f565b82525050565b5f602082019050610f525f830184610f30565b92915050565b7f4e487b71000000000000000000000000000000000000000000000000000000005f52602260045260245ffd5b5f6002820490506001821680610f9c57607f821691505b602082108103610faf57610fae610f58565b5b50919050565b7f4f6e6c7920746865206f776e65722063616e2063616c6c20746869732066756e5f8201527f6374696f6e000000000000000000000000000000000000000000000000000000602082015250565b5f61100f602583610c4d565b915061101a82610fb5565b604082019050919050565b5f6020820190508181035f83015261103c81611003565b9050919050565b7f54686520676f616c20686173206e6f74206265656e20726561636865642e00005f82015250565b5f611077601e83610c4d565b915061108282611043565b602082019050919050565b5f6020820190508181035f8301526110a48161106b565b9050919050565b7f4e6f2062616c616e636520746f2077697468647261772e0000000000000000005f82015250565b5f6110df601783610c4d565b91506110ea826110ab565b602082019050919050565b5f6020820190508181035f83015261110c816110d3565b9050919050565b7f416d6f756e74206d7573742062652067726561746572207468616e20302e00005f82015250565b5f611147601e83610c4d565b915061115282611113565b602082019050919050565b5f6020820190508181035f8301526111748161113b565b9050919050565b5f819050815f5260205f209050919050565b5f6020601f8301049050919050565b5f82821b905092915050565b5f600883026111d77fffffffffffffffffffffffffffffffffffffffffffffffffffffffffffffffff8261119c565b6111e1868361119c565b95508019841693508086168417925050509392505050565b5f819050919050565b5f61121c61121761121284610be5565b6111f9565b610be5565b9050919050565b5f819050919050565b61123583611202565b61124961124182611223565b8484546111a8565b825550505050565b5f5f905090565b611260611251565b61126b81848461122c565b505050565b5b8181101561128e576112835f82611258565b600181019050611271565b5050565b601f8211156112d3576112a48161117b565b6112ad8461118d565b810160208510156112bc578190505b6112d06112c88561118d565b830182611270565b50505b505050565b5f82821c905092915050565b5f6112f35f19846008026112d8565b1980831691505092915050565b5f61130b83836112e4565b9150826002028217905092915050565b61132482610c43565b67ffffffffffffffff81111561133d5761133c610d54565b5b6113478254610f85565b611352828285611292565b5f60209050601f831160018114611383575f8415611371578287015190505b61137b8582611300565b8655506113e2565b601f1984166113918661117b565b5f5b828110156113b857848901518255600182019150602085019450602081019050611393565b868310156113d557848901516113d1601f8916826112e4565b8355505b6001600288020188555050505b505050505050565b7f5469657220646f6573206e6f742065786973742e0000000000000000000000005f82015250565b5f61141e601483610c4d565b9150611429826113ea565b602082019050919050565b5f6020820190508181035f83015261144b81611412565b9050919050565b7f4e487b71000000000000000000000000000000000000000000000000000000005f52601160045260245ffd5b5f61148982610be5565b915061149483610be5565b92508282039050818111156114ac576114ab611452565b5b92915050565b7f4e487b71000000000000000000000000000000000000000000000000000000005f52603260045260245ffd5b5f815490506114ed81610f85565b9050919050565b8181036115025750506115d7565b61150b826114df565b67ffffffffffffffff81111561152457611523610d54565b5b61152e8254610f85565b611539828285611292565b5f601f831160018114611566575f8415611554578287015490505b61155e8582611300565b8655506115d0565b601f1984166115748761117b565b965061157f8661117b565b5f5b828110156115a657848901548255600182019150600185019450602081019050611581565b868310156115c357848901546115bf601f8916826112e4565b8355505b6001600288020188555050505b5050505050505b565b7f4e487b71000000000000000000000000000000000000000000000000000000005f52603160045260245ffd5b7f546869732063616d706169676e2068617320656e6465642e00000000000000005f82015250565b5f61163a601883610c4d565b915061164582611606565b602082019050919050565b5f6020820190508181035f8301526116678161162e565b9050919050565b7f496e76616c696420746965722e000000000000000000000000000000000000005f82015250565b5f6116a2600d83610c4d565b91506116ad8261166e565b602082019050919050565b5f6020820190508181035f8301526116cf81611696565b9050919050565b7f496e636f727265637420616d6f756e742e0000000000000000000000000000005f82015250565b5f61170a601183610c4d565b9150611715826116d6565b602082019050919050565b5f6020820190508181035f830152611737816116fe565b9050919050565b5f61174882610be5565b91507fffffffffffffffffffffffffffffffffffffffffffffffffffffffffffffffff820361177a57611779611452565b5b60018201905091905056fea264697066735822122060cfb84d13438f7f8465b5559c1e7e0aff1c5193fbae6852ce78a7f2b558608064736f6c634300081e0033",
					"opcodes": "PUSH1 0x80 PUSH1 0x40 MSTORE CALLVALUE DUP1 ISZERO PUSH2 0xF JUMPI PUSH0 PUSH0 REVERT JUMPDEST POP PUSH1 0x40 MLOAD PUSH2 0x1E5B CODESIZE SUB DUP1 PUSH2 0x1E5B DUP4 CODECOPY DUP2 DUP2 ADD PUSH1 0x40 MSTORE DUP2 ADD SWAP1 PUSH2 0x31 SWAP2 SWAP1 PUSH2 0x251 JUMP JUMPDEST DUP5 PUSH0 SWAP1 DUP2 PUSH2 0x3F SWAP2 SWAP1 PUSH2 0x523 JUMP JUMPDEST POP DUP4 PUSH1 0x1 SWAP1 DUP2 PUSH2 0x4F SWAP2 SWAP1 PUSH2 0x523 JUMP JUMPDEST POP DUP3 PUSH1 0x2 SWAP1 DUP2 PUSH2 0x5F SWAP2 SWAP1 PUSH2 0x523 JUMP JUMPDEST POP DUP2 PUSH1 0x3 DUP2 SWAP1 SSTORE POP PUSH3 0x15180 DUP2 PUSH2 0x76 SWAP2 SWAP1 PUSH2 0x61F JUMP JUMPDEST TIMESTAMP PUSH2 0x81 SWAP2 SWAP1 PUSH2 0x660 JUMP JUMPDEST PUSH1 0x4 DUP2 SWAP1 SSTORE POP CALLER PUSH1 0x5 PUSH0 PUSH2 0x100 EXP DUP2 SLOAD DUP2 PUSH20 0xFFFFFFFFFFFFFFFFFFFFFFFFFFFFFFFFFFFFFFFF MUL NOT AND SWAP1 DUP4 PUSH20 0xFFFFFFFFFFFFFFFFFFFFFFFFFFFFFFFFFFFFFFFF AND MUL OR SWAP1 SSTORE POP POP POP POP POP POP PUSH2 0x693 JUMP JUMPDEST PUSH0 PUSH1 0x40 MLOAD SWAP1 POP SWAP1 JUMP JUMPDEST PUSH0 PUSH0 REVERT JUMPDEST PUSH0 PUSH0 REVERT JUMPDEST PUSH0 PUSH0 REVERT JUMPDEST PUSH0 PUSH0 REVERT JUMPDEST PUSH0 PUSH1 0x1F NOT PUSH1 0x1F DUP4 ADD AND SWAP1 POP SWAP2 SWAP1 POP JUMP JUMPDEST PUSH32 0x4E487B7100000000000000000000000000000000000000000000000000000000 PUSH0 MSTORE PUSH1 0x41 PUSH1 0x4 MSTORE PUSH1 0x24 PUSH0 REVERT JUMPDEST PUSH2 0x130 DUP3 PUSH2 0xEA JUMP JUMPDEST DUP2 ADD DUP2 DUP2 LT PUSH8 0xFFFFFFFFFFFFFFFF DUP3 GT OR ISZERO PUSH2 0x14F JUMPI PUSH2 0x14E PUSH2 0xFA JUMP JUMPDEST JUMPDEST DUP1 PUSH1 0x40 MSTORE POP POP POP JUMP JUMPDEST PUSH0 PUSH2 0x161 PUSH2 0xD1 JUMP JUMPDEST SWAP1 POP PUSH2 0x16D DUP3 DUP3 PUSH2 0x127 JUMP JUMPDEST SWAP2 SWAP1 POP JUMP JUMPDEST PUSH0 PUSH8 0xFFFFFFFFFFFFFFFF DUP3 GT ISZERO PUSH2 0x18C JUMPI PUSH2 0x18B PUSH2 0xFA JUMP JUMPDEST JUMPDEST PUSH2 0x195 DUP3 PUSH2 0xEA JUMP JUMPDEST SWAP1 POP PUSH1 0x20 DUP2 ADD SWAP1 POP SWAP2 SWAP1 POP JUMP JUMPDEST DUP3 DUP2 DUP4 MCOPY PUSH0 DUP4 DUP4 ADD MSTORE POP POP POP JUMP JUMPDEST PUSH0 PUSH2 0x1C2 PUSH2 0x1BD DUP5 PUSH2 0x172 JUMP JUMPDEST PUSH2 0x158 JUMP JUMPDEST SWAP1 POP DUP3 DUP2 MSTORE PUSH1 0x20 DUP2 ADD DUP5 DUP5 DUP5 ADD GT ISZERO PUSH2 0x1DE JUMPI PUSH2 0x1DD PUSH2 0xE6 JUMP JUMPDEST JUMPDEST PUSH2 0x1E9 DUP5 DUP3 DUP6 PUSH2 0x1A2 JUMP JUMPDEST POP SWAP4 SWAP3 POP POP POP JUMP JUMPDEST PUSH0 DUP3 PUSH1 0x1F DUP4 ADD SLT PUSH2 0x205 JUMPI PUSH2 0x204 PUSH2 0xE2 JUMP JUMPDEST JUMPDEST DUP2 MLOAD PUSH2 0x215 DUP5 DUP3 PUSH1 0x20 DUP7 ADD PUSH2 0x1B0 JUMP JUMPDEST SWAP2 POP POP SWAP3 SWAP2 POP POP JUMP JUMPDEST PUSH0 DUP2 SWAP1 POP SWAP2 SWAP1 POP JUMP JUMPDEST PUSH2 0x230 DUP2 PUSH2 0x21E JUMP JUMPDEST DUP2 EQ PUSH2 0x23A JUMPI PUSH0 PUSH0 REVERT JUMPDEST POP JUMP JUMPDEST PUSH0 DUP2 MLOAD SWAP1 POP PUSH2 0x24B DUP2 PUSH2 0x227 JUMP JUMPDEST SWAP3 SWAP2 POP POP JUMP JUMPDEST PUSH0 PUSH0 PUSH0 PUSH0 PUSH0 PUSH1 0xA0 DUP7 DUP9 SUB SLT ISZERO PUSH2 0x26A JUMPI PUSH2 0x269 PUSH2 0xDA JUMP JUMPDEST JUMPDEST PUSH0 DUP7 ADD MLOAD PUSH8 0xFFFFFFFFFFFFFFFF DUP2 GT ISZERO PUSH2 0x287 JUMPI PUSH2 0x286 PUSH2 0xDE JUMP JUMPDEST JUMPDEST PUSH2 0x293 DUP9 DUP3 DUP10 ADD PUSH2 0x1F1 JUMP JUMPDEST SWAP6 POP POP PUSH1 0x20 DUP7 ADD MLOAD PUSH8 0xFFFFFFFFFFFFFFFF DUP2 GT ISZERO PUSH2 0x2B4 JUMPI PUSH2 0x2B3 PUSH2 0xDE JUMP JUMPDEST JUMPDEST PUSH2 0x2C0 DUP9 DUP3 DUP10 ADD PUSH2 0x1F1 JUMP JUMPDEST SWAP5 POP POP PUSH1 0x40 DUP7 ADD MLOAD PUSH8 0xFFFFFFFFFFFFFFFF DUP2 GT ISZERO PUSH2 0x2E1 JUMPI PUSH2 0x2E0 PUSH2 0xDE JUMP JUMPDEST JUMPDEST PUSH2 0x2ED DUP9 DUP3 DUP10 ADD PUSH2 0x1F1 JUMP JUMPDEST SWAP4 POP POP PUSH1 0x60 PUSH2 0x2FE DUP9 DUP3 DUP10 ADD PUSH2 0x23D JUMP JUMPDEST SWAP3 POP POP PUSH1 0x80 PUSH2 0x30F DUP9 DUP3 DUP10 ADD PUSH2 0x23D JUMP JUMPDEST SWAP2 POP POP SWAP3 SWAP6 POP SWAP3 SWAP6 SWAP1 SWAP4 POP JUMP JUMPDEST PUSH0 DUP2 MLOAD SWAP1 POP SWAP2 SWAP1 POP JUMP JUMPDEST PUSH32 0x4E487B7100000000000000000000000000000000000000000000000000000000 PUSH0 MSTORE PUSH1 0x22 PUSH1 0x4 MSTORE PUSH1 0x24 PUSH0 REVERT JUMPDEST PUSH0 PUSH1 0x2 DUP3 DIV SWAP1 POP PUSH1 0x1 DUP3 AND DUP1 PUSH2 0x36A JUMPI PUSH1 0x7F DUP3 AND SWAP2 POP JUMPDEST PUSH1 0x20 DUP3 LT DUP2 SUB PUSH2 0x37D JUMPI PUSH2 0x37C PUSH2 0x326 JUMP JUMPDEST JUMPDEST POP SWAP2 SWAP1 POP JUMP JUMPDEST PUSH0 DUP2 SWAP1 POP DUP2 PUSH0 MSTORE PUSH1 0x20 PUSH0 KECCAK256 SWAP1 POP SWAP2 SWAP1 POP JUMP JUMPDEST PUSH0 PUSH1 0x20 PUSH1 0x1F DUP4 ADD DIV SWAP1 POP SWAP2 SWAP1 POP JUMP JUMPDEST PUSH0 DUP3 DUP3 SHL SWAP1 POP SWAP3 SWAP2 POP POP JUMP JUMPDEST PUSH0 PUSH1 0x8 DUP4 MUL PUSH2 0x3DF PUSH32 0xFFFFFFFFFFFFFFFFFFFFFFFFFFFFFFFFFFFFFFFFFFFFFFFFFFFFFFFFFFFFFFFF DUP3 PUSH2 0x3A4 JUMP JUMPDEST PUSH2 0x3E9 DUP7 DUP4 PUSH2 0x3A4 JUMP JUMPDEST SWAP6 POP DUP1 NOT DUP5 AND SWAP4 POP DUP1 DUP7 AND DUP5 OR SWAP3 POP POP POP SWAP4 SWAP3 POP POP POP JUMP JUMPDEST PUSH0 DUP2 SWAP1 POP SWAP2 SWAP1 POP JUMP JUMPDEST PUSH0 PUSH2 0x424 PUSH2 0x41F PUSH2 0x41A DUP5 PUSH2 0x21E JUMP JUMPDEST PUSH2 0x401 JUMP JUMPDEST PUSH2 0x21E JUMP JUMPDEST SWAP1 POP SWAP2 SWAP1 POP JUMP JUMPDEST PUSH0 DUP2 SWAP1 POP SWAP2 SWAP1 POP JUMP JUMPDEST PUSH2 0x43D DUP4 PUSH2 0x40A JUMP JUMPDEST PUSH2 0x451 PUSH2 0x449 DUP3 PUSH2 0x42B JUMP JUMPDEST DUP5 DUP5 SLOAD PUSH2 0x3B0 JUMP JUMPDEST DUP3 SSTORE POP POP POP POP JUMP JUMPDEST PUSH0 PUSH0 SWAP1 POP SWAP1 JUMP JUMPDEST PUSH2 0x468 PUSH2 0x459 JUMP JUMPDEST PUSH2 0x473 DUP2 DUP5 DUP5 PUSH2 0x434 JUMP JUMPDEST POP POP POP JUMP JUMPDEST JUMPDEST DUP2 DUP2 LT ISZERO PUSH2 0x496 JUMPI PUSH2 0x48B PUSH0 DUP3 PUSH2 0x460 JUMP JUMPDEST PUSH1 0x1 DUP2 ADD SWAP1 POP PUSH2 0x479 JUMP JUMPDEST POP POP JUMP JUMPDEST PUSH1 0x1F DUP3 GT ISZERO PUSH2 0x4DB JUMPI PUSH2 0x4AC DUP2 PUSH2 0x383 JUMP JUMPDEST PUSH2 0x4B5 DUP5 PUSH2 0x395 JUMP JUMPDEST DUP2 ADD PUSH1 0x20 DUP6 LT ISZERO PUSH2 0x4C4 JUMPI DUP2 SWAP1 POP JUMPDEST PUSH2 0x4D8 PUSH2 0x4D0 DUP6 PUSH2 0x395 JUMP JUMPDEST DUP4 ADD DUP3 PUSH2 0x478 JUMP JUMPDEST POP POP JUMPDEST POP POP POP JUMP JUMPDEST PUSH0 DUP3 DUP3 SHR SWAP1 POP SWAP3 SWAP2 POP POP JUMP JUMPDEST PUSH0 PUSH2 0x4FB PUSH0 NOT DUP5 PUSH1 0x8 MUL PUSH2 0x4E0 JUMP JUMPDEST NOT DUP1 DUP4 AND SWAP2 POP POP SWAP3 SWAP2 POP POP JUMP JUMPDEST PUSH0 PUSH2 0x513 DUP4 DUP4 PUSH2 0x4EC JUMP JUMPDEST SWAP2 POP DUP3 PUSH1 0x2 MUL DUP3 OR SWAP1 POP SWAP3 SWAP2 POP POP JUMP JUMPDEST PUSH2 0x52C DUP3 PUSH2 0x31C JUMP JUMPDEST PUSH8 0xFFFFFFFFFFFFFFFF DUP2 GT ISZERO PUSH2 0x545 JUMPI PUSH2 0x544 PUSH2 0xFA JUMP JUMPDEST JUMPDEST PUSH2 0x54F DUP3 SLOAD PUSH2 0x353 JUMP JUMPDEST PUSH2 0x55A DUP3 DUP3 DUP6 PUSH2 0x49A JUMP JUMPDEST PUSH0 PUSH1 0x20 SWAP1 POP PUSH1 0x1F DUP4 GT PUSH1 0x1 DUP2 EQ PUSH2 0x58B JUMPI PUSH0 DUP5 ISZERO PUSH2 0x579 JUMPI DUP3 DUP8 ADD MLOAD SWAP1 POP JUMPDEST PUSH2 0x583 DUP6 DUP3 PUSH2 0x508 JUMP JUMPDEST DUP7 SSTORE POP PUSH2 0x5EA JUMP JUMPDEST PUSH1 0x1F NOT DUP5 AND PUSH2 0x599 DUP7 PUSH2 0x383 JUMP JUMPDEST PUSH0 JUMPDEST DUP3 DUP2 LT ISZERO PUSH2 0x5C0 JUMPI DUP5 DUP10 ADD MLOAD DUP3 SSTORE PUSH1 0x1 DUP3 ADD SWAP2 POP PUSH1 0x20 DUP6 ADD SWAP5 POP PUSH1 0x20 DUP2 ADD SWAP1 POP PUSH2 0x59B JUMP JUMPDEST DUP7 DUP4 LT ISZERO PUSH2 0x5DD JUMPI DUP5 DUP10 ADD MLOAD PUSH2 0x5D9 PUSH1 0x1F DUP10 AND DUP3 PUSH2 0x4EC JUMP JUMPDEST DUP4 SSTORE POP JUMPDEST PUSH1 0x1 PUSH1 0x2 DUP9 MUL ADD DUP9 SSTORE POP POP POP JUMPDEST POP POP POP POP POP POP JUMP JUMPDEST PUSH32 0x4E487B7100000000000000000000000000000000000000000000000000000000 PUSH0 MSTORE PUSH1 0x11 PUSH1 0x4 MSTORE PUSH1 0x24 PUSH0 REVERT JUMPDEST PUSH0 PUSH2 0x629 DUP3 PUSH2 0x21E JUMP JUMPDEST SWAP2 POP PUSH2 0x634 DUP4 PUSH2 0x21E JUMP JUMPDEST SWAP3 POP DUP3 DUP3 MUL PUSH2 0x642 DUP2 PUSH2 0x21E JUMP JUMPDEST SWAP2 POP DUP3 DUP3 DIV DUP5 EQ DUP4 ISZERO OR PUSH2 0x659 JUMPI PUSH2 0x658 PUSH2 0x5F2 JUMP JUMPDEST JUMPDEST POP SWAP3 SWAP2 POP POP JUMP JUMPDEST PUSH0 PUSH2 0x66A DUP3 PUSH2 0x21E JUMP JUMPDEST SWAP2 POP PUSH2 0x675 DUP4 PUSH2 0x21E JUMP JUMPDEST SWAP3 POP DUP3 DUP3 ADD SWAP1 POP DUP1 DUP3 GT ISZERO PUSH2 0x68D JUMPI PUSH2 0x68C PUSH2 0x5F2 JUMP JUMPDEST JUMPDEST SWAP3 SWAP2 POP POP JUMP JUMPDEST PUSH2 0x17BB DUP1 PUSH2 0x6A0 PUSH0 CODECOPY PUSH0 RETURN INVALID PUSH1 0x80 PUSH1 0x40 MSTORE PUSH1 0x4 CALLDATASIZE LT PUSH2 0xA6 JUMPI PUSH0 CALLDATALOAD PUSH1 0xE0 SHR DUP1 PUSH4 0x544A5446 GT PUSH2 0x63 JUMPI DUP1 PUSH4 0x544A5446 EQ PUSH2 0x1A7 JUMPI DUP1 PUSH4 0x7284E416 EQ PUSH2 0x1CF JUMPI DUP1 PUSH4 0x7497211B EQ PUSH2 0x1F9 JUMPI DUP1 PUSH4 0x8DA5CB5B EQ PUSH2 0x221 JUMPI DUP1 PUSH4 0xCA1D209D EQ PUSH2 0x24B JUMPI DUP1 PUSH4 0xDB43ADC0 EQ PUSH2 0x267 JUMPI PUSH2 0xA6 JUMP JUMPDEST DUP1 PUSH4 0x39AF9EB EQ PUSH2 0xAA JUMPI DUP1 PUSH4 0x6FDDE03 EQ PUSH2 0xE9 JUMPI DUP1 PUSH4 0x12065FE0 EQ PUSH2 0x113 JUMPI DUP1 PUSH4 0x29DCB0CF EQ PUSH2 0x13D JUMPI DUP1 PUSH4 0x3CCFD60B EQ PUSH2 0x167 JUMPI DUP1 PUSH4 0x40193883 EQ PUSH2 0x17D JUMPI JUMPDEST PUSH0 PUSH0 REVERT JUMPDEST CALLVALUE DUP1 ISZERO PUSH2 0xB5 JUMPI PUSH0 PUSH0 REVERT JUMPDEST POP PUSH2 0xD0 PUSH1 0x4 DUP1 CALLDATASIZE SUB DUP2 ADD SWAP1 PUSH2 0xCB SWAP2 SWAP1 PUSH2 0xC18 JUMP JUMPDEST PUSH2 0x291 JUMP JUMPDEST PUSH1 0x40 MLOAD PUSH2 0xE0 SWAP5 SWAP4 SWAP3 SWAP2 SWAP1 PUSH2 0xCC2 JUMP JUMPDEST PUSH1 0x40 MLOAD DUP1 SWAP2 SUB SWAP1 RETURN JUMPDEST CALLVALUE DUP1 ISZERO PUSH2 0xF4 JUMPI PUSH0 PUSH0 REVERT JUMPDEST POP PUSH2 0xFD PUSH2 0x3D8 JUMP JUMPDEST PUSH1 0x40 MLOAD PUSH2 0x10A SWAP2 SWAP1 PUSH2 0xD13 JUMP JUMPDEST PUSH1 0x40 MLOAD DUP1 SWAP2 SUB SWAP1 RETURN JUMPDEST CALLVALUE DUP1 ISZERO PUSH2 0x11E JUMPI PUSH0 PUSH0 REVERT JUMPDEST POP PUSH2 0x127 PUSH2 0x463 JUMP JUMPDEST PUSH1 0x40 MLOAD PUSH2 0x134 SWAP2 SWAP1 PUSH2 0xD33 JUMP JUMPDEST PUSH1 0x40 MLOAD DUP1 SWAP2 SUB SWAP1 RETURN JUMPDEST CALLVALUE DUP1 ISZERO PUSH2 0x148 JUMPI PUSH0 PUSH0 REVERT JUMPDEST POP PUSH2 0x151 PUSH2 0x46A JUMP JUMPDEST PUSH1 0x40 MLOAD PUSH2 0x15E SWAP2 SWAP1 PUSH2 0xD33 JUMP JUMPDEST PUSH1 0x40 MLOAD DUP1 SWAP2 SUB SWAP1 RETURN JUMPDEST CALLVALUE DUP1 ISZERO PUSH2 0x172 JUMPI PUSH0 PUSH0 REVERT JUMPDEST POP PUSH2 0x17B PUSH2 0x470 JUMP JUMPDEST STOP JUMPDEST CALLVALUE DUP1 ISZERO PUSH2 0x188 JUMPI PUSH0 PUSH0 REVERT JUMPDEST POP PUSH2 0x191 PUSH2 0x5F2 JUMP JUMPDEST PUSH1 0x40 MLOAD PUSH2 0x19E SWAP2 SWAP1 PUSH2 0xD33 JUMP JUMPDEST PUSH1 0x40 MLOAD DUP1 SWAP2 SUB SWAP1 RETURN JUMPDEST CALLVALUE DUP1 ISZERO PUSH2 0x1B2 JUMPI PUSH0 PUSH0 REVERT JUMPDEST POP PUSH2 0x1CD PUSH1 0x4 DUP1 CALLDATASIZE SUB DUP2 ADD SWAP1 PUSH2 0x1C8 SWAP2 SWAP1 PUSH2 0xE78 JUMP JUMPDEST PUSH2 0x5F8 JUMP JUMPDEST STOP JUMPDEST CALLVALUE DUP1 ISZERO PUSH2 0x1DA JUMPI PUSH0 PUSH0 REVERT JUMPDEST POP PUSH2 0x1E3 PUSH2 0x757 JUMP JUMPDEST PUSH1 0x40 MLOAD PUSH2 0x1F0 SWAP2 SWAP1 PUSH2 0xD13 JUMP JUMPDEST PUSH1 0x40 MLOAD DUP1 SWAP2 SUB SWAP1 RETURN JUMPDEST CALLVALUE DUP1 ISZERO PUSH2 0x204 JUMPI PUSH0 PUSH0 REVERT JUMPDEST POP PUSH2 0x21F PUSH1 0x4 DUP1 CALLDATASIZE SUB DUP2 ADD SWAP1 PUSH2 0x21A SWAP2 SWAP1 PUSH2 0xC18 JUMP JUMPDEST PUSH2 0x7E3 JUMP JUMPDEST STOP JUMPDEST CALLVALUE DUP1 ISZERO PUSH2 0x22C JUMPI PUSH0 PUSH0 REVERT JUMPDEST POP PUSH2 0x235 PUSH2 0x9A0 JUMP JUMPDEST PUSH1 0x40 MLOAD PUSH2 0x242 SWAP2 SWAP1 PUSH2 0xF3F JUMP JUMPDEST PUSH1 0x40 MLOAD DUP1 SWAP2 SUB SWAP1 RETURN JUMPDEST PUSH2 0x265 PUSH1 0x4 DUP1 CALLDATASIZE SUB DUP2 ADD SWAP1 PUSH2 0x260 SWAP2 SWAP1 PUSH2 0xC18 JUMP JUMPDEST PUSH2 0x9C5 JUMP JUMPDEST STOP JUMPDEST CALLVALUE DUP1 ISZERO PUSH2 0x272 JUMPI PUSH0 PUSH0 REVERT JUMPDEST POP PUSH2 0x27B PUSH2 0xAF0 JUMP JUMPDEST PUSH1 0x40 MLOAD PUSH2 0x288 SWAP2 SWAP1 PUSH2 0xD13 JUMP JUMPDEST PUSH1 0x40 MLOAD DUP1 SWAP2 SUB SWAP1 RETURN JUMPDEST PUSH1 0x6 DUP2 DUP2 SLOAD DUP2 LT PUSH2 0x2A0 JUMPI PUSH0 DUP1 REVERT JUMPDEST SWAP1 PUSH0 MSTORE PUSH1 0x20 PUSH0 KECCAK256 SWAP1 PUSH1 0x4 MUL ADD PUSH0 SWAP2 POP SWAP1 POP DUP1 PUSH0 ADD DUP1 SLOAD PUSH2 0x2BF SWAP1 PUSH2 0xF85 JUMP JUMPDEST DUP1 PUSH1 0x1F ADD PUSH1 0x20 DUP1 SWAP2 DIV MUL PUSH1 0x20 ADD PUSH1 0x40 MLOAD SWAP1 DUP2 ADD PUSH1 0x40 MSTORE DUP1 SWAP3 SWAP2 SWAP1 DUP2 DUP2 MSTORE PUSH1 0x20 ADD DUP3 DUP1 SLOAD PUSH2 0x2EB SWAP1 PUSH2 0xF85 JUMP JUMPDEST DUP1 ISZERO PUSH2 0x336 JUMPI DUP1 PUSH1 0x1F LT PUSH2 0x30D JUMPI PUSH2 0x100 DUP1 DUP4 SLOAD DIV MUL DUP4 MSTORE SWAP2 PUSH1 0x20 ADD SWAP2 PUSH2 0x336 JUMP JUMPDEST DUP3 ADD SWAP2 SWAP1 PUSH0 MSTORE PUSH1 0x20 PUSH0 KECCAK256 SWAP1 JUMPDEST DUP2 SLOAD DUP2 MSTORE SWAP1 PUSH1 0x1 ADD SWAP1 PUSH1 0x20 ADD DUP1 DUP4 GT PUSH2 0x319 JUMPI DUP3 SWAP1 SUB PUSH1 0x1F AND DUP3 ADD SWAP2 JUMPDEST POP POP POP POP POP SWAP1 DUP1 PUSH1 0x1 ADD DUP1 SLOAD PUSH2 0x34B SWAP1 PUSH2 0xF85 JUMP JUMPDEST DUP1 PUSH1 0x1F ADD PUSH1 0x20 DUP1 SWAP2 DIV MUL PUSH1 0x20 ADD PUSH1 0x40 MLOAD SWAP1 DUP2 ADD PUSH1 0x40 MSTORE DUP1 SWAP3 SWAP2 SWAP1 DUP2 DUP2 MSTORE PUSH1 0x20 ADD DUP3 DUP1 SLOAD PUSH2 0x377 SWAP1 PUSH2 0xF85 JUMP JUMPDEST DUP1 ISZERO PUSH2 0x3C2 JUMPI DUP1 PUSH1 0x1F LT PUSH2 0x399 JUMPI PUSH2 0x100 DUP1 DUP4 SLOAD DIV MUL DUP4 MSTORE SWAP2 PUSH1 0x20 ADD SWAP2 PUSH2 0x3C2 JUMP JUMPDEST DUP3 ADD SWAP2 SWAP1 PUSH0 MSTORE PUSH1 0x20 PUSH0 KECCAK256 SWAP1 JUMPDEST DUP2 SLOAD DUP2 MSTORE SWAP1 PUSH1 0x1 ADD SWAP1 PUSH1 0x20 ADD DUP1 DUP4 GT PUSH2 0x3A5 JUMPI DUP3 SWAP1 SUB PUSH1 0x1F AND DUP3 ADD SWAP2 JUMPDEST POP POP POP POP POP SWAP1 DUP1 PUSH1 0x2 ADD SLOAD SWAP1 DUP1 PUSH1 0x3 ADD SLOAD SWAP1 POP DUP5 JUMP JUMPDEST PUSH0 DUP1 SLOAD PUSH2 0x3E4 SWAP1 PUSH2 0xF85 JUMP JUMPDEST DUP1 PUSH1 0x1F ADD PUSH1 0x20 DUP1 SWAP2 DIV MUL PUSH1 0x20 ADD PUSH1 0x40 MLOAD SWAP1 DUP2 ADD PUSH1 0x40 MSTORE DUP1 SWAP3 SWAP2 SWAP1 DUP2 DUP2 MSTORE PUSH1 0x20 ADD DUP3 DUP1 SLOAD PUSH2 0x410 SWAP1 PUSH2 0xF85 JUMP JUMPDEST DUP1 ISZERO PUSH2 0x45B JUMPI DUP1 PUSH1 0x1F LT PUSH2 0x432 JUMPI PUSH2 0x100 DUP1 DUP4 SLOAD DIV MUL DUP4 MSTORE SWAP2 PUSH1 0x20 ADD SWAP2 PUSH2 0x45B JUMP JUMPDEST DUP3 ADD SWAP2 SWAP1 PUSH0 MSTORE PUSH1 0x20 PUSH0 KECCAK256 SWAP1 JUMPDEST DUP2 SLOAD DUP2 MSTORE SWAP1 PUSH1 0x1 ADD SWAP1 PUSH1 0x20 ADD DUP1 DUP4 GT PUSH2 0x43E JUMPI DUP3 SWAP1 SUB PUSH1 0x1F AND DUP3 ADD SWAP2 JUMPDEST POP POP POP POP POP DUP2 JUMP JUMPDEST PUSH0 SELFBALANCE SWAP1 POP SWAP1 JUMP JUMPDEST PUSH1 0x4 SLOAD DUP2 JUMP JUMPDEST PUSH1 0x5 PUSH0 SWAP1 SLOAD SWAP1 PUSH2 0x100 EXP SWAP1 DIV PUSH20 0xFFFFFFFFFFFFFFFFFFFFFFFFFFFFFFFFFFFFFFFF AND PUSH20 0xFFFFFFFFFFFFFFFFFFFFFFFFFFFFFFFFFFFFFFFF AND CALLER PUSH20 0xFFFFFFFFFFFFFFFFFFFFFFFFFFFFFFFFFFFFFFFF AND EQ PUSH2 0x4FF JUMPI PUSH1 0x40 MLOAD PUSH32 0x8C379A000000000000000000000000000000000000000000000000000000000 DUP2 MSTORE PUSH1 0x4 ADD PUSH2 0x4F6 SWAP1 PUSH2 0x1025 JUMP JUMPDEST PUSH1 0x40 MLOAD DUP1 SWAP2 SUB SWAP1 REVERT JUMPDEST PUSH1 0x3 SLOAD SELFBALANCE LT ISZERO PUSH2 0x544 JUMPI PUSH1 0x40 MLOAD PUSH32 0x8C379A000000000000000000000000000000000000000000000000000000000 DUP2 MSTORE PUSH1 0x4 ADD PUSH2 0x53B SWAP1 PUSH2 0x108D JUMP JUMPDEST PUSH1 0x40 MLOAD DUP1 SWAP2 SUB SWAP1 REVERT JUMPDEST PUSH0 SELFBALANCE SWAP1 POP PUSH0 DUP2 GT PUSH2 0x58A JUMPI PUSH1 0x40 MLOAD PUSH32 0x8C379A000000000000000000000000000000000000000000000000000000000 DUP2 MSTORE PUSH1 0x4 ADD PUSH2 0x581 SWAP1 PUSH2 0x10F5 JUMP JUMPDEST PUSH1 0x40 MLOAD DUP1 SWAP2 SUB SWAP1 REVERT JUMPDEST PUSH1 0x5 PUSH0 SWAP1 SLOAD SWAP1 PUSH2 0x100 EXP SWAP1 DIV PUSH20 0xFFFFFFFFFFFFFFFFFFFFFFFFFFFFFFFFFFFFFFFF AND PUSH20 0xFFFFFFFFFFFFFFFFFFFFFFFFFFFFFFFFFFFFFFFF AND PUSH2 0x8FC DUP3 SWAP1 DUP2 ISZERO MUL SWAP1 PUSH1 0x40 MLOAD PUSH0 PUSH1 0x40 MLOAD DUP1 DUP4 SUB DUP2 DUP6 DUP9 DUP9 CALL SWAP4 POP POP POP POP ISZERO DUP1 ISZERO PUSH2 0x5EE JUMPI RETURNDATASIZE PUSH0 PUSH0 RETURNDATACOPY RETURNDATASIZE PUSH0 REVERT JUMPDEST POP POP JUMP JUMPDEST PUSH1 0x3 SLOAD DUP2 JUMP JUMPDEST PUSH1 0x5 PUSH0 SWAP1 SLOAD SWAP1 PUSH2 0x100 EXP SWAP1 DIV PUSH20 0xFFFFFFFFFFFFFFFFFFFFFFFFFFFFFFFFFFFFFFFF AND PUSH20 0xFFFFFFFFFFFFFFFFFFFFFFFFFFFFFFFFFFFFFFFF AND CALLER PUSH20 0xFFFFFFFFFFFFFFFFFFFFFFFFFFFFFFFFFFFFFFFF AND EQ PUSH2 0x687 JUMPI PUSH1 0x40 MLOAD PUSH32 0x8C379A000000000000000000000000000000000000000000000000000000000 DUP2 MSTORE PUSH1 0x4 ADD PUSH2 0x67E SWAP1 PUSH2 0x1025 JUMP JUMPDEST PUSH1 0x40 MLOAD DUP1 SWAP2 SUB SWAP1 REVERT JUMPDEST PUSH0 DUP2 GT PUSH2 0x6C9 JUMPI PUSH1 0x40 MLOAD PUSH32 0x8C379A000000000000000000000000000000000000000000000000000000000 DUP2 MSTORE PUSH1 0x4 ADD PUSH2 0x6C0 SWAP1 PUSH2 0x115D JUMP JUMPDEST PUSH1 0x40 MLOAD DUP1 SWAP2 SUB SWAP1 REVERT JUMPDEST PUSH1 0x6 PUSH1 0x40 MLOAD DUP1 PUSH1 0x80 ADD PUSH1 0x40 MSTORE DUP1 DUP6 DUP2 MSTORE PUSH1 0x20 ADD DUP5 DUP2 MSTORE PUSH1 0x20 ADD DUP4 DUP2 MSTORE PUSH1 0x20 ADD PUSH0 DUP2 MSTORE POP SWAP1 DUP1 PUSH1 0x1 DUP2 SLOAD ADD DUP1 DUP3 SSTORE DUP1 SWAP2 POP POP PUSH1 0x1 SWAP1 SUB SWAP1 PUSH0 MSTORE PUSH1 0x20 PUSH0 KECCAK256 SWAP1 PUSH1 0x4 MUL ADD PUSH0 SWAP1 SWAP2 SWAP1 SWAP2 SWAP1 SWAP2 POP PUSH0 DUP3 ADD MLOAD DUP2 PUSH0 ADD SWAP1 DUP2 PUSH2 0x725 SWAP2 SWAP1 PUSH2 0x131B JUMP JUMPDEST POP PUSH1 0x20 DUP3 ADD MLOAD DUP2 PUSH1 0x1 ADD SWAP1 DUP2 PUSH2 0x73B SWAP2 SWAP1 PUSH2 0x131B JUMP JUMPDEST POP PUSH1 0x40 DUP3 ADD MLOAD DUP2 PUSH1 0x2 ADD SSTORE PUSH1 0x60 DUP3 ADD MLOAD DUP2 PUSH1 0x3 ADD SSTORE POP POP POP POP POP JUMP JUMPDEST PUSH1 0x2 DUP1 SLOAD PUSH2 0x764 SWAP1 PUSH2 0xF85 JUMP JUMPDEST DUP1 PUSH1 0x1F ADD PUSH1 0x20 DUP1 SWAP2 DIV MUL PUSH1 0x20 ADD PUSH1 0x40 MLOAD SWAP1 DUP2 ADD PUSH1 0x40 MSTORE DUP1 SWAP3 SWAP2 SWAP1 DUP2 DUP2 MSTORE PUSH1 0x20 ADD DUP3 DUP1 SLOAD PUSH2 0x790 SWAP1 PUSH2 0xF85 JUMP JUMPDEST DUP1 ISZERO PUSH2 0x7DB JUMPI DUP1 PUSH1 0x1F LT PUSH2 0x7B2 JUMPI PUSH2 0x100 DUP1 DUP4 SLOAD DIV MUL DUP4 MSTORE SWAP2 PUSH1 0x20 ADD SWAP2 PUSH2 0x7DB JUMP JUMPDEST DUP3 ADD SWAP2 SWAP1 PUSH0 MSTORE PUSH1 0x20 PUSH0 KECCAK256 SWAP1 JUMPDEST DUP2 SLOAD DUP2 MSTORE SWAP1 PUSH1 0x1 ADD SWAP1 PUSH1 0x20 ADD DUP1 DUP4 GT PUSH2 0x7BE JUMPI DUP3 SWAP1 SUB PUSH1 0x1F AND DUP3 ADD SWAP2 JUMPDEST POP POP POP POP POP DUP2 JUMP JUMPDEST PUSH1 0x5 PUSH0 SWAP1 SLOAD SWAP1 PUSH2 0x100 EXP SWAP1 DIV PUSH20 0xFFFFFFFFFFFFFFFFFFFFFFFFFFFFFFFFFFFFFFFF AND PUSH20 0xFFFFFFFFFFFFFFFFFFFFFFFFFFFFFFFFFFFFFFFF AND CALLER PUSH20 0xFFFFFFFFFFFFFFFFFFFFFFFFFFFFFFFFFFFFFFFF AND EQ PUSH2 0x872 JUMPI PUSH1 0x40 MLOAD PUSH32 0x8C379A000000000000000000000000000000000000000000000000000000000 DUP2 MSTORE PUSH1 0x4 ADD PUSH2 0x869 SWAP1 PUSH2 0x1025 JUMP JUMPDEST PUSH1 0x40 MLOAD DUP1 SWAP2 SUB SWAP1 REVERT JUMPDEST PUSH1 0x6 DUP1 SLOAD SWAP1 POP DUP2 LT PUSH2 0x8B9 JUMPI PUSH1 0x40 MLOAD PUSH32 0x8C379A000000000000000000000000000000000000000000000000000000000 DUP2 MSTORE PUSH1 0x4 ADD PUSH2 0x8B0 SWAP1 PUSH2 0x1434 JUMP JUMPDEST PUSH1 0x40 MLOAD DUP1 SWAP2 SUB SWAP1 REVERT JUMPDEST PUSH1 0x6 PUSH1 0x1 PUSH1 0x6 DUP1 SLOAD SWAP1 POP PUSH2 0x8CD SWAP2 SWAP1 PUSH2 0x147F JUMP JUMPDEST DUP2 SLOAD DUP2 LT PUSH2 0x8DE JUMPI PUSH2 0x8DD PUSH2 0x14B2 JUMP JUMPDEST JUMPDEST SWAP1 PUSH0 MSTORE PUSH1 0x20 PUSH0 KECCAK256 SWAP1 PUSH1 0x4 MUL ADD PUSH1 0x6 DUP3 DUP2 SLOAD DUP2 LT PUSH2 0x8FE JUMPI PUSH2 0x8FD PUSH2 0x14B2 JUMP JUMPDEST JUMPDEST SWAP1 PUSH0 MSTORE PUSH1 0x20 PUSH0 KECCAK256 SWAP1 PUSH1 0x4 MUL ADD PUSH0 DUP3 ADD DUP2 PUSH0 ADD SWAP1 DUP2 PUSH2 0x91C SWAP2 SWAP1 PUSH2 0x14F4 JUMP JUMPDEST POP PUSH1 0x1 DUP3 ADD DUP2 PUSH1 0x1 ADD SWAP1 DUP2 PUSH2 0x931 SWAP2 SWAP1 PUSH2 0x14F4 JUMP JUMPDEST POP PUSH1 0x2 DUP3 ADD SLOAD DUP2 PUSH1 0x2 ADD SSTORE PUSH1 0x3 DUP3 ADD SLOAD DUP2 PUSH1 0x3 ADD SSTORE SWAP1 POP POP PUSH1 0x6 DUP1 SLOAD DUP1 PUSH2 0x95B JUMPI PUSH2 0x95A PUSH2 0x15D9 JUMP JUMPDEST JUMPDEST PUSH1 0x1 SWAP1 SUB DUP2 DUP2 SWAP1 PUSH0 MSTORE PUSH1 0x20 PUSH0 KECCAK256 SWAP1 PUSH1 0x4 MUL ADD PUSH0 PUSH0 DUP3 ADD PUSH0 PUSH2 0x97C SWAP2 SWAP1 PUSH2 0xB7C JUMP JUMPDEST PUSH1 0x1 DUP3 ADD PUSH0 PUSH2 0x98B SWAP2 SWAP1 PUSH2 0xB7C JUMP JUMPDEST PUSH1 0x2 DUP3 ADD PUSH0 SWAP1 SSTORE PUSH1 0x3 DUP3 ADD PUSH0 SWAP1 SSTORE POP POP SWAP1 SSTORE POP JUMP JUMPDEST PUSH1 0x5 PUSH0 SWAP1 SLOAD SWAP1 PUSH2 0x100 EXP SWAP1 DIV PUSH20 0xFFFFFFFFFFFFFFFFFFFFFFFFFFFFFFFFFFFFFFFF AND DUP2 JUMP JUMPDEST PUSH1 0x4 SLOAD TIMESTAMP LT PUSH2 0xA09 JUMPI PUSH1 0x40 MLOAD PUSH32 0x8C379A000000000000000000000000000000000000000000000000000000000 DUP2 MSTORE PUSH1 0x4 ADD PUSH2 0xA00 SWAP1 PUSH2 0x1650 JUMP JUMPDEST PUSH1 0x40 MLOAD DUP1 SWAP2 SUB SWAP1 REVERT JUMPDEST PUSH1 0x6 DUP1 SLOAD SWAP1 POP DUP2 LT PUSH2 0xA50 JUMPI PUSH1 0x40 MLOAD PUSH32 0x8C379A000000000000000000000000000000000000000000000000000000000 DUP2 MSTORE PUSH1 0x4 ADD PUSH2 0xA47 SWAP1 PUSH2 0x16B8 JUMP JUMPDEST PUSH1 0x40 MLOAD DUP1 SWAP2 SUB SWAP1 REVERT JUMPDEST PUSH1 0x6 DUP2 DUP2 SLOAD DUP2 LT PUSH2 0xA64 JUMPI PUSH2 0xA63 PUSH2 0x14B2 JUMP JUMPDEST JUMPDEST SWAP1 PUSH0 MSTORE PUSH1 0x20 PUSH0 KECCAK256 SWAP1 PUSH1 0x4 MUL ADD PUSH1 0x2 ADD SLOAD CALLVALUE EQ PUSH2 0xAB5 JUMPI PUSH1 0x40 MLOAD PUSH32 0x8C379A000000000000000000000000000000000000000000000000000000000 DUP2 MSTORE PUSH1 0x4 ADD PUSH2 0xAAC SWAP1 PUSH2 0x1720 JUMP JUMPDEST PUSH1 0x40 MLOAD DUP1 SWAP2 SUB SWAP1 REVERT JUMPDEST PUSH1 0x6 DUP2 DUP2 SLOAD DUP2 LT PUSH2 0xAC9 JUMPI PUSH2 0xAC8 PUSH2 0x14B2 JUMP JUMPDEST JUMPDEST SWAP1 PUSH0 MSTORE PUSH1 0x20 PUSH0 KECCAK256 SWAP1 PUSH1 0x4 MUL ADD PUSH1 0x3 ADD PUSH0 DUP2 SLOAD DUP1 SWAP3 SWAP2 SWAP1 PUSH2 0xAE8 SWAP1 PUSH2 0x173E JUMP JUMPDEST SWAP2 SWAP1 POP SSTORE POP POP JUMP JUMPDEST PUSH1 0x1 DUP1 SLOAD PUSH2 0xAFD SWAP1 PUSH2 0xF85 JUMP JUMPDEST DUP1 PUSH1 0x1F ADD PUSH1 0x20 DUP1 SWAP2 DIV MUL PUSH1 0x20 ADD PUSH1 0x40 MLOAD SWAP1 DUP2 ADD PUSH1 0x40 MSTORE DUP1 SWAP3 SWAP2 SWAP1 DUP2 DUP2 MSTORE PUSH1 0x20 ADD DUP3 DUP1 SLOAD PUSH2 0xB29 SWAP1 PUSH2 0xF85 JUMP JUMPDEST DUP1 ISZERO PUSH2 0xB74 JUMPI DUP1 PUSH1 0x1F LT PUSH2 0xB4B JUMPI PUSH2 0x100 DUP1 DUP4 SLOAD DIV MUL DUP4 MSTORE SWAP2 PUSH1 0x20 ADD SWAP2 PUSH2 0xB74 JUMP JUMPDEST DUP3 ADD SWAP2 SWAP1 PUSH0 MSTORE PUSH1 0x20 PUSH0 KECCAK256 SWAP1 JUMPDEST DUP2 SLOAD DUP2 MSTORE SWAP1 PUSH1 0x1 ADD SWAP1 PUSH1 0x20 ADD DUP1 DUP4 GT PUSH2 0xB57 JUMPI DUP3 SWAP1 SUB PUSH1 0x1F AND DUP3 ADD SWAP2 JUMPDEST POP POP POP POP POP DUP2 JUMP JUMPDEST POP DUP1 SLOAD PUSH2 0xB88 SWAP1 PUSH2 0xF85 JUMP JUMPDEST PUSH0 DUP3 SSTORE DUP1 PUSH1 0x1F LT PUSH2 0xB99 JUMPI POP PUSH2 0xBB6 JUMP JUMPDEST PUSH1 0x1F ADD PUSH1 0x20 SWAP1 DIV SWAP1 PUSH0 MSTORE PUSH1 0x20 PUSH0 KECCAK256 SWAP1 DUP2 ADD SWAP1 PUSH2 0xBB5 SWAP2 SWAP1 PUSH2 0xBB9 JUMP JUMPDEST JUMPDEST POP JUMP JUMPDEST JUMPDEST DUP1 DUP3 GT ISZERO PUSH2 0xBD0 JUMPI PUSH0 DUP2 PUSH0 SWAP1 SSTORE POP PUSH1 0x1 ADD PUSH2 0xBBA JUMP JUMPDEST POP SWAP1 JUMP JUMPDEST PUSH0 PUSH1 0x40 MLOAD SWAP1 POP SWAP1 JUMP JUMPDEST PUSH0 PUSH0 REVERT JUMPDEST PUSH0 PUSH0 REVERT JUMPDEST PUSH0 DUP2 SWAP1 POP SWAP2 SWAP1 POP JUMP JUMPDEST PUSH2 0xBF7 DUP2 PUSH2 0xBE5 JUMP JUMPDEST DUP2 EQ PUSH2 0xC01 JUMPI PUSH0 PUSH0 REVERT JUMPDEST POP JUMP JUMPDEST PUSH0 DUP2 CALLDATALOAD SWAP1 POP PUSH2 0xC12 DUP2 PUSH2 0xBEE JUMP JUMPDEST SWAP3 SWAP2 POP POP JUMP JUMPDEST PUSH0 PUSH1 0x20 DUP3 DUP5 SUB SLT ISZERO PUSH2 0xC2D JUMPI PUSH2 0xC2C PUSH2 0xBDD JUMP JUMPDEST JUMPDEST PUSH0 PUSH2 0xC3A DUP5 DUP3 DUP6 ADD PUSH2 0xC04 JUMP JUMPDEST SWAP2 POP POP SWAP3 SWAP2 POP POP JUMP JUMPDEST PUSH0 DUP2 MLOAD SWAP1 POP SWAP2 SWAP1 POP JUMP JUMPDEST PUSH0 DUP3 DUP3 MSTORE PUSH1 0x20 DUP3 ADD SWAP1 POP SWAP3 SWAP2 POP POP JUMP JUMPDEST DUP3 DUP2 DUP4 MCOPY PUSH0 DUP4 DUP4 ADD MSTORE POP POP POP JUMP JUMPDEST PUSH0 PUSH1 0x1F NOT PUSH1 0x1F DUP4 ADD AND SWAP1 POP SWAP2 SWAP1 POP JUMP JUMPDEST PUSH0 PUSH2 0xC85 DUP3 PUSH2 0xC43 JUMP JUMPDEST PUSH2 0xC8F DUP2 DUP6 PUSH2 0xC4D JUMP JUMPDEST SWAP4 POP PUSH2 0xC9F DUP2 DUP6 PUSH1 0x20 DUP7 ADD PUSH2 0xC5D JUMP JUMPDEST PUSH2 0xCA8 DUP2 PUSH2 0xC6B JUMP JUMPDEST DUP5 ADD SWAP2 POP POP SWAP3 SWAP2 POP POP JUMP JUMPDEST PUSH2 0xCBC DUP2 PUSH2 0xBE5 JUMP JUMPDEST DUP3 MSTORE POP POP JUMP JUMPDEST PUSH0 PUSH1 0x80 DUP3 ADD SWAP1 POP DUP2 DUP2 SUB PUSH0 DUP4 ADD MSTORE PUSH2 0xCDA DUP2 DUP8 PUSH2 0xC7B JUMP JUMPDEST SWAP1 POP DUP2 DUP2 SUB PUSH1 0x20 DUP4 ADD MSTORE PUSH2 0xCEE DUP2 DUP7 PUSH2 0xC7B JUMP JUMPDEST SWAP1 POP PUSH2 0xCFD PUSH1 0x40 DUP4 ADD DUP6 PUSH2 0xCB3 JUMP JUMPDEST PUSH2 0xD0A PUSH1 0x60 DUP4 ADD DUP5 PUSH2 0xCB3 JUMP JUMPDEST SWAP6 SWAP5 POP POP POP POP POP JUMP JUMPDEST PUSH0 PUSH1 0x20 DUP3 ADD SWAP1 POP DUP2 DUP2 SUB PUSH0 DUP4 ADD MSTORE PUSH2 0xD2B DUP2 DUP5 PUSH2 0xC7B JUMP JUMPDEST SWAP1 POP SWAP3 SWAP2 POP POP JUMP JUMPDEST PUSH0 PUSH1 0x20 DUP3 ADD SWAP1 POP PUSH2 0xD46 PUSH0 DUP4 ADD DUP5 PUSH2 0xCB3 JUMP JUMPDEST SWAP3 SWAP2 POP POP JUMP JUMPDEST PUSH0 PUSH0 REVERT JUMPDEST PUSH0 PUSH0 REVERT JUMPDEST PUSH32 0x4E487B7100000000000000000000000000000000000000000000000000000000 PUSH0 MSTORE PUSH1 0x41 PUSH1 0x4 MSTORE PUSH1 0x24 PUSH0 REVERT JUMPDEST PUSH2 0xD8A DUP3 PUSH2 0xC6B JUMP JUMPDEST DUP2 ADD DUP2 DUP2 LT PUSH8 0xFFFFFFFFFFFFFFFF DUP3 GT OR ISZERO PUSH2 0xDA9 JUMPI PUSH2 0xDA8 PUSH2 0xD54 JUMP JUMPDEST JUMPDEST DUP1 PUSH1 0x40 MSTORE POP POP POP JUMP JUMPDEST PUSH0 PUSH2 0xDBB PUSH2 0xBD4 JUMP JUMPDEST SWAP1 POP PUSH2 0xDC7 DUP3 DUP3 PUSH2 0xD81 JUMP JUMPDEST SWAP2 SWAP1 POP JUMP JUMPDEST PUSH0 PUSH8 0xFFFFFFFFFFFFFFFF DUP3 GT ISZERO PUSH2 0xDE6 JUMPI PUSH2 0xDE5 PUSH2 0xD54 JUMP JUMPDEST JUMPDEST PUSH2 0xDEF DUP3 PUSH2 0xC6B JUMP JUMPDEST SWAP1 POP PUSH1 0x20 DUP2 ADD SWAP1 POP SWAP2 SWAP1 POP JUMP JUMPDEST DUP3 DUP2 DUP4 CALLDATACOPY PUSH0 DUP4 DUP4 ADD MSTORE POP POP POP JUMP JUMPDEST PUSH0 PUSH2 0xE1C PUSH2 0xE17 DUP5 PUSH2 0xDCC JUMP JUMPDEST PUSH2 0xDB2 JUMP JUMPDEST SWAP1 POP DUP3 DUP2 MSTORE PUSH1 0x20 DUP2 ADD DUP5 DUP5 DUP5 ADD GT ISZERO PUSH2 0xE38 JUMPI PUSH2 0xE37 PUSH2 0xD50 JUMP JUMPDEST JUMPDEST PUSH2 0xE43 DUP5 DUP3 DUP6 PUSH2 0xDFC JUMP JUMPDEST POP SWAP4 SWAP3 POP POP POP JUMP JUMPDEST PUSH0 DUP3 PUSH1 0x1F DUP4 ADD SLT PUSH2 0xE5F JUMPI PUSH2 0xE5E PUSH2 0xD4C JUMP JUMPDEST JUMPDEST DUP2 CALLDATALOAD PUSH2 0xE6F DUP5 DUP3 PUSH1 0x20 DUP7 ADD PUSH2 0xE0A JUMP JUMPDEST SWAP2 POP POP SWAP3 SWAP2 POP POP JUMP JUMPDEST PUSH0 PUSH0 PUSH0 PUSH1 0x60 DUP5 DUP7 SUB SLT ISZERO PUSH2 0xE8F JUMPI PUSH2 0xE8E PUSH2 0xBDD JUMP JUMPDEST JUMPDEST PUSH0 DUP5 ADD CALLDATALOAD PUSH8 0xFFFFFFFFFFFFFFFF DUP2 GT ISZERO PUSH2 0xEAC JUMPI PUSH2 0xEAB PUSH2 0xBE1 JUMP JUMPDEST JUMPDEST PUSH2 0xEB8 DUP7 DUP3 DUP8 ADD PUSH2 0xE4B JUMP JUMPDEST SWAP4 POP POP PUSH1 0x20 DUP5 ADD CALLDATALOAD PUSH8 0xFFFFFFFFFFFFFFFF DUP2 GT ISZERO PUSH2 0xED9 JUMPI PUSH2 0xED8 PUSH2 0xBE1 JUMP JUMPDEST JUMPDEST PUSH2 0xEE5 DUP7 DUP3 DUP8 ADD PUSH2 0xE4B JUMP JUMPDEST SWAP3 POP POP PUSH1 0x40 PUSH2 0xEF6 DUP7 DUP3 DUP8 ADD PUSH2 0xC04 JUMP JUMPDEST SWAP2 POP POP SWAP3 POP SWAP3 POP SWAP3 JUMP JUMPDEST PUSH0 PUSH20 0xFFFFFFFFFFFFFFFFFFFFFFFFFFFFFFFFFFFFFFFF DUP3 AND SWAP1 POP SWAP2 SWAP1 POP JUMP JUMPDEST PUSH0 PUSH2 0xF29 DUP3 PUSH2 0xF00 JUMP JUMPDEST SWAP1 POP SWAP2 SWAP1 POP JUMP JUMPDEST PUSH2 0xF39 DUP2 PUSH2 0xF1F JUMP JUMPDEST DUP3 MSTORE POP POP JUMP JUMPDEST PUSH0 PUSH1 0x20 DUP3 ADD SWAP1 POP PUSH2 0xF52 PUSH0 DUP4 ADD DUP5 PUSH2 0xF30 JUMP JUMPDEST SWAP3 SWAP2 POP POP JUMP JUMPDEST PUSH32 0x4E487B7100000000000000000000000000000000000000000000000000000000 PUSH0 MSTORE PUSH1 0x22 PUSH1 0x4 MSTORE PUSH1 0x24 PUSH0 REVERT JUMPDEST PUSH0 PUSH1 0x2 DUP3 DIV SWAP1 POP PUSH1 0x1 DUP3 AND DUP1 PUSH2 0xF9C JUMPI PUSH1 0x7F DUP3 AND SWAP2 POP JUMPDEST PUSH1 0x20 DUP3 LT DUP2 SUB PUSH2 0xFAF JUMPI PUSH2 0xFAE PUSH2 0xF58 JUMP JUMPDEST JUMPDEST POP SWAP2 SWAP1 POP JUMP JUMPDEST PUSH32 0x4F6E6C7920746865206F776E65722063616E2063616C6C20746869732066756E PUSH0 DUP3 ADD MSTORE PUSH32 0x6374696F6E000000000000000000000000000000000000000000000000000000 PUSH1 0x20 DUP3 ADD MSTORE POP JUMP JUMPDEST PUSH0 PUSH2 0x100F PUSH1 0x25 DUP4 PUSH2 0xC4D JUMP JUMPDEST SWAP2 POP PUSH2 0x101A DUP3 PUSH2 0xFB5 JUMP JUMPDEST PUSH1 0x40 DUP3 ADD SWAP1 POP SWAP2 SWAP1 POP JUMP JUMPDEST PUSH0 PUSH1 0x20 DUP3 ADD SWAP1 POP DUP2 DUP2 SUB PUSH0 DUP4 ADD MSTORE PUSH2 0x103C DUP2 PUSH2 0x1003 JUMP JUMPDEST SWAP1 POP SWAP2 SWAP1 POP JUMP JUMPDEST PUSH32 0x54686520676F616C20686173206E6F74206265656E20726561636865642E0000 PUSH0 DUP3 ADD MSTORE POP JUMP JUMPDEST PUSH0 PUSH2 0x1077 PUSH1 0x1E DUP4 PUSH2 0xC4D JUMP JUMPDEST SWAP2 POP PUSH2 0x1082 DUP3 PUSH2 0x1043 JUMP JUMPDEST PUSH1 0x20 DUP3 ADD SWAP1 POP SWAP2 SWAP1 POP JUMP JUMPDEST PUSH0 PUSH1 0x20 DUP3 ADD SWAP1 POP DUP2 DUP2 SUB PUSH0 DUP4 ADD MSTORE PUSH2 0x10A4 DUP2 PUSH2 0x106B JUMP JUMPDEST SWAP1 POP SWAP2 SWAP1 POP JUMP JUMPDEST PUSH32 0x4E6F2062616C616E636520746F2077697468647261772E000000000000000000 PUSH0 DUP3 ADD MSTORE POP JUMP JUMPDEST PUSH0 PUSH2 0x10DF PUSH1 0x17 DUP4 PUSH2 0xC4D JUMP JUMPDEST SWAP2 POP PUSH2 0x10EA DUP3 PUSH2 0x10AB JUMP JUMPDEST PUSH1 0x20 DUP3 ADD SWAP1 POP SWAP2 SWAP1 POP JUMP JUMPDEST PUSH0 PUSH1 0x20 DUP3 ADD SWAP1 POP DUP2 DUP2 SUB PUSH0 DUP4 ADD MSTORE PUSH2 0x110C DUP2 PUSH2 0x10D3 JUMP JUMPDEST SWAP1 POP SWAP2 SWAP1 POP JUMP JUMPDEST PUSH32 0x416D6F756E74206D7573742062652067726561746572207468616E20302E0000 PUSH0 DUP3 ADD MSTORE POP JUMP JUMPDEST PUSH0 PUSH2 0x1147 PUSH1 0x1E DUP4 PUSH2 0xC4D JUMP JUMPDEST SWAP2 POP PUSH2 0x1152 DUP3 PUSH2 0x1113 JUMP JUMPDEST PUSH1 0x20 DUP3 ADD SWAP1 POP SWAP2 SWAP1 POP JUMP JUMPDEST PUSH0 PUSH1 0x20 DUP3 ADD SWAP1 POP DUP2 DUP2 SUB PUSH0 DUP4 ADD MSTORE PUSH2 0x1174 DUP2 PUSH2 0x113B JUMP JUMPDEST SWAP1 POP SWAP2 SWAP1 POP JUMP JUMPDEST PUSH0 DUP2 SWAP1 POP DUP2 PUSH0 MSTORE PUSH1 0x20 PUSH0 KECCAK256 SWAP1 POP SWAP2 SWAP1 POP JUMP JUMPDEST PUSH0 PUSH1 0x20 PUSH1 0x1F DUP4 ADD DIV SWAP1 POP SWAP2 SWAP1 POP JUMP JUMPDEST PUSH0 DUP3 DUP3 SHL SWAP1 POP SWAP3 SWAP2 POP POP JUMP JUMPDEST PUSH0 PUSH1 0x8 DUP4 MUL PUSH2 0x11D7 PUSH32 0xFFFFFFFFFFFFFFFFFFFFFFFFFFFFFFFFFFFFFFFFFFFFFFFFFFFFFFFFFFFFFFFF DUP3 PUSH2 0x119C JUMP JUMPDEST PUSH2 0x11E1 DUP7 DUP4 PUSH2 0x119C JUMP JUMPDEST SWAP6 POP DUP1 NOT DUP5 AND SWAP4 POP DUP1 DUP7 AND DUP5 OR SWAP3 POP POP POP SWAP4 SWAP3 POP POP POP JUMP JUMPDEST PUSH0 DUP2 SWAP1 POP SWAP2 SWAP1 POP JUMP JUMPDEST PUSH0 PUSH2 0x121C PUSH2 0x1217 PUSH2 0x1212 DUP5 PUSH2 0xBE5 JUMP JUMPDEST PUSH2 0x11F9 JUMP JUMPDEST PUSH2 0xBE5 JUMP JUMPDEST SWAP1 POP SWAP2 SWAP1 POP JUMP JUMPDEST PUSH0 DUP2 SWAP1 POP SWAP2 SWAP1 POP JUMP JUMPDEST PUSH2 0x1235 DUP4 PUSH2 0x1202 JUMP JUMPDEST PUSH2 0x1249 PUSH2 0x1241 DUP3 PUSH2 0x1223 JUMP JUMPDEST DUP5 DUP5 SLOAD PUSH2 0x11A8 JUMP JUMPDEST DUP3 SSTORE POP POP POP POP JUMP JUMPDEST PUSH0 PUSH0 SWAP1 POP SWAP1 JUMP JUMPDEST PUSH2 0x1260 PUSH2 0x1251 JUMP JUMPDEST PUSH2 0x126B DUP2 DUP5 DUP5 PUSH2 0x122C JUMP JUMPDEST POP POP POP JUMP JUMPDEST JUMPDEST DUP2 DUP2 LT ISZERO PUSH2 0x128E JUMPI PUSH2 0x1283 PUSH0 DUP3 PUSH2 0x1258 JUMP JUMPDEST PUSH1 0x1 DUP2 ADD SWAP1 POP PUSH2 0x1271 JUMP JUMPDEST POP POP JUMP JUMPDEST PUSH1 0x1F DUP3 GT ISZERO PUSH2 0x12D3 JUMPI PUSH2 0x12A4 DUP2 PUSH2 0x117B JUMP JUMPDEST PUSH2 0x12AD DUP5 PUSH2 0x118D JUMP JUMPDEST DUP2 ADD PUSH1 0x20 DUP6 LT ISZERO PUSH2 0x12BC JUMPI DUP2 SWAP1 POP JUMPDEST PUSH2 0x12D0 PUSH2 0x12C8 DUP6 PUSH2 0x118D JUMP JUMPDEST DUP4 ADD DUP3 PUSH2 0x1270 JUMP JUMPDEST POP POP JUMPDEST POP POP POP JUMP JUMPDEST PUSH0 DUP3 DUP3 SHR SWAP1 POP SWAP3 SWAP2 POP POP JUMP JUMPDEST PUSH0 PUSH2 0x12F3 PUSH0 NOT DUP5 PUSH1 0x8 MUL PUSH2 0x12D8 JUMP JUMPDEST NOT DUP1 DUP4 AND SWAP2 POP POP SWAP3 SWAP2 POP POP JUMP JUMPDEST PUSH0 PUSH2 0x130B DUP4 DUP4 PUSH2 0x12E4 JUMP JUMPDEST SWAP2 POP DUP3 PUSH1 0x2 MUL DUP3 OR SWAP1 POP SWAP3 SWAP2 POP POP JUMP JUMPDEST PUSH2 0x1324 DUP3 PUSH2 0xC43 JUMP JUMPDEST PUSH8 0xFFFFFFFFFFFFFFFF DUP2 GT ISZERO PUSH2 0x133D JUMPI PUSH2 0x133C PUSH2 0xD54 JUMP JUMPDEST JUMPDEST PUSH2 0x1347 DUP3 SLOAD PUSH2 0xF85 JUMP JUMPDEST PUSH2 0x1352 DUP3 DUP3 DUP6 PUSH2 0x1292 JUMP JUMPDEST PUSH0 PUSH1 0x20 SWAP1 POP PUSH1 0x1F DUP4 GT PUSH1 0x1 DUP2 EQ PUSH2 0x1383 JUMPI PUSH0 DUP5 ISZERO PUSH2 0x1371 JUMPI DUP3 DUP8 ADD MLOAD SWAP1 POP JUMPDEST PUSH2 0x137B DUP6 DUP3 PUSH2 0x1300 JUMP JUMPDEST DUP7 SSTORE POP PUSH2 0x13E2 JUMP JUMPDEST PUSH1 0x1F NOT DUP5 AND PUSH2 0x1391 DUP7 PUSH2 0x117B JUMP JUMPDEST PUSH0 JUMPDEST DUP3 DUP2 LT ISZERO PUSH2 0x13B8 JUMPI DUP5 DUP10 ADD MLOAD DUP3 SSTORE PUSH1 0x1 DUP3 ADD SWAP2 POP PUSH1 0x20 DUP6 ADD SWAP5 POP PUSH1 0x20 DUP2 ADD SWAP1 POP PUSH2 0x1393 JUMP JUMPDEST DUP7 DUP4 LT ISZERO PUSH2 0x13D5 JUMPI DUP5 DUP10 ADD MLOAD PUSH2 0x13D1 PUSH1 0x1F DUP10 AND DUP3 PUSH2 0x12E4 JUMP JUMPDEST DUP4 SSTORE POP JUMPDEST PUSH1 0x1 PUSH1 0x2 DUP9 MUL ADD DUP9 SSTORE POP POP POP JUMPDEST POP POP POP POP POP POP JUMP JUMPDEST PUSH32 0x5469657220646F6573206E6F742065786973742E000000000000000000000000 PUSH0 DUP3 ADD MSTORE POP JUMP JUMPDEST PUSH0 PUSH2 0x141E PUSH1 0x14 DUP4 PUSH2 0xC4D JUMP JUMPDEST SWAP2 POP PUSH2 0x1429 DUP3 PUSH2 0x13EA JUMP JUMPDEST PUSH1 0x20 DUP3 ADD SWAP1 POP SWAP2 SWAP1 POP JUMP JUMPDEST PUSH0 PUSH1 0x20 DUP3 ADD SWAP1 POP DUP2 DUP2 SUB PUSH0 DUP4 ADD MSTORE PUSH2 0x144B DUP2 PUSH2 0x1412 JUMP JUMPDEST SWAP1 POP SWAP2 SWAP1 POP JUMP JUMPDEST PUSH32 0x4E487B7100000000000000000000000000000000000000000000000000000000 PUSH0 MSTORE PUSH1 0x11 PUSH1 0x4 MSTORE PUSH1 0x24 PUSH0 REVERT JUMPDEST PUSH0 PUSH2 0x1489 DUP3 PUSH2 0xBE5 JUMP JUMPDEST SWAP2 POP PUSH2 0x1494 DUP4 PUSH2 0xBE5 JUMP JUMPDEST SWAP3 POP DUP3 DUP3 SUB SWAP1 POP DUP2 DUP2 GT ISZERO PUSH2 0x14AC JUMPI PUSH2 0x14AB PUSH2 0x1452 JUMP JUMPDEST JUMPDEST SWAP3 SWAP2 POP POP JUMP JUMPDEST PUSH32 0x4E487B7100000000000000000000000000000000000000000000000000000000 PUSH0 MSTORE PUSH1 0x32 PUSH1 0x4 MSTORE PUSH1 0x24 PUSH0 REVERT JUMPDEST PUSH0 DUP2 SLOAD SWAP1 POP PUSH2 0x14ED DUP2 PUSH2 0xF85 JUMP JUMPDEST SWAP1 POP SWAP2 SWAP1 POP JUMP JUMPDEST DUP2 DUP2 SUB PUSH2 0x1502 JUMPI POP POP PUSH2 0x15D7 JUMP JUMPDEST PUSH2 0x150B DUP3 PUSH2 0x14DF JUMP JUMPDEST PUSH8 0xFFFFFFFFFFFFFFFF DUP2 GT ISZERO PUSH2 0x1524 JUMPI PUSH2 0x1523 PUSH2 0xD54 JUMP JUMPDEST JUMPDEST PUSH2 0x152E DUP3 SLOAD PUSH2 0xF85 JUMP JUMPDEST PUSH2 0x1539 DUP3 DUP3 DUP6 PUSH2 0x1292 JUMP JUMPDEST PUSH0 PUSH1 0x1F DUP4 GT PUSH1 0x1 DUP2 EQ PUSH2 0x1566 JUMPI PUSH0 DUP5 ISZERO PUSH2 0x1554 JUMPI DUP3 DUP8 ADD SLOAD SWAP1 POP JUMPDEST PUSH2 0x155E DUP6 DUP3 PUSH2 0x1300 JUMP JUMPDEST DUP7 SSTORE POP PUSH2 0x15D0 JUMP JUMPDEST PUSH1 0x1F NOT DUP5 AND PUSH2 0x1574 DUP8 PUSH2 0x117B JUMP JUMPDEST SWAP7 POP PUSH2 0x157F DUP7 PUSH2 0x117B JUMP JUMPDEST PUSH0 JUMPDEST DUP3 DUP2 LT ISZERO PUSH2 0x15A6 JUMPI DUP5 DUP10 ADD SLOAD DUP3 SSTORE PUSH1 0x1 DUP3 ADD SWAP2 POP PUSH1 0x1 DUP6 ADD SWAP5 POP PUSH1 0x20 DUP2 ADD SWAP1 POP PUSH2 0x1581 JUMP JUMPDEST DUP7 DUP4 LT ISZERO PUSH2 0x15C3 JUMPI DUP5 DUP10 ADD SLOAD PUSH2 0x15BF PUSH1 0x1F DUP10 AND DUP3 PUSH2 0x12E4 JUMP JUMPDEST DUP4 SSTORE POP JUMPDEST PUSH1 0x1 PUSH1 0x2 DUP9 MUL ADD DUP9 SSTORE POP POP POP JUMPDEST POP POP POP POP POP POP JUMPDEST JUMP JUMPDEST PUSH32 0x4E487B7100000000000000000000000000000000000000000000000000000000 PUSH0 MSTORE PUSH1 0x31 PUSH1 0x4 MSTORE PUSH1 0x24 PUSH0 REVERT JUMPDEST PUSH32 0x546869732063616D706169676E2068617320656E6465642E0000000000000000 PUSH0 DUP3 ADD MSTORE POP JUMP JUMPDEST PUSH0 PUSH2 0x163A PUSH1 0x18 DUP4 PUSH2 0xC4D JUMP JUMPDEST SWAP2 POP PUSH2 0x1645 DUP3 PUSH2 0x1606 JUMP JUMPDEST PUSH1 0x20 DUP3 ADD SWAP1 POP SWAP2 SWAP1 POP JUMP JUMPDEST PUSH0 PUSH1 0x20 DUP3 ADD SWAP1 POP DUP2 DUP2 SUB PUSH0 DUP4 ADD MSTORE PUSH2 0x1667 DUP2 PUSH2 0x162E JUMP JUMPDEST SWAP1 POP SWAP2 SWAP1 POP JUMP JUMPDEST PUSH32 0x496E76616C696420746965722E00000000000000000000000000000000000000 PUSH0 DUP3 ADD MSTORE POP JUMP JUMPDEST PUSH0 PUSH2 0x16A2 PUSH1 0xD DUP4 PUSH2 0xC4D JUMP JUMPDEST SWAP2 POP PUSH2 0x16AD DUP3 PUSH2 0x166E JUMP JUMPDEST PUSH1 0x20 DUP3 ADD SWAP1 POP SWAP2 SWAP1 POP JUMP JUMPDEST PUSH0 PUSH1 0x20 DUP3 ADD SWAP1 POP DUP2 DUP2 SUB PUSH0 DUP4 ADD MSTORE PUSH2 0x16CF DUP2 PUSH2 0x1696 JUMP JUMPDEST SWAP1 POP SWAP2 SWAP1 POP JUMP JUMPDEST PUSH32 0x496E636F727265637420616D6F756E742E000000000000000000000000000000 PUSH0 DUP3 ADD MSTORE POP JUMP JUMPDEST PUSH0 PUSH2 0x170A PUSH1 0x11 DUP4 PUSH2 0xC4D JUMP JUMPDEST SWAP2 POP PUSH2 0x1715 DUP3 PUSH2 0x16D6 JUMP JUMPDEST PUSH1 0x20 DUP3 ADD SWAP1 POP SWAP2 SWAP1 POP JUMP JUMPDEST PUSH0 PUSH1 0x20 DUP3 ADD SWAP1 POP DUP2 DUP2 SUB PUSH0 DUP4 ADD MSTORE PUSH2 0x1737 DUP2 PUSH2 0x16FE JUMP JUMPDEST SWAP1 POP SWAP2 SWAP1 POP JUMP JUMPDEST PUSH0 PUSH2 0x1748 DUP3 PUSH2 0xBE5 JUMP JUMPDEST SWAP2 POP PUSH32 0xFFFFFFFFFFFFFFFFFFFFFFFFFFFFFFFFFFFFFFFFFFFFFFFFFFFFFFFFFFFFFFFF DUP3 SUB PUSH2 0x177A JUMPI PUSH2 0x1779 PUSH2 0x1452 JUMP JUMPDEST JUMPDEST PUSH1 0x1 DUP3 ADD SWAP1 POP SWAP2 SWAP1 POP JUMP INVALID LOG2 PUSH5 0x6970667358 0x22 SLT KECCAK256 PUSH1 0xCF 0xB8 0x4D SGT NUMBER DUP16 PUSH32 0x8465B5559C1E7E0AFF1C5193FBAE6852CE78A7F2B558608064736F6C63430008 0x1E STOP CALLER "
				},
				"gasEstimates": {
					"creation": {
						"codeDepositCost": "1215000",
						"executionCost": "infinite",
						"totalCost": "infinite"
					},
					"external": {
						"addTier(string,string,uint256)": "infinite",
						"deadline()": "2492",
						"description()": "infinite",
						"fund(uint256)": "infinite",
						"getBalance()": "379",
						"goal()": "2536",
						"name()": "infinite",
						"org_name()": "infinite",
						"owner()": "2574",
						"removeTier(uint256)": "infinite",
						"tiers(uint256)": "infinite",
						"withdraw()": "infinite"
					}
				},
				"methodIdentifiers": {
					"addTier(string,string,uint256)": "544a5446",
					"deadline()": "29dcb0cf",
					"description()": "7284e416",
					"fund(uint256)": "ca1d209d",
					"getBalance()": "12065fe0",
					"goal()": "40193883",
					"name()": "06fdde03",
					"org_name()": "db43adc0",
					"owner()": "8da5cb5b",
					"removeTier(uint256)": "7497211b",
					"tiers(uint256)": "039af9eb",
					"withdraw()": "3ccfd60b"
				}
			},
			"storageLayout": {
				"storage": [
					{
						"astId": 3,
						"contract": "contracts/CrowdFunding.sol:Crowdfunding",
						"label": "name",
						"offset": 0,
						"slot": "0",
						"type": "t_string_storage"
					},
					{
						"astId": 5,
						"contract": "contracts/CrowdFunding.sol:Crowdfunding",
						"label": "org_name",
						"offset": 0,
						"slot": "1",
						"type": "t_string_storage"
					},
					{
						"astId": 7,
						"contract": "contracts/CrowdFunding.sol:Crowdfunding",
						"label": "description",
						"offset": 0,
						"slot": "2",
						"type": "t_string_storage"
					},
					{
						"astId": 9,
						"contract": "contracts/CrowdFunding.sol:Crowdfunding",
						"label": "goal",
						"offset": 0,
						"slot": "3",
						"type": "t_uint256"
					},
					{
						"astId": 11,
						"contract": "contracts/CrowdFunding.sol:Crowdfunding",
						"label": "deadline",
						"offset": 0,
						"slot": "4",
						"type": "t_uint256"
					},
					{
						"astId": 13,
						"contract": "contracts/CrowdFunding.sol:Crowdfunding",
						"label": "owner",
						"offset": 0,
						"slot": "5",
						"type": "t_address"
					},
					{
						"astId": 26,
						"contract": "contracts/CrowdFunding.sol:Crowdfunding",
						"label": "tiers",
						"offset": 0,
						"slot": "6",
						"type": "t_array(t_struct(Tier)22_storage)dyn_storage"
					}
				],
				"types": {
					"t_address": {
						"encoding": "inplace",
						"label": "address",
						"numberOfBytes": "20"
					},
					"t_array(t_struct(Tier)22_storage)dyn_storage": {
						"base": "t_struct(Tier)22_storage",
						"encoding": "dynamic_array",
						"label": "struct Crowdfunding.Tier[]",
						"numberOfBytes": "32"
					},
					"t_string_storage": {
						"encoding": "bytes",
						"label": "string",
						"numberOfBytes": "32"
					},
					"t_struct(Tier)22_storage": {
						"encoding": "inplace",
						"label": "struct Crowdfunding.Tier",
						"members": [
							{
								"astId": 15,
								"contract": "contracts/CrowdFunding.sol:Crowdfunding",
								"label": "name",
								"offset": 0,
								"slot": "0",
								"type": "t_string_storage"
							},
							{
								"astId": 17,
								"contract": "contracts/CrowdFunding.sol:Crowdfunding",
								"label": "description",
								"offset": 0,
								"slot": "1",
								"type": "t_string_storage"
							},
							{
								"astId": 19,
								"contract": "contracts/CrowdFunding.sol:Crowdfunding",
								"label": "amount",
								"offset": 0,
								"slot": "2",
								"type": "t_uint256"
							},
							{
								"astId": 21,
								"contract": "contracts/CrowdFunding.sol:Crowdfunding",
								"label": "backers",
								"offset": 0,
								"slot": "3",
								"type": "t_uint256"
							}
						],
						"numberOfBytes": "128"
					},
					"t_uint256": {
						"encoding": "inplace",
						"label": "uint256",
						"numberOfBytes": "32"
					}
				}
			},
			"userdoc": {
				"kind": "user",
				"methods": {},
				"version": 1
			}
		}
	}
}