{
  "_format": "hh3-artifact-1",
  "contractName": "DonationsFactory",
  "sourceName": "contracts/DonationsFactory.sol",
  "abi": [
    {
      "inputs": [],
      "stateMutability": "nonpayable",
      "type": "constructor"
    },
    {
      "inputs": [],
      "name": "ReentrancyGuardReentrantCall",
      "type": "error"
    },
    {
      "anonymous": false,
      "inputs": [
        {
          "indexed": true,
          "internalType": "address",
          "name": "campaign",
          "type": "address"
        },
        {
          "indexed": true,
          "internalType": "address",
          "name": "owner",
          "type": "address"
        },
        {
          "indexed": false,
          "internalType": "string",
          "name": "name",
          "type": "string"
        },
        {
          "indexed": false,
          "internalType": "string",
          "name": "orgName",
          "type": "string"
        },
        {
          "indexed": false,
          "internalType": "uint256",
          "name": "goal",
          "type": "uint256"
        },
        {
          "indexed": false,
          "internalType": "uint256",
          "name": "createdAt",
          "type": "uint256"
        }
      ],
      "name": "CampaignCreated",
      "type": "event"
    },
    {
      "inputs": [
        {
          "internalType": "uint256",
          "name": "",
          "type": "uint256"
        }
      ],
      "name": "campaigns",
      "outputs": [
        {
          "internalType": "address",
          "name": "campaignAddress",
          "type": "address"
        },
        {
          "internalType": "address",
          "name": "owner",
          "type": "address"
        },
        {
          "internalType": "string",
          "name": "name",
          "type": "string"
        },
        {
          "internalType": "string",
          "name": "orgName",
          "type": "string"
        },
        {
          "internalType": "uint256",
          "name": "goal",
          "type": "uint256"
        },
        {
          "internalType": "uint256",
          "name": "creationTime",
          "type": "uint256"
        }
      ],
      "stateMutability": "view",
      "type": "function"
    },
    {
      "inputs": [
        {
          "internalType": "string",
          "name": "_name",
          "type": "string"
        },
        {
          "internalType": "string",
          "name": "_org_name",
          "type": "string"
        },
        {
          "internalType": "string",
          "name": "_description",
          "type": "string"
        },
        {
          "internalType": "uint256",
          "name": "_goal",
          "type": "uint256"
        }
      ],
      "name": "createCampaign",
      "outputs": [],
      "stateMutability": "nonpayable",
      "type": "function"
    },
    {
      "inputs": [],
      "name": "getCampaignsCount",
      "outputs": [
        {
          "internalType": "uint256",
          "name": "",
          "type": "uint256"
        }
      ],
      "stateMutability": "view",
      "type": "function"
    },
    {
      "inputs": [
        {
          "internalType": "address",
          "name": "user",
          "type": "address"
        }
      ],
      "name": "getUserCampaignsCount",
      "outputs": [
        {
          "internalType": "uint256",
          "name": "",
          "type": "uint256"
        }
      ],
      "stateMutability": "view",
      "type": "function"
    },
    {
      "inputs": [],
      "name": "owner",
      "outputs": [
        {
          "internalType": "address",
          "name": "",
          "type": "address"
        }
      ],
      "stateMutability": "view",
      "type": "function"
    },
    {
      "inputs": [],
      "name": "pause",
      "outputs": [],
      "stateMutability": "nonpayable",
      "type": "function"
    },
    {
      "inputs": [],
      "name": "paused",
      "outputs": [
        {
          "internalType": "bool",
          "name": "",
          "type": "bool"
        }
      ],
      "stateMutability": "view",
      "type": "function"
    },
    {
      "inputs": [],
      "name": "unpause",
      "outputs": [],
      "stateMutability": "nonpayable",
      "type": "function"
    },
    {
      "inputs": [
        {
          "internalType": "address",
          "name": "",
          "type": "address"
        },
        {
          "internalType": "uint256",
          "name": "",
          "type": "uint256"
        }
      ],
      "name": "userCampaigns",
      "outputs": [
        {
          "internalType": "address",
          "name": "campaignAddress",
          "type": "address"
        },
        {
          "internalType": "address",
          "name": "owner",
          "type": "address"
        },
        {
          "internalType": "string",
          "name": "name",
          "type": "string"
        },
        {
          "internalType": "string",
          "name": "orgName",
          "type": "string"
        },
        {
          "internalType": "uint256",
          "name": "goal",
          "type": "uint256"
        },
        {
          "internalType": "uint256",
          "name": "creationTime",
          "type": "uint256"
        }
      ],
      "stateMutability": "view",
      "type": "function"
    }
  ],
  "bytecode": "0x6080604052348015600e575f5ffd5b5060015f81905580546001600160a01b03191633179055612541806100325f395ff3fe608060405234801561000f575f5ffd5b5060043610610090575f3560e01c80635c975abb116100635780635c975abb146100f25780637e6253da146101165780638456cb59146101285780638da5cb5b14610130578063c8b605de1461015b575f5ffd5b8063141961bc1461009457806319ac74bd146100c25780633f4ba83a146100d55780634a15ef92146100df575b5f5ffd5b6100a76100a23660046107d5565b610183565b6040516100b99695949392919061081a565b60405180910390f35b6100a76100d0366004610888565b6102e3565b6100dd610334565b005b6100dd6100ed36600461094f565b61038f565b60015461010690600160a01b900460ff1681565b60405190151581526020016100b9565b6002545b6040519081526020016100b9565b6100dd610744565b600154610143906001600160a01b031681565b6040516001600160a01b0390911681526020016100b9565b61011a6101693660046109e5565b6001600160a01b03165f9081526003602052604090205490565b60028181548110610192575f80fd5b5f9182526020909120600690910201805460018201546002830180546001600160a01b0393841695509290911692916101ca90610a05565b80601f01602080910402602001604051908101604052809291908181526020018280546101f690610a05565b80156102415780601f1061021857610100808354040283529160200191610241565b820191905f5260205f20905b81548152906001019060200180831161022457829003601f168201915b50505050509080600301805461025690610a05565b80601f016020809104026020016040519081016040528092919081815260200182805461028290610a05565b80156102cd5780601f106102a4576101008083540402835291602001916102cd565b820191905f5260205f20905b8154815290600101906020018083116102b057829003601f168201915b5050505050908060040154908060050154905086565b6003602052815f5260405f2081815481106102fc575f80fd5b5f9182526020909120600690910201805460018201546002830180546001600160a01b0393841696509190921693506101ca90610a05565b6001546001600160a01b031633146103805760405162461bcd60e51b815260206004820152600a6024820152692737ba1037bbb732b91760b11b60448201526064015b60405180910390fd5b6001805460ff60a01b19169055565b600154600160a01b900460ff16156103de5760405162461bcd60e51b81526020600482015260126024820152712330b1ba37b93c9034b9903830bab9b2b21760711b6044820152606401610377565b6103e66107a0565b5f8451116104235760405162461bcd60e51b815260206004820152600a6024820152694e616d6520656d70747960b01b6044820152606401610377565b5f8351116104645760405162461bcd60e51b815260206004820152600e60248201526d4f7267206e616d6520656d70747960901b6044820152606401610377565b5f81116104a65760405162461bcd60e51b815260206004820152601060248201526f0476f616c206d757374206265203e20360841b6044820152606401610377565b5f33858585856040516104b8906107c8565b6104c6959493929190610a3d565b604051809103905ff0801580156104df573d5f5f3e3d5ffd5b509050806001600160a01b03811661052d5760405162461bcd60e51b815260206004820152601160248201527011195c1b1bde5b595b9d0819985a5b1959607a1b6044820152606401610377565b6040805160c0810182526001600160a01b038084168252336020830190815292820189815260608301899052608083018790524260a0840152600280546001810182555f91909152835160069091027f405787fa12a823e0f2b7631cc41b3ba8828b3321ca811111fa75cd3aa3bb5ace810180549285166001600160a01b031993841617815595517f405787fa12a823e0f2b7631cc41b3ba8828b3321ca811111fa75cd3aa3bb5acf8201805491909516921691909117909255519192839290917f405787fa12a823e0f2b7631cc41b3ba8828b3321ca811111fa75cd3aa3bb5ad0019061061b9082610ae5565b50606082015160038201906106309082610ae5565b506080820151600482015560a090910151600590910155335f90815260036020908152604080832080546001808201835591855293839020855160069095020180546001600160a01b03199081166001600160a01b03968716178255938601519181018054909416919094161790915582015182919060028201906106b59082610ae5565b50606082015160038201906106ca9082610ae5565b506080820151816004015560a082015181600501555050336001600160a01b0316826001600160a01b03167fada0d111faa4c3d443b09b9a5d21786bfe768dc215e0bce8830de404bea93c9d8989884260405161072a9493929190610ba0565b60405180910390a350505061073e60015f55565b50505050565b6001546001600160a01b0316331461078b5760405162461bcd60e51b815260206004820152600a6024820152692737ba1037bbb732b91760b11b6044820152606401610377565b6001805460ff60a01b1916600160a01b179055565b60025f54036107c257604051633ee5aeb560e01b815260040160405180910390fd5b60025f55565b61193380610bd983390190565b5f602082840312156107e5575f5ffd5b5035919050565b5f81518084528060208401602086015e5f602082860101526020601f19601f83011685010191505092915050565b6001600160a01b0387811682528616602082015260c0604082018190525f90610845908301876107ec565b828103606084015261085781876107ec565b6080840195909552505060a00152949350505050565b80356001600160a01b0381168114610883575f5ffd5b919050565b5f5f60408385031215610899575f5ffd5b6108a28361086d565b946020939093013593505050565b634e487b7160e01b5f52604160045260245ffd5b5f82601f8301126108d3575f5ffd5b813567ffffffffffffffff8111156108ed576108ed6108b0565b604051601f8201601f19908116603f0116810167ffffffffffffffff8111828210171561091c5761091c6108b0565b604052818152838201602001851015610933575f5ffd5b816020850160208301375f918101602001919091529392505050565b5f5f5f5f60808587031215610962575f5ffd5b843567ffffffffffffffff811115610978575f5ffd5b610984878288016108c4565b945050602085013567ffffffffffffffff8111156109a0575f5ffd5b6109ac878288016108c4565b935050604085013567ffffffffffffffff8111156109c8575f5ffd5b6109d4878288016108c4565b949793965093946060013593505050565b5f602082840312156109f5575f5ffd5b6109fe8261086d565b9392505050565b600181811c90821680610a1957607f821691505b602082108103610a3757634e487b7160e01b5f52602260045260245ffd5b50919050565b6001600160a01b038616815260a0602082018190525f90610a60908301876107ec565b8281036040840152610a7281876107ec565b90508281036060840152610a8681866107ec565b9150508260808301529695505050505050565b601f821115610ae057805f5260205f20601f840160051c81016020851015610abe5750805b601f840160051c820191505b81811015610add575f8155600101610aca565b50505b505050565b815167ffffffffffffffff811115610aff57610aff6108b0565b610b1381610b0d8454610a05565b84610a99565b6020601f821160018114610b45575f8315610b2e5750848201515b5f19600385901b1c1916600184901b178455610add565b5f84815260208120601f198516915b82811015610b745787850151825560209485019460019092019101610b54565b5084821015610b9157868401515f19600387901b60f8161c191681555b50505050600190811b01905550565b608081525f610bb260808301876107ec565b8281036020840152610bc481876107ec565b60408401959095525050606001529291505056fe608060405234801561000f575f5ffd5b5060405161193338038061193383398101604081905261002e916101e8565b6001600160a01b03851661007a5760405162461bcd60e51b815260206004820152600e60248201526d13dddb995c881c995c5d5a5c995960921b60448201526064015b60405180910390fd5b5f8451116100ba5760405162461bcd60e51b815260206004820152600d60248201526c13985b59481c995c5d5a5c9959609a1b6044820152606401610071565b5f8351116100f95760405162461bcd60e51b815260206004820152600c60248201526b13dc99c81c995c5d5a5c995960a21b6044820152606401610071565b5f6101048582610325565b5060016101118482610325565b50600261011e8382610325565b506003555050600480546001600160a01b0319166001600160a01b039390931692909217909155506103df565b634e487b7160e01b5f52604160045260245ffd5b5f82601f83011261016e575f5ffd5b81516001600160401b038111156101875761018761014b565b604051601f8201601f19908116603f011681016001600160401b03811182821017156101b5576101b561014b565b6040528181528382016020018510156101cc575f5ffd5b8160208501602083015e5f918101602001919091529392505050565b5f5f5f5f5f60a086880312156101fc575f5ffd5b85516001600160a01b0381168114610212575f5ffd5b60208701519095506001600160401b0381111561022d575f5ffd5b6102398882890161015f565b604088015190955090506001600160401b03811115610256575f5ffd5b6102628882890161015f565b606088015190945090506001600160401b0381111561027f575f5ffd5b61028b8882890161015f565b6080979097015195989497509295949392505050565b600181811c908216806102b557607f821691505b6020821081036102d357634e487b7160e01b5f52602260045260245ffd5b50919050565b601f82111561032057805f5260205f20601f840160051c810160208510156102fe5750805b601f840160051c820191505b8181101561031d575f815560010161030a565b50505b505050565b81516001600160401b0381111561033e5761033e61014b565b6103528161034c84546102a1565b846102d9565b6020601f821160018114610384575f831561036d5750848201515b5f19600385901b1c1916600184901b17845561031d565b5f84815260208120601f198516915b828110156103b35787850151825560209485019460019092019101610393565b50848210156103d057868401515f19600387901b60f8161c191681555b50505050600190811b01905550565b611547806103ec5f395ff3fe608060405260043610610101575f3560e01c80638422abc011610094578063ca1d209d11610063578063ca1d209d14610302578063d24f8cdd14610315578063db43adc014610340578063de17057014610354578063ed88c68e1461037557610140565b80638422abc0146102785780638456cb59146102975780638da5cb5b146102b7578063c4ae3168146102ee57610140565b806340193883116100d05780634019388314610201578063544a5446146102165780637284e416146102355780637adba5271461024957610140565b8063039af9eb1461017557806306fdde03146101ae57806312065fe0146101cf5780633ccfd60b146101eb57610140565b366101405760405162461bcd60e51b815260206004820152600a6024820152695573652066756e64282960b01b60448201526064015b60405180910390fd5b60405162461bcd60e51b815260206004820152600a6024820152695573652066756e64282960b01b6044820152606401610137565b348015610180575f5ffd5b5061019461018f366004610ffb565b61037d565b6040516101a5959493929190611040565b60405180910390f35b3480156101b9575f5ffd5b506101c26104cf565b6040516101a59190611084565b3480156101da575f5ffd5b50475b6040519081526020016101a5565b3480156101f6575f5ffd5b506101ff61055a565b005b34801561020c575f5ffd5b506101dd60035481565b348015610221575f5ffd5b506101ff61023036600461113c565b610677565b348015610240575f5ffd5b506101c26107ec565b348015610254575f5ffd5b506102686102633660046111c5565b6107f9565b60405190151581526020016101a5565b348015610283575f5ffd5b506101ff6102923660046111ed565b610829565b3480156102a2575f5ffd5b5060045461026890600160a01b900460ff1681565b3480156102c2575f5ffd5b506004546102d6906001600160a01b031681565b6040516001600160a01b0390911681526020016101a5565b3480156102f9575f5ffd5b506101ff610976565b6101ff610310366004610ffb565b610a06565b348015610320575f5ffd5b506101dd61032f36600461121f565b60066020525f908152604090205481565b34801561034b575f5ffd5b506101c2610c64565b34801561035f575f5ffd5b50610368610c71565b6040516101a59190611238565b6101ff610e15565b6005818154811061038c575f80fd5b905f5260205f2090600502015f91509050805f0180546103ab906112e2565b80601f01602080910402602001604051908101604052809291908181526020018280546103d7906112e2565b80156104225780601f106103f957610100808354040283529160200191610422565b820191905f5260205f20905b81548152906001019060200180831161040557829003601f168201915b505050505090806001018054610437906112e2565b80601f0160208091040260200160405190810160405280929190818152602001828054610463906112e2565b80156104ae5780601f10610485576101008083540402835291602001916104ae565b820191905f5260205f20905b81548152906001019060200180831161049157829003601f168201915b50505050600283015460038401546004909401549293909290915060ff1685565b5f80546104db906112e2565b80601f0160208091040260200160405190810160405280929190818152602001828054610507906112e2565b80156105525780601f1061052957610100808354040283529160200191610552565b820191905f5260205f20905b81548152906001019060200180831161053557829003601f168201915b505050505081565b6004546001600160a01b031633146105845760405162461bcd60e51b81526004016101379061131a565b600454600160a81b900460ff16156105ae5760405162461bcd60e51b81526004016101379061135f565b6004805460ff60a81b1916600160a81b179055478061060f5760405162461bcd60e51b815260206004820152601760248201527f4e6f2062616c616e636520746f2077697468647261772e0000000000000000006044820152606401610137565b600454610625906001600160a01b031682610f41565b6004546040518281526001600160a01b03909116907f7084f5476618d8e60b11ef0d7d3f06914655adb8793e28ff7f018d4c76d505d59060200160405180910390a2506004805460ff60a81b19169055565b6004546001600160a01b031633146106a15760405162461bcd60e51b81526004016101379061131a565b5f81116106f05760405162461bcd60e51b815260206004820152601e60248201527f416d6f756e74206d7573742062652067726561746572207468616e20302e00006044820152606401610137565b6040805160a081018252848152602081018490529081018290525f6060820181905260016080830181905260058054918201815591829052825191027f036b6384b5eca791c62761152d0c79bb0604c104a5fb6f4eb0703f3154bb3db00190819061075b90826113cf565b506020820151600182019061077090826113cf565b5060408201516002820155606082015160038201556080909101516004909101805460ff19169115159190911790556005546107ae9060019061149e565b7f32431b33ee3c4bb849e7f853b20f22c2aa519c033953f013411b4fab3d65778284836040516107df9291906114b1565b60405180910390a2505050565b600280546104db906112e2565b6001600160a01b0382165f90815260066020908152604080832084845260010190915290205460ff165b92915050565b6004546001600160a01b031633146108535760405162461bcd60e51b81526004016101379061131a565b600554821061089b5760405162461bcd60e51b81526020600482015260146024820152732a34b2b9103237b2b9903737ba1032bc34b9ba1760611b6044820152606401610137565b600582815481106108ae576108ae6114d2565b905f5260205f209060050201600301545f14806108c85750805b6109145760405162461bcd60e51b815260206004820152601d60248201527f43616e6e6f7420646561637469766174652066756e64656420746965720000006044820152606401610137565b8060058381548110610928576109286114d2565b5f9182526020822060059190910201600401805460ff19169215159290921790915560405183917ffe2efe9272eb0deb4938823c5d646855a80e10848bf50af99ef34310d8f92b8d91a25050565b6004546001600160a01b031633146109a05760405162461bcd60e51b81526004016101379061131a565b6004805460ff600160a01b808304821615810260ff60a01b1990931692909217928390556040517fda88b5dfaac55549d4ddddd43a09d4b911233df354952ebc9ac2041aa1853436936109fc9390049091161515815260200190565b60405180910390a1565b600454600160a01b900460ff1615610a565760405162461bcd60e51b815260206004820152601360248201527221b7b73a3930b1ba1034b9903830bab9b2b21760691b6044820152606401610137565b600454600160a81b900460ff1615610a805760405162461bcd60e51b81526004016101379061135f565b6004805460ff60a81b1916600160a81b1790556005548110610ad45760405162461bcd60e51b815260206004820152600d60248201526c24b73b30b634b2103a34b2b91760991b6044820152606401610137565b60058181548110610ae757610ae76114d2565b5f91825260209091206004600590920201015460ff16610b395760405162461bcd60e51b815260206004820152600d60248201526c5469657220696e61637469766560981b6044820152606401610137565b60058181548110610b4c57610b4c6114d2565b905f5260205f209060050201600201543414610b9e5760405162461bcd60e51b815260206004820152601160248201527024b731b7b93932b1ba1030b6b7bab73a1760791b6044820152606401610137565b60058181548110610bb157610bb16114d2565b5f91825260208220600360059092020101805491610bce836114e6565b9091555050335f9081526006602052604081208054349290610bf19084906114fe565b9091555050335f8181526006602090815260408083208584526001908101835292819020805460ff191690931790925590513481528392917f4b0304ab2f313234b1cea012339c8f8c3bf2c8bb357d81a579cfdb35d2e3d030910160405180910390a3506004805460ff60a81b19169055565b600180546104db906112e2565b60606005805480602002602001604051908101604052809291908181526020015f905b82821015610e0c578382905f5260205f2090600502016040518060a00160405290815f82018054610cc4906112e2565b80601f0160208091040260200160405190810160405280929190818152602001828054610cf0906112e2565b8015610d3b5780601f10610d1257610100808354040283529160200191610d3b565b820191905f5260205f20905b815481529060010190602001808311610d1e57829003601f168201915b50505050508152602001600182018054610d54906112e2565b80601f0160208091040260200160405190810160405280929190818152602001828054610d80906112e2565b8015610dcb5780601f10610da257610100808354040283529160200191610dcb565b820191905f5260205f20905b815481529060010190602001808311610dae57829003601f168201915b505050918352505060028201546020808301919091526003830154604083015260049092015460ff1615156060909101529082526001929092019101610c94565b50505050905090565b600454600160a01b900460ff1615610e655760405162461bcd60e51b815260206004820152601360248201527221b7b73a3930b1ba1034b9903830bab9b2b21760691b6044820152606401610137565b600454600160a81b900460ff1615610e8f5760405162461bcd60e51b81526004016101379061135f565b6004805460ff60a81b1916600160a81b17905534610eda5760405162461bcd60e51b81526020600482015260086024820152674e6f2076616c756560c01b6044820152606401610137565b335f9081526006602052604081208054349290610ef89084906114fe565b909155505060405134815233907f15e21f4817b1a4c072a466bfed14624bf02337fc3da78f8b8eee045d4e623ba09060200160405180910390a26004805460ff60a81b19169055565b80471015610f6b5760405163cf47918160e01b815247600482015260248101829052604401610137565b5f5f836001600160a01b0316836040515f6040518083038185875af1925050503d805f8114610fb5576040519150601f19603f3d011682016040523d82523d5f602084013e610fba565b606091505b509150915081610fcd57610fcd81610fd3565b50505050565b805115610fe257805160208201fd5b60405163d6bda27560e01b815260040160405180910390fd5b5f6020828403121561100b575f5ffd5b5035919050565b5f81518084528060208401602086015e5f602082860101526020601f19601f83011685010191505092915050565b60a081525f61105260a0830188611012565b82810360208401526110648188611012565b604084019690965250506060810192909252151560809091015292915050565b602081525f6110966020830184611012565b9392505050565b634e487b7160e01b5f52604160045260245ffd5b5f82601f8301126110c0575f5ffd5b813567ffffffffffffffff8111156110da576110da61109d565b604051601f8201601f19908116603f0116810167ffffffffffffffff811182821017156111095761110961109d565b604052818152838201602001851015611120575f5ffd5b816020850160208301375f918101602001919091529392505050565b5f5f5f6060848603121561114e575f5ffd5b833567ffffffffffffffff811115611164575f5ffd5b611170868287016110b1565b935050602084013567ffffffffffffffff81111561118c575f5ffd5b611198868287016110b1565b93969395505050506040919091013590565b80356001600160a01b03811681146111c0575f5ffd5b919050565b5f5f604083850312156111d6575f5ffd5b6111df836111aa565b946020939093013593505050565b5f5f604083850312156111fe575f5ffd5b8235915060208301358015158114611214575f5ffd5b809150509250929050565b5f6020828403121561122f575f5ffd5b611096826111aa565b5f602082016020835280845180835260408501915060408160051b8601019250602086015f5b828110156112d657603f198786030184528151805160a0875261128460a0880182611012565b90506020820151878203602089015261129d8282611012565b604084810151908a0152606080850151908a0152608093840151151593909801929092525050602093840193919091019060010161125e565b50929695505050505050565b600181811c908216806112f657607f821691505b60208210810361131457634e487b7160e01b5f52602260045260245ffd5b50919050565b60208082526025908201527f4f6e6c7920746865206f776e65722063616e2063616c6c20746869732066756e60408201526431ba34b7b760d91b606082015260800190565b6020808252600a90820152695265656e7472616e637960b01b604082015260600190565b601f8211156113ca57805f5260205f20601f840160051c810160208510156113a85750805b601f840160051c820191505b818110156113c7575f81556001016113b4565b50505b505050565b815167ffffffffffffffff8111156113e9576113e961109d565b6113fd816113f784546112e2565b84611383565b6020601f82116001811461142f575f83156114185750848201515b5f19600385901b1c1916600184901b1784556113c7565b5f84815260208120601f198516915b8281101561145e578785015182556020948501946001909201910161143e565b508482101561147b57868401515f19600387901b60f8161c191681555b50505050600190811b01905550565b634e487b7160e01b5f52601160045260245ffd5b818103818111156108235761082361148a565b604081525f6114c36040830185611012565b90508260208301529392505050565b634e487b7160e01b5f52603260045260245ffd5b5f600182016114f7576114f761148a565b5060010190565b808201808211156108235761082361148a56fea26469706673582212203789611c67509d5a8266f093523b0bee6dbe385baebf87f236dcdcb1dd2faa8b64736f6c634300081c0033a264697066735822122076dc124673aff472087695fb77c812bd9f145dc886c3e45c9fdba795b729b91d64736f6c634300081c0033",
  "linkReferences": {},
  "deployedLinkReferences": {},
  "immutableReferences": {},
  "inputSourceName": "project/contracts/DonationsFactory.sol",
  "buildInfoId": "solc-0_8_28-d106f4b6fa8585ddbd5a5f10c882184fb4e45c3a"
}